:100000000C9446000C9465000C9465000C946500FB
:100010000C9465000C9465000C9465000C946500CC
:100020000C9465000C9465000C9465000C946500BC
:100030000C9465000C94A5010C9465000C9465006B
:100040000C9465000C9465000C9465000C9465009C
:100050000C9465000C9465000C9465000C9465008C
:100060000C9465000C9465000C9465000C9465007C
:100070000C9465000C9465000C9465000C9465006C
:100080000C9465000C9465000C94650011241FBE4F
:10009000CFEFD0E4DEBFCDBF11E0A0E0B1E0E6EEEF
:1000A000F2E200E00BBF02C007900D92A034B1074E
:1000B000D9F723E0A0E4B1E001C01D92A235B20758
:1000C000E1F70E94480E0C9471110C940000CF933C
:1000D000DF93CDB7DEB781E00E948E000000DF9194
:1000E000CF910895CF93DF93CDB7DEB784E690E04C
:1000F0000E94310188E30E948E0086E00E948E00FB
:100100008FE00E948E0081E00E948E008AE090E0E5
:100110000E9431010000DF91CF910895CF93DF93CA
:100120000F92CDB7DEB789838BE290E0FC0120818E
:100130008BE290E02F7BFC01208385E290E0298117
:10014000FC0120838BE290E0FC0120818BE290E0B7
:100150002068FC01208300008BE290E0FC012081FC
:100160008BE290E02F77FC01208382E090E00E94F8
:10017000310100000F90DF91CF910895CF93DF936D
:100180000F92CDB7DEB789838BE290E0FC0120812E
:100190008BE290E02064FC01208385E290E02981DD
:1001A000FC0120838BE290E0FC0120818BE290E057
:1001B0002068FC01208300008BE290E0FC0120819C
:1001C0008BE290E02F77FC01208381E090E00E9499
:1001D000310100000F90DF91CF910895CF93DF930D
:1001E00000D000D0CDB7DEB78A837C836B838A8151
:1001F000898311C0898191E0980F99830E941A0127
:100200008B819C819C012F5F3F4F3C832B83FC01A2
:1002100080810E94BE008B819C81FC0180818823AB
:1002200049F7000000000F900F900F900F90DF91A2
:10023000CF910895CF93DF930F92CDB7DEB7898327
:100240008981813128F4898181580E948E0004C0FF
:10025000898181550E948E0000000F90DF91CF911F
:100260000895CF93DF9300D000D000D0CDB7DEB794
:100270009E838D831A82198213C01C821B8206C042
:1002800000008B819C8101969C838B838B819C8158
:1002900087309340ACF389819A8101969A83898350
:1002A00029813A818D819E812817390734F3000016
:1002B000000026960FB6F894DEBF0FBECDBFDF91CB
:1002C000CF910895CF93DF93CDB7DEB781E890E06B
:1002D0002BE0FC01208388E890E02DE730E0FC0172
:1002E000318320838FE690E022E0FC01208384E8C4
:1002F00090E0FC0111821082809100019091010137
:10030000A0910201B09103018093400190934101BB
:10031000A0934201B09343018FE590E0FC0120815E
:100320008FE590E02068FC0120830000DF91CF91F1
:100330000895CF93DF93CDB7DEB781E890E0FC015D
:1003400010820000DF91CF9108951F920F920FB697
:100350000F9211240BB60F922F933F934F935F93FD
:100360006F937F938F939F93AF93BF93EF93FF937D
:10037000CF93DF93CDB7DEB78091400190914101DB
:10038000A0914201B09143010197A109B109809365
:10039000400190934101A0934201B09343018091A9
:1003A000400190914101A0914201B0914301892BFC
:1003B0008A2B8B2B91F40E94370D80910001909134
:1003C0000101A0910201B09103018093400190933B
:1003D0004101A0934201B09343010000DF91CF910E
:1003E000FF91EF91BF91AF919F918F917F916F910D
:1003F0005F914F913F912F910F900BBE0F900FBEC9
:100400000F901F901895CF93DF9300D000D0CDB7F9
:10041000DEB769837A838B839C8389819A81AB81E0
:10042000BC818093000190930101A0930201B093DD
:1004300003018091000190910101A0910201B0910E
:1004400003018093400190934101A0934201B09336
:10045000430100000F900F900F900F90DF91CF910C
:100460000895CF93DF93CDB7DEB764970FB6F894B6
:10047000DEBF0FBECDBF69837A838B839C8380915F
:100480004C0190914D01A0914E01B0914F019C0102
:10049000AD0169817A818B819C810E94920E8823B3
:1004A00009F491C020E030E0A90169817A818B8153
:1004B0009C810E94920E882351F481E990E0DC0136
:1004C0002C9181E990E02870FC01208309C081E92A
:1004D00090E0DC012C9181E990E02360FC01208315
:1004E00028E539E344E75FE369817A818B819C8168
:1004F0000E94920E88234CF488E990E02FEF3FEFA2
:10050000DC0111963C932E934DC020E034E244EF81
:1005100056E469817A818B819C810E94B40F181600
:1005200034F488E990E0FC01118210823BC020E0A5
:1005300030E040E053E469817A818B819C810E94A4
:10054000B90F69877A878B879C8789859A85AB8560
:10055000BC859C01AD0160E074E284EF9AE40E94E6
:10056000970E6D877E878F87988B8D859E85AF854B
:10057000B8898D839E83AF83B8876D817E818F819B
:1005800098850E94090F698B7A8B8B8B9C8B89894C
:100590009A899C012150310988E990E0DC0111968B
:1005A0003C932E9384E990E0FC01118210828981B2
:1005B0009A81AB81BC8180934C0190934D01A093B3
:1005C0004E01B0934F01000064960FB6F894DEBF61
:1005D0000FBECDBFDF91CF910895CF93DF93CDB7FD
:1005E000DEB780E990E020E4FC01208381E990E01F
:1005F0002BE0FC01208360E070E0CB010E9431021F
:100600000000DF91CF910895CF93DF93CDB7DEB790
:1006100080E990E0FC01108281E990E0FC01108209
:100620000000DF91CF910895CF93DF9300D0CDB735
:10063000DEB79A83898389819A81292F332785ECB4
:1006400090E0FC01208384EC90E02981FC01208370
:1006500082EC90E02EE0FC01208381EC90E028E128
:10066000FC01208300000F900F90DF91CF9108953F
:10067000CF93DF93CDB7DEB7000080EC90E0FC01B4
:1006800080818823D4F70000DF91CF910895CF9324
:10069000DF93CDB7DEB7000080EC90E0FC018081F5
:1006A000882F90E080749927892BB1F30000DF91A7
:1006B000CF910895CF93DF930F92CDB7DEB705C0EA
:1006C00086EC90E0FC018081898380EC90E0FC0165
:1006D00080818823ACF300000F90DF91CF910895C3
:1006E000CF93DF930F92CDB7DEB78983000080EC04
:1006F00090E0FC018081882F90E080729927892BFF
:10070000B1F386EC90E02981FC01208300000F907A
:10071000DF91CF910895CF93DF93CDB7DEB781EC12
:1007200090E0FC0110820000DF91CF910895CF93FB
:10073000DF93CDB7DEB7000080EC90E0FC01808154
:100740008823D4F786EC90E0FC018081DF91CF9183
:100750000895CF93DF9300D00F92CDB7DEB79B8380
:100760008A83198229C08981882F90E02A813B8160
:10077000820F931F0396FC0110828981882F90E0DD
:100780002A813B81880F991F820F931F89599F4FA0
:10079000FC01118210828981882F90E02A813B819F
:1007A000880F991F820F931F815D9E4FFC0111825C
:1007B000108289818F5F89838A819B81FC0180817E
:1007C0009981981780F28A819B81FC0110828A812D
:1007D0009B81FC011282118200000F900F900F90FC
:1007E000DF91CF910895CF93DF93CDB7DEB72897F0
:1007F0000FB6F894DEBF0FBECDBF9A8389837C838A
:100800006B835E834D8338872F8389819A81FC01B6
:1008100080818436F0F589819A81FC018081882F5E
:1008200090E04B8129813A81820F931F0396FC014E
:10083000408389819A81FC018081882F90E0298101
:100840003A81880F991F820F931F89599F4F2D81DD
:100850003E81FC013183208389819A81FC01808162
:10086000882F90E029813A81880F991F820F931F6A
:10087000815D9E4F2F813885FC01318320838981E2
:100880009A81FC01808121E0280F89819A81FC01F5
:100890002083000028960FB6F894DEBF0FBECDBFB0
:1008A000DF91CF910895CF93DF9300D00F92CDB712
:1008B000DEB79B838A8380914501882319F11092CA
:1008C0004501198215C08981882F90E0865A9E4F74
:1008D000FC0180810E9470038981882F90E0865AF4
:1008E0009E4FFC018081882349F089818F5F898335
:1008F000809157019981981730F301C0000080E082
:100900000E9470038A819B810F900F900F90DF915E
:10091000CF910895CF93DF93CDB7DEB7A7970FB6EA
:10092000F894DEBF0FBECDBF9B838A8380E290E048
:10093000FC0180818095898380914601882309F09C
:100940002FC28981882F90E08038910509F49EC1DB
:10095000813891050CF0CEC18034910509F462C153
:10096000813491050CF0C6C18032910509F426C18D
:10097000813291050CF0BEC18031910509F4EAC0C5
:10098000813191050CF0B6C18830910509F4AEC0F3
:10099000893091050CF0AEC18430910509F472C024
:1009A000853091050CF0A6C18130910519F00297B0
:1009B000A9F1A0C181E08093470180914701882F70
:1009C00090E0880F991F880F991F855E9E4FFC014C
:1009D00020813181428153812C833D834E835F830B
:1009E0006C817D818E819F810E94310280914801BE
:1009F00090914901892B41F48091580190915901BE
:100A0000909349018093480185E290E0FC012081A8
:100A100085E290E02160FC012083C3C182E08093E5
:100A2000470180914701882F90E0880F991F880F18
:100A3000991F855E9E4FFC01208131814281538147
:100A4000288739874A875B87688579858A859B856A
:100A50000E9431028091480190914901892B41F413
:100A600080915801909159019093490180934801D8
:100A700085E290E0FC01208185E290E02160FC01AC
:100A800020838FC183E08093470180914701882FA5
:100A900090E0880F991F880F991F855E9E4FFC017B
:100AA00020813181428153812C873D874E875F872A
:100AB0006C857D858E859F850E94310280914801DD
:100AC00090914901892B41F48091580190915901ED
:100AD000909349018093480185E290E0FC012081D8
:100AE00085E290E02160FC0120835BC184E080937B
:100AF000470180914701882F90E0880F991F880F48
:100B0000991F855E9E4FFC01208131814281538176
:100B1000288B398B4A8B5B8B688979898A899B8979
:100B20000E9431028091480190914901892B41F442
:100B30008091580190915901909349018093480107
:100B400085E290E0FC01208185E290E02160FC01DB
:100B5000208327C185E08093470180914701882F3A
:100B600090E0880F991F880F991F855E9E4FFC01AA
:100B700020813181428153812C8B3D8B4E8B5F8B49
:100B80006C897D898E899F890E94310280914801FC
:100B900090914901892B41F480915801909159011C
:100BA000909349018093480185E290E0FC01208107
:100BB00085E290E02160FC012083F3C086E0809311
:100BC000470180914701882F90E0880F991F880F77
:100BD000991F855E9E4FFC012081318142815381A6
:100BE000288F398F4A8F5B8F688D798D8A8D9B8D89
:100BF0000E9431028091480190914901892B41F472
:100C00008091580190915901909349018093480136
:100C100085E290E0FC01208185E290E02160FC010A
:100C20002083BFC087E08093470180914701882FD0
:100C300090E0880F991F880F991F855E9E4FFC01D9
:100C400020813181428153812C8F3D8F4E8F5F8F68
:100C50006C8D7D8D8E8D9F8D0E943102809148011B
:100C600090914901892B41F480915801909159014B
:100C7000909349018093480185E290E0FC01208136
:100C800085E290E02160FC0120838BC088E08093A6
:100C9000470180914701882F90E0880F991F880FA6
:100CA000991F855E9E4FFC012081318142815381D5
:100CB00028A339A34AA35BA368A179A18AA19BA118
:100CC0000E9431028091480190914901892B41F4A1
:100CD0008091580190915901909349018093480166
:100CE00085E290E0FC01208185E290E02160FC013A
:100CF000208357C085E290E0FC01208185E290E0EE
:100D00002E7FFC01208380914401882329F180916A
:100D10004701882309F120915801309159018091B0
:100D2000480190914901A901481B590BCA019093B0
:100D30004B0180934A0120914A0130914B0140912F
:100D400048015091490180914701882F90E0BC01F2
:100D500087E591E00E94F3031092470180914701DB
:100D6000882F90E0880F991F880F991F855E9E4FEE
:100D7000FC0120813181428153812CA33DA34EA3EC
:100D80005FA36CA17DA18EA19FA10E943102109250
:100D900049011092480110924B0110924A0101C082
:100DA00000008A819B81A7960FB6F894DEBF0FBE24
:100DB000CDBFDF91CF910895CF93DF9300D0CDB712
:100DC000DEB79A83898380914401882371F0209152
:100DD0005801309159018091050190910601820FCF
:100DE000931F909359018093580189819A810F90A4
:100DF0000F90DF91CF910895CF93DF9300D00F92A2
:100E0000CDB7DEB79B838A8386E290E0FC018081C8
:100E1000882F90E08170992721E0892B09F020E04C
:100E2000298380914601882309F086C08A819B81AD
:100E3000049709F44EC08A819B8105970CF054C039
:100E40008A819B810397D1F18A819B8104970CF061
:100E50004BC08A819B81029731F18A819B810397E4
:100E60000CF042C08A819B81892B29F08A819B8169
:100E7000019731F039C081E090E09B838A833AC0CA
:100E80008981882319F082E090E002C081E090E03F
:100E90009B838A838A819B81029759F587E591E03C
:100EA0000E94A90326C08981882319F082E090E07E
:100EB00002C083E090E09B838A831CC089818823E1
:100EC00019F084E090E002C083E090E09B838A8385
:100ED00011C08981882319F084E090E002C081E08C
:100EE00090E09B838A8306C081E090E09B838A83A5
:100EF00001C000008A819B81029729F08A819B8131
:100F0000049771F01AC081E08093440185E290E07B
:100F1000FC01208185E290E02460FC0120830DC06B
:100F20001092440185E290E0FC01208185E290E08E
:100F30002B7FFC01208301C000008A819B810F90E0
:100F40000F900F90DF91CF910895CF93DF9300D052
:100F50000F92CDB7DEB79B838A8386E290E0FC01D7
:100F600080818095827089838A819B810397C1F1FA
:100F70008A819B8104970CF054C08A819B810297DF
:100F8000F1F08A819B8103970CF04BC08A819B8191
:100F9000892B29F08A819B81019731F042C081E041
:100FA00090E09B838A8343C08981882319F082E083
:100FB00090E002C081E090E09B838A8338C083E0A8
:100FC00090E09B838A8381E08093450185E290E0F5
:100FD000FC01208185E290E02760FC01208327C08E
:100FE0008981882319F083E090E002C081E090E0DD
:100FF0009B838A8385E290E0FC01208185E290E07A
:101000002760FC0120838A819B81019779F485E226
:1010100090E0FC01208185E290E0287FFC012083A4
:1010200005C081E090E09B838A8301C000008A8133
:101030009B810F900F900F90DF91CF910895CF93E8
:10104000DF9300D00F92CDB7DEB79B838A8386E211
:1010500090E0FC01808180958470898380914401B7
:10106000882309F091C08A819B81039789F480913C
:101070004601882369F481E090E09B838A8385E2BE
:1010800090E0FC01208185E290E02D7FFC0120832F
:101090008A819B81049709F445C08A819B810597C9
:1010A0000CF04BC08A819B81039789F18A819B81D7
:1010B00004970CF042C08A819B810297E9F08A81F3
:1010C0009B810397D4F58A819B81892B29F08A81A2
:1010D0009B81019731F031C081E090E09B838A834E
:1010E00031C08981882319F082E090E002C081E05C
:1010F00090E09B838A8326C08981882319F082E04F
:1011000090E002C083E090E09B838A831BC08981CA
:10111000882319F084E090E002C083E090E09B8394
:101120008A8310C08981882319F084E090E002C08E
:1011300081E090E09B838A8305C081E090E09B83FF
:101140008A8300008A819B81029729F08A819B8192
:10115000049771F01AC081E08093460185E290E027
:10116000FC01208185E290E02260FC0120830DC01B
:101170001092460185E290E0FC01208185E290E03A
:101180002D7FFC01208301C000008A819B810F908C
:101190000F900F90DF91CF910895CF93DF93CDB74C
:1011A000DEB762970FB6F894DEBF0FBECDBF9A834D
:1011B000898380914601882309F4ABC020915801AE
:1011C00030915901809150019091510182179307FC
:1011D00008F092C080915201882F90E0880F991FEB
:1011E00082549E4FFC012081318180915001909169
:1011F00051018217930708F466C080915201882F2D
:1012000090E0880F991F8A579D4FFC012081318102
:10121000809153019091540182179307B8F5809102
:101220005201882F90E0865A9E4FFC018081882FC2
:1012300090E0880F991F880F991F855E9E4FFC01D3
:1012400020813181428153812B833C834D835E8396
:101250006B817C818D819E810E943102209153019E
:10126000309154018091050190910601820F931FE6
:10127000909354018093530185E290E0FC0120811A
:1012800085E290E02160FC01208327C01F82188640
:1012900019861A866F81788589859A850E94310220
:1012A00085E290E0FC01208185E290E02E7FFC0148
:1012B00020831092540110925301809152018F5F4C
:1012C000809352010AC01B861C861D861E866B8574
:1012D0007C858D859E850E94310220915001309140
:1012E00051018091050190910601820F931F909307
:1012F00051018093500117C01F86188A198A1A8AD3
:101300006F85788989899A890E94310210924601F5
:101310000AC0109251011092500110925201109285
:1013200054011092530189819A8162960FB6F89404
:10133000DEBF0FBECDBFDF91CF910895CF93DF9376
:1013400000D0CDB7DEB780910401882F90E06CE02B
:1013500070E00E94261090935601809355011982E7
:101360001A8240915501509156018981282F30E011
:10137000C901880F991F820F931F880F991F880F2B
:10138000991F840F951F2A81222F30E0FC013183A1
:1013900020834091050150910601609155017091A3
:1013A00056018981282F30E0C901880F991F820FCB
:1013B000931F880F991F880F991F9B01280F391FB2
:1013C000CA01A0E0B0E0F90182839383A483B583CE
:1013D00040915501509156018981282F30E0C90173
:1013E000880F991F820F931F880F991F880F991FCD
:1013F000480F591F60915501709156018981282F1E
:1014000030E0C901880F991F820F931F880F991F21
:10141000880F991F9B01280F391FFA018281938140
:10142000A481B581F90186839783A087B187409114
:101430005501509156018981282F30E0C901880F4C
:10144000991F820F931F880F991F880F991F840F70
:10145000951F23E534E0FC013387228789818F5F64
:10146000898340915501509156018981282F30E0A0
:10147000C901880F991F820F931F880F991F880F2A
:10148000991F840F951F2A81222F30E0FC013183A0
:1014900020834091050150910601609155017091A2
:1014A00056018981282F30E0C901880F991F820FCA
:1014B000931F880F991F880F991F9B01280F391FB1
:1014C000CA01A0E0B0E0F90182839383A483B583CD
:1014D00040915501509156018981282F30E0C90172
:1014E000880F991F820F931F880F991F880F991FCC
:1014F000480F591F60915501709156018981282F1D
:1015000030E0C901880F991F820F931F880F991F20
:10151000880F991F9B01280F391FFA01828193813F
:10152000A481B581F90186839783A087B187409113
:101530005501509156018981282F30E0C901880F4B
:10154000991F820F931F880F991F880F991F840F6F
:10155000951F2AE834E0FC013387228789818F5F59
:10156000898340915501509156018981282F30E09F
:10157000C901880F991F820F931F880F991F880F29
:10158000991F840F951F2A81222F30E0FC0131839F
:1015900020834091050150910601609155017091A1
:1015A00056018981282F30E0C901880F991F820FC9
:1015B000931F880F991F880F991F9B01280F391FB0
:1015C000CA01A0E0B0E0F90182839383A483B583CC
:1015D00040915501509156018981282F30E0C90171
:1015E000880F991F820F931F880F991F880F991FCB
:1015F000480F591F60915501709156018981282F1C
:1016000030E0C901880F991F820F931F880F991F1F
:10161000880F991F9B01280F391FFA01828193813E
:10162000A481B581F90186839783A087B187409112
:101630005501509156018981282F30E0C901880F4A
:10164000991F820F931F880F991F880F991F840F6E
:10165000951F2CED36E0FC013387228789818F5F4F
:10166000898340915501509156018981282F30E09E
:10167000C901880F991F820F931F880F991F880F28
:10168000991F840F951F2A81222F30E0FC0131839E
:1016900020834091050150910601609155017091A0
:1016A00056018981282F30E0C901880F991F820FC8
:1016B000931F880F991F880F991F9B01280F391FAF
:1016C000CA01A0E0B0E0F90182839383A483B583CB
:1016D00040915501509156018981282F30E0C90170
:1016E000880F991F820F931F880F991F880F991FCA
:1016F000480F591F60915501709156018981282F1B
:1017000030E0C901880F991F820F931F880F991F1E
:10171000880F991F9B01280F391FFA01828193813D
:10172000A481B581F90186839783A087B187409111
:101730005501509156018981282F30E0C901880F49
:10174000991F820F931F880F991F880F991F840F6D
:10175000951F2CEF36E0FC013387228789818F5F4C
:10176000898340915501509156018981282F30E09D
:10177000C901880F991F820F931F880F991F880F27
:10178000991F840F951F2A81222F30E0FC0131839D
:10179000208340910501509106016091550170919F
:1017A00056018981282F30E0C901880F991F820FC7
:1017B000931F880F991F880F991F9B01280F391FAE
:1017C000CA01A0E0B0E0F90182839383A483B583CA
:1017D00040915501509156018981282F30E0C9016F
:1017E000880F991F820F931F880F991F880F991FC9
:1017F000480F591F60915501709156018981282F1A
:1018000030E0C901880F991F820F931F880F991F1D
:10181000880F991F9B01280F391FFA01828193813C
:10182000A481B581F90186839783A087B187409110
:101830005501509156018981282F30E0C901880F48
:10184000991F820F931F880F991F880F991F840F6C
:10185000951F25EA37E0FC013387228789818F5F56
:10186000898340915501509156018981282F30E09C
:10187000C901880F991F820F931F880F991F880F26
:10188000991F840F951F2A81222F30E0FC0131839C
:10189000208340910501509106016091550170919E
:1018A00056018981282F30E0C901880F991F820FC6
:1018B000931F880F991F880F991F9B01280F391FAD
:1018C000CA01A0E0B0E0F90182839383A483B583C9
:1018D00040915501509156018981282F30E0C9016E
:1018E000880F991F820F931F880F991F880F991FC8
:1018F000480F591F60915501709156018981282F19
:1019000030E0C901880F991F820F931F880F991F1C
:10191000880F991F9B01280F391FFA01828193813B
:10192000A481B581F90186839783A087B18740910F
:101930005501509156018981282F30E0C901880F47
:10194000991F820F931F880F991F880F991F840F6B
:10195000951F2FE138E0FC013387228789818F5F53
:10196000898340915501509156018981282F30E09B
:10197000C901880F991F820F931F880F991F880F25
:10198000991F840F951F2A81222F30E0FC0131839B
:10199000208340910501509106016091550170919D
:1019A00056018981282F30E0C901880F991F820FC5
:1019B000931F880F991F880F991F9B01280F391FAC
:1019C000CA01A0E0B0E0F90182839383A483B583C8
:1019D00040915501509156018981282F30E0C9016D
:1019E000880F991F820F931F880F991F880F991FC7
:1019F000480F591F60915501709156018981282F18
:101A000030E0C901880F991F820F931F880F991F1B
:101A1000880F991F9B01280F391FFA01828193813A
:101A2000A481B581F90186839783A087B18740910E
:101A30005501509156018981282F30E0C901880F46
:101A4000991F820F931F880F991F880F991F840F6A
:101A5000951F2DEC38E0FC013387228789818F5F49
:101A6000898300000F900F90DF91CF9108950F931D
:101A70001F93CF93DF930F92CDB7DEB71982D1C0FA
:101A800040915501509156018981282F30E0C901BC
:101A9000880F991F820F931F880F991F880F991F16
:101AA000840F951FDC0116964D915D916D917C918F
:101AB0001997E0915501F09156018981282F30E066
:101AC000C901880F991F820F931F880F991F880FD4
:101AD000991F8E0F9F1FFC0182819381A481B58184
:101AE000481759076A077B0708F45BC04091550106
:101AF000509156018981282F30E0C901880F991F24
:101B0000820F931F880F991F880F991F840F951FAD
:101B1000DC011A964D915C916091550170915601CE
:101B20008981282F30E0C901880F991F820F931FE8
:101B3000880F991F880F991F860F971FDC01ED9161
:101B4000FC9160915501709156018981282F30E0F8
:101B5000C901880F991F820F931F880F991F880F43
:101B6000991F8B01080F191FCF01FA010995D801A0
:101B70008D939C9340915501509156018981282F56
:101B800030E0C901880F991F820F931F880F991F9A
:101B9000880F991F840F951FFC01168217821086EB
:101BA000118640915501509156018981282F30E0CE
:101BB000C901880F991F820F931F880F991F880FE3
:101BC000991F840F951FDC0116960D911D912D9183
:101BD0003C9119978091050190910601AC0160E05C
:101BE00070E0A0915501B09156018981E82FF0E095
:101BF000CF01880F991F8E0F9F1F880F991F880F85
:101C0000991FFD01E80FF91FD901C801840F951F25
:101C1000A61FB71F86839783A087B18789818F5FAF
:101C20008983809104019981981708F429CF0000D5
:101C300000000F90DF91CF911F910F910895CF93E6
:101C4000DF9300D00F92CDB7DEB789837B836A83A1
:101C500089818A3031F48A819B81BC018DE00E94A8
:101C60001F0E80EC90E0FC018081882F90E0807254
:101C70009927892BB1F386EC90E02981FC01208320
:101C800080E090E00F900F900F90DF91CF9108953A
:101C9000CF93DF9300D000D0CDB7DEB781E290E0E4
:101CA000FC01108282E290E02FEFFC01208384E2AD
:101CB00090E02FEFFC01208385E290E0FC01108290
:101CC00087E290E0FC01108288E290E02FEFFC01B7
:101CD00020838AE290E02FEFFC0120838BE290E0EA
:101CE000FC01108280910501909106019C0140E069
:101CF00050E029833A834B835C8369817A818B81AD
:101D00009C810E9403020E9462018BE090E00E948D
:101D1000140387E591E00E94A9030E94ED020E944E
:101D20009E09FFCF0E943F0F08F481E008950E94B2
:101D3000AB0E0C947A0F0E94730F58F00E946C0F38
:101D400040F029F45F3F29F00C94630F51110C947B
:101D5000AE0F0C94690F0E948B0F68F39923B1F3B7
:101D6000552391F3951B550BBB27AA2762177307C1
:101D7000840738F09F5F5F4F220F331F441FAA1F55
:101D8000A9F335D00E2E3AF0E0E832D09150504011
:101D9000E695001CCAF72BD0FE2F29D0660F771FBF
:101DA000881FBB1F261737074807AB07B0E809F0A5
:101DB000BB0B802DBF01FF2793585F4F3AF09E3F2A
:101DC000510578F00C94630F0C94AE0F5F3FE4F371
:101DD000983ED4F3869577956795B795F7959F5F6D
:101DE000C9F7880F911D9695879597F90895E1E0B9
:101DF000660F771F881FBB1F621773078407BA0718
:101E000020F0621B730B840BBA0BEE1F88F7E09572
:101E100008950E94100F6894B1110C94AE0F0895AC
:101E20000E94930F88F09F5798F0B92F9927B751C8
:101E3000B0F0E1F0660F771F881F991F1AF0BA956E
:101E4000C9F714C0B13091F00E94AD0FB1E0089510
:101E50000C94AD0F672F782F8827B85F39F0B93F02
:101E6000CCF3869577956795B395D9F73EF4909521
:101E70008095709561957F4F8F4F9F4F0895990F73
:101E80000008550FAA0BE0E8FEEF16161706E80744
:101E9000F907C0F012161306E407F50798F0621B65
:101EA000730B840B950B39F40A2661F0232B242B3A
:101EB000252B21F408950A2609F4A140A6958FEF59
:101EC000811D811D089597F99F6780E870E060E0AB
:101ED00008959FEF80EC089500240A9416161706C3
:101EE00018060906089500240A941216130614060B
:101EF00005060895092E0394000C11F4882352F06E
:101F0000BB0F40F4BF2B11F460FF04C06F5F7F4F25
:101F10008F4F9F4F089557FD9058440F551F59F00C
:101F20005F3F71F04795880F97FB991F61F09F3FC6
:101F300079F087950895121613061406551FF2CFEF
:101F40004695F1DF08C0161617061806991FF1CF3F
:101F500086957105610508940895E894BB27662766
:101F60007727CB0197F908950E943F0F08F48FEF70
:101F700008950E94CC0F0C947A0F0E946C0F38F0D9
:101F80000E94730F20F0952311F00C94630F0C94B2
:101F9000690F11240C94AE0F0E948B0F70F3959F64
:101FA000C1F3950F50E0551F629FF001729FBB2750
:101FB000F00DB11D639FAA27F00DB11DAA1F649FEC
:101FC0006627B00DA11D661F829F2227B00DA11D9F
:101FD000621F739FB00DA11D621F839FA00D611D25
:101FE000221F749F3327A00D611D231F849F600D46
:101FF000211D822F762F6A2F11249F5750409AF06F
:10200000F1F088234AF0EE0FFF1FBB1F661F771FFA
:10201000881F91505040A9F79E3F510580F00C94C5
:10202000630F0C94AE0F5F3FE4F3983ED4F38695B4
:1020300077956795B795F795E7959F5FC1F7FE2B65
:10204000880F911D9695879597F908950F931F9383
:10205000CF93DF93869F8001879F100D969F100D71
:102060001124C8010E944210EC01009729F0A80138
:1020700070E060E00E946A11CE01DF91CF911F9164
:102080000F9108950F931F93CF93DF939C010297B5
:1020900010F422E030E0E0915003F091510390E021
:1020A00080E0B0E0A0E0309791F4009709F445C0DB
:1020B000821B930B84309105B8F58A819B81611551
:1020C000710569F1FB0193838283FE0111C0408198
:1020D00051810281138142175307F0F042175307D1
:1020E00099F4109761F012960C93129713961C9323
:1020F0003296CF01DF91CF911F910F9108950093F8
:10210000500310935103F4CF009719F04817590763
:1021100018F4CA01BD01EF01DF01F801C4CF9093AB
:10212000510380935003D1CFFE01E80FF91F219393
:102130003193029799838883DCCF80914E039091ED
:102140004F03892B41F480911701909118019093CE
:102150004F0380934E0380911501909116010097D3
:1021600041F48DB79EB74091190150911A01841B1B
:10217000950B40914E0350914F034817590708F0B3
:10218000B8CF841B950B8217930708F4B2CFB9011F
:102190006E5F7F4F8617970708F4ABCF640F751FEC
:1021A00070934F0360934E03FA0121933193A1CFB3
:1021B000CF93DF939C010097E9F0FC0132971382E3
:1021C0001282C0915003D0915103DE0190E080E073
:1021D0002097A1F480819181280F391F80914E03AF
:1021E00090914F038217930709F067C0F0934F0354
:1021F000E0934E03DF91CF910895DA01AE17BF0748
:1022000008F041C012964D915C911397CD01411594
:10221000510599F7DC011396FC93EE9312974D91BB
:102220005D91A40FB51FEA17FB0781F4208131816E
:102230002E5F3F4F240F351FDC0111963C932E93E8
:102240002281338113963C932E931297B0E0A0E045
:102250008A819B810097B1F5FE0181919191E80FF0
:10226000F91F80914E0390914F038E179F0711F62F
:10227000109759F51092510310925003D0934F03C9
:10228000C0934E03B7CFB383A28340815181240F03
:10229000351FA217B30771F44E5F5F4F2D913C912C
:1022A0001197420F531F5183408312962D913C91F9
:1022B00033832283009709F0ADCFF0935103E0936D
:1022C000500398CFDE01EC01C3CF13961C921E92EF
:1022D0001297D4CFDC0101C06D9341505040E0F71C
:0622E0000895F894FFCF01
:1022E6000100000007640000000002000000001F5B
:1022F6000E0000000000005203200000000000A4B1
:10230600D082437BD49243A4D0A443719DAE4300B4
:1023160000C4430000DC430080F64300D0024400C2
:00000001FF
