:100000000C9446000C9465000C9465000C946500FB
:100010000C9465000C9465000C9465000C946500CC
:100020000C9465000C9465000C9465000C946500BC
:100030000C9465000C94A5010C9465000C9465006B
:100040000C9465000C9465000C9465000C9465009C
:100050000C9465000C9465000C9465000C9465008C
:100060000C9465000C9465000C9465000C9465007C
:100070000C9465000C9465000C9465000C9465006C
:100080000C9465000C9465000C94650011241FBE4F
:10009000CFEFD0E4DEBFCDBF11E0A0E0B1E0E0ECF7
:1000A000F5E200E00BBF02C007900D92A035B1074A
:1000B000D9F725E0A0E5B1E001C01D92AA35B2074D
:1000C000E1F70E94AC0F0C94DE120C940000CF9369
:1000D000DF93CDB7DEB781E00E948E000000DF9194
:1000E000CF910895CF93DF93CDB7DEB784E690E04C
:1000F0000E94310188E30E948E0086E00E948E00FB
:100100008FE00E948E0081E00E948E008AE090E0E5
:100110000E9431010000DF91CF910895CF93DF93CA
:100120000F92CDB7DEB789838BE290E0FC0120818E
:100130008BE290E02F7BFC01208385E290E0298117
:10014000FC0120838BE290E0FC0120818BE290E0B7
:100150002068FC01208300008BE290E0FC012081FC
:100160008BE290E02F77FC01208382E090E00E94F8
:10017000310100000F90DF91CF910895CF93DF936D
:100180000F92CDB7DEB789838BE290E0FC0120812E
:100190008BE290E02064FC01208385E290E02981DD
:1001A000FC0120838BE290E0FC0120818BE290E057
:1001B0002068FC01208300008BE290E0FC0120819C
:1001C0008BE290E02F77FC01208381E090E00E9499
:1001D000310100000F90DF91CF910895CF93DF930D
:1001E00000D000D0CDB7DEB78A837C836B838A8151
:1001F000898311C0898191E0980F99830E941A0127
:100200008B819C819C012F5F3F4F3C832B83FC01A2
:1002100080810E94BE008B819C81FC0180818823AB
:1002200049F7000000000F900F900F900F90DF91A2
:10023000CF910895CF93DF930F92CDB7DEB7898327
:100240008981813128F4898181580E948E0004C0FF
:10025000898181550E948E0000000F90DF91CF911F
:100260000895CF93DF9300D000D000D0CDB7DEB794
:100270009E838D831A82198213C01C821B8206C042
:1002800000008B819C8101969C838B838B819C8158
:1002900087309340ACF389819A8101969A83898350
:1002A00029813A818D819E812817390734F3000016
:1002B000000026960FB6F894DEBF0FBECDBFDF91CB
:1002C000CF910895CF93DF93CDB7DEB781E890E06B
:1002D0002BE0FC01208388E890E02DE730E0FC0172
:1002E000318320838FE690E022E0FC01208384E8C4
:1002F00090E0FC0111821082809100019091010137
:10030000A0910201B091030180935001909351019B
:10031000A0935201B09353018FE590E0FC0120813E
:100320008FE590E02068FC0120830000DF91CF91F1
:100330000895CF93DF93CDB7DEB781E890E0FC015D
:1003400010820000DF91CF9108951F920F920FB697
:100350000F9211240BB60F922F933F934F935F93FD
:100360006F937F938F939F93AF93BF93EF93FF937D
:10037000CF93DF93CDB7DEB78091500190915101BB
:10038000A0915201B09153010197A109B109809345
:10039000500190935101A0935201B0935301809169
:1003A000500190915101A0915201B0915301892BBC
:1003B0008A2B8B2B91F40E949B0E809100019091CF
:1003C0000101A0910201B09103018093500190932B
:1003D0005101A0935201B09353010000DF91CF91DE
:1003E000FF91EF91BF91AF919F918F917F916F910D
:1003F0005F914F913F912F910F900BBE0F900FBEC9
:100400000F901F901895CF93DF9300D000D0CDB7F9
:10041000DEB769837A838B839C8389819A81AB81E0
:10042000BC818093000190930101A0930201B093DD
:1004300003018091000190910101A0910201B0910E
:1004400003018093500190935101A0935201B09306
:10045000530100000F900F900F900F90DF91CF91FC
:100460000895CF93DF93CDB7DEB764970FB6F894B6
:10047000DEBF0FBECDBF69837A838B839C8380915F
:100480005A0190915B01A0915C01B0915D019C01CA
:10049000AD0169817A818B819C810E94F60F88234E
:1004A00009F491C020E030E0A90169817A818B8153
:1004B0009C810E94F60F882351F481E990E0DC01D1
:1004C0002C9181E990E02870FC01208309C081E92A
:1004D00090E0DC012C9181E990E02360FC01208315
:1004E00028E539E344E75FE369817A818B819C8168
:1004F0000E94F60F88234CF488E990E02FEF3FEF3D
:10050000DC0111963C932E934DC020E034E244EF81
:1005100056E469817A818B819C810E94181118169A
:1005200034F488E990E0FC01118210823BC020E0A5
:1005300030E040E053E469817A818B819C810E94A4
:100540001D1169877A878B879C8789859A85AB85FA
:10055000BC859C01AD0160E074E284EF9AE40E94E6
:10056000FB0F6D877E878F87988B8D859E85AF85E6
:10057000B8898D839E83AF83B8876D817E818F819B
:1005800098850E946D10698B7A8B8B8B9C8B8989E7
:100590009A899C012150310988E990E0DC0111968B
:1005A0003C932E9384E990E0FC01118210828981B2
:1005B0009A81AB81BC8180935A0190935B01A09397
:1005C0005C01B0935D01000064960FB6F894DEBF45
:1005D0000FBECDBFDF91CF910895CF93DF93CDB7FD
:1005E000DEB780E990E020E4FC01208381E990E01F
:1005F0002BE0FC01208360E070E0CB010E9431021F
:100600000000DF91CF910895CF93DF93CDB7DEB790
:1006100080E990E0FC01108281E990E0FC01108209
:100620000000DF91CF910895CF93DF9300D0CDB735
:10063000DEB79A83898389819A81292F332785ECB4
:1006400090E0FC01208384EC90E02981FC01208370
:1006500082EC90E02EE0FC01208381EC90E028E128
:10066000FC01208300000F900F90DF91CF9108953F
:10067000CF93DF93CDB7DEB7000080EC90E0FC01B4
:1006800080818823D4F70000DF91CF910895CF9324
:10069000DF93CDB7DEB7000080EC90E0FC018081F5
:1006A000882F90E080749927892BB1F30000DF91A7
:1006B000CF910895CF93DF93CDB7DEB780EC90E074
:1006C000FC0180818074DF91CF910895CF93DF93F7
:1006D000CDB7DEB780EC90E0FC0180818078DF91BF
:1006E000CF910895CF93DF930F92CDB7DEB705C0BA
:1006F00086EC90E0FC018081898380EC90E0FC0135
:1007000080818823ACF300000F90DF91CF91089592
:10071000CF93DF930F92CDB7DEB78983000080ECD3
:1007200090E0FC018081882F90E080729927892BCE
:10073000B1F386EC90E02981FC01208300000F904A
:10074000DF91CF910895CF93DF93CDB7DEB781ECE2
:1007500090E0FC0110820000DF91CF910895CF93CB
:10076000DF93CDB7DEB7000080EC90E0FC01808124
:100770008823D4F786EC90E0FC018081DF91CF9153
:100780000895CF93DF9300D00F92CDB7DEB79B8350
:100790008A83198229C08981882F90E02A813B8130
:1007A000820F931F0396FC0110828981882F90E0AD
:1007B0002A813B81880F991F820F931F89599F4F70
:1007C000FC01118210828981882F90E02A813B816F
:1007D000880F991F820F931F815D9E4FFC0111822C
:1007E000108289818F5F898389818436A0F28A8112
:1007F0009B81FC0110828A819B81FC011282118203
:1008000000000F900F900F90DF91CF910895CF933C
:10081000DF93CDB7DEB728970FB6F894DEBF0FBED3
:10082000CDBF9A8389837C836B835E834D833887B6
:100830002F8389819A81FC0180818436F0F589813A
:100840009A81FC018081882F90E04B8129813A8137
:10085000820F931F0396FC01408389819A81FC01DA
:100860008081882F90E029813A81880F991F820F1B
:10087000931F89599F4F2D813E81FC013183208335
:1008800089819A81FC018081882F90E029813A81B9
:10089000880F991F820F931F815D9E4F2F8138858E
:1008A000FC013183208389819A81FC01808121E0D0
:1008B000280F89819A81FC012083000028960FB6B9
:1008C000F894DEBF0FBECDBFDF91CF910895CF93D7
:1008D000DF93CDB7DEB728970FB6F894DEBF0FBE13
:1008E000CDBF9E838D8378876F838F81988547EFF7
:1008F00051E060E070E00E94D7128D819E81FC0182
:100900008081282F8F819885FC0120838D819E8195
:10091000FC01818192819093660180936501209111
:1009200065018F8198850196FC01208320916601E5
:100930008F8198850296FC0120838D819E819C0188
:100940002D5F3F4F8F819885039644E650E0B901B3
:100950000E94CE121C821B821A82198263C02D81D2
:100960003E8189819A81880F991F820F931F89592F
:100970009F4FFC0180819181909366018093650176
:1009800089819A81880F991F9C838B83409165018F
:100990008B819C8189599F4F9C018F819885820F03
:1009A000931F242FFC012083409166018B819C8141
:1009B00088599F4F2F813885820F931F242FFC0168
:1009C00020832D813E8189819A81880F991F820F12
:1009D000931F815D9E4FFC01808191819093660100
:1009E00080936501409165018B819C81815D9E4F63
:1009F0009C018F819885820F931F242FFC012083F7
:100A0000409166018B819C81805D9E4F2F8138854E
:100A1000820F931F242FFC01208389819A810196E4
:100A20009A83898389819A81843691050CF497CFC2
:100A30008D819E8182519C4F21E0FC01208300002A
:100A400028960FB6F894DEBF0FBECDBFDF91CF91D1
:100A50000895CF93DF93CDB7DEB728970FB6F894FC
:100A6000DEBF0FBECDBF9E838D8378876F838D8160
:100A70009E810E94C1038F8198859C012D5F3F4F0D
:100A80008D819E81039644E650E0B9010E94CE120A
:100A90008F819885FC018081282F8D819E81FC01AA
:100AA00020838F8198850296FC0180818093660166
:100AB0008F8198850196FC0180818093650120914A
:100AC0006501309166018D819E81FC013283218315
:100AD0001C821B821A8219825FC089819A81880FC9
:100AE000991F9C838B838B819C8188599F4F2F8179
:100AF0003885820F931FFC018081809365018B8173
:100B00009C8189599F4F9C018F819885820F931FEB
:100B1000FC0180818093660120916501309166011E
:100B20004D815E8189819A81880F991F840F951F5D
:100B300089599F4FFC01318320838B819C81805D8B
:100B40009E4F2F813885820F931FFC0180818093F7
:100B500065018B819C81815D9E4F9C018F81988571
:100B6000820F931FFC0180818093660120916501B3
:100B7000309166014D815E8189819A81880F991F2C
:100B8000840F951F815D9E4FFC01318320838981F5
:100B90009A8101969A83898389819A818436910505
:100BA0000CF49BCF0000000028960FB6F894DEBF2F
:100BB0000FBECDBFDF91CF910895CF93DF9300D0CB
:100BC00000D00F92CDB7DEB79D838C8390915401F6
:100BD00084E08923882359F184E080959091540121
:100BE0008923809354016EE573E087E691E00E94CB
:100BF000670481E00E9488030E94AF038B838B818E
:100C00008F3FA9F41A8219820DC089819A81825A74
:100C10009C4FFC0180810E94880389819A81019602
:100C20009A83898389819A81873F914070F38C816F
:100C30009D810F900F900F900F900F90DF91CF91AB
:100C40000895CF93DF9300D000D00F92CDB7DEB7D9
:100C50009D838C830E946603882309F448C00E9408
:100C6000AF038B838B81813009F041C047EF51E0A6
:100C700060E070E08EE593E00E94D7128FEF0E9453
:100C800088031A8219820EC00E94AF03282F89811F
:100C90009A81825A9C4FFC01208389819A81019616
:100CA0009A83898389819A81873F914068F381E0A3
:100CB000809355056EE573E087E691E00E94290573
:100CC00080916701882351F085E290E0FC0120814A
:100CD00085E290E02860FC01208309C085E290E075
:100CE000FC01208185E290E0277FFC0120838C813C
:100CF0009D810F900F900F900F900F90DF91CF91EB
:100D00000895CF93DF9300D000D000D00F92CDB7DD
:100D1000DEB79B838A8380E290E0FC01808180952E
:100D2000898380915401882F90E08E709927892BB8
:100D300009F099C08981882F90E08038910509F4E5
:100D400045C0813891050CF045C080349105D1F142
:100D5000813491050CF03EC08032910579F18132E9
:100D60009105C4F58031910529F18131910594F502
:100D700088309105D9F08930910564F5843091056A
:100D800089F08530910534F58130910519F002978D
:100D900029F020C081E00E94570E68C082E00E94C6
:100DA000570E64C083E00E94570E60C084E00E942A
:100DB000570E5CC085E00E94570E58C086E00E9426
:100DC000570E54C087E00E94570E50C088E00E9422
:100DD000570E4CC085E290E0FC01208185E290E056
:100DE0002E7FFC0120831C821D821E821F826C814B
:100DF0007D818E819F810E9431029091540181E01A
:100E00008923882391F180915501882371F12091E4
:100E10006801309169018091560190915701A901B3
:100E2000481B590BCA019093590180935801209196
:100E300058013091590140915601509157018091CC
:100E40005501882F90E0BC0187E691E00E940704DD
:100E500010925501109257011092560110925901AB
:100E60001092580102C0000001C000008A819B81DD
:100E700027960FB6F894DEBF0FBECDBFDF91CF919E
:100E80000895CF93DF9300D0CDB7DEB79A838983DF
:100E90009091540181E0981771F42091680130918C
:100EA00069018091070190910801820F931F90932F
:100EB00069018093680189819A810F900F90DF9179
:100EC000CF910895CF93DF9300D00F92CDB7DEB7C7
:100ED0009B838A8386E290E0FC018081882F90E0EA
:100EE0008170992721E0892B09F020E029839091D6
:100EF000540182E08923882309F0B5C08A819B814F
:100F0000049709F458C08A819B8105970CF05EC054
:100F10008A819B81039709F443C08A819B8104974E
:100F20000CF054C08A819B81029779F18A819B8160
:100F300003970CF04BC08A819B81892B29F08A8111
:100F40009B81019731F042C081E090E09B838A83CE
:100F500043C08981882319F082E090E002C081E0DB
:100F600090E09B838A838A819B810297A1F587E623
:100F700091E00E94C10385E290E0FC01208185E2BE
:100F800090E02870FC01208326C08981882319F015
:100F900082E090E002C083E090E09B838A831CC0E3
:100FA0008981882319F084E090E002C083E090E01A
:100FB0009B838A8311C08981882319F084E090E0A3
:100FC00002C081E090E09B838A8306C081E090E0CC
:100FD0009B838A8301C000008A819B81029729F04C
:100FE0008A819B81049789F03FC09091540181E0F0
:100FF000892B8093540185E290E0FC01208185E2F9
:1010000090E02460FC0120832FC081E080959091C6
:10101000540189238093540185E290E0FC012081F2
:1010200085E290E02B7FFC0120836EE573E087E68C
:1010300091E00E94670480916701882351F085E266
:1010400090E0FC01208185E290E02860FC01208393
:101050000BC085E290E0FC01208185E290E0277FD3
:10106000FC01208301C000008A819B810F900F90BA
:101070000F90DF91CF910895CF93DF9300D00F921F
:10108000CDB7DEB79B838A8386E290E0FC01808146
:1010900080958270898380915401882309F065C00E
:1010A0008A819B810397D9F18A819B8104970CF0F7
:1010B00057C08A819B810297F1F08A819B810397B7
:1010C0000CF04EC08A819B81892B29F08A819B81FB
:1010D000019731F045C081E090E09B838A8348C04E
:1010E0008981882319F082E090E002C081E090E0DD
:1010F0009B838A833DC083E090E09B838A839091A9
:10110000540184E0892B8093540185E290E0FC0136
:10111000208185E290E02760FC01208329C089813D
:10112000882319F083E090E002C081E090E09B8387
:101130008A8385E290E0FC01208185E290E02760CF
:10114000FC0120838A819B81019789F485E290E0EC
:10115000FC01208185E290E0287FFC01208307C00C
:1011600081E090E09B838A8303C0000001C00000FF
:101170008A819B810F900F900F90DF91CF910895FE
:10118000CF93DF9300D00F92CDB7DEB79B838A83D6
:1011900086E290E0FC018081809584708983909143
:1011A000540181E08923882309F084C08A819B81CE
:1011B000049709F445C08A819B8105970CF04BC0C8
:1011C0008A819B81039789F18A819B8104970CF026
:1011D00042C08A819B810297E9F08A819B810397B3
:1011E000D4F58A819B81892B29F08A819B81019783
:1011F00031F031C081E090E09B838A8331C08981E6
:10120000882319F082E090E002C081E090E09B83A7
:101210008A8326C08981882319F082E090E002C089
:1012200083E090E09B838A831BC08981882319F027
:1012300084E090E002C083E090E09B838A8310C04A
:101240008981882319F084E090E002C081E090E079
:101250009B838A8305C081E090E09B838A830000A2
:101260008A819B81029729F08A819B81049789F06A
:1012700022C09091540182E0892B8093540185E231
:1012800090E0FC01208185E290E02260FC01208357
:1012900012C082E08095909154018923809354017B
:1012A00085E290E0FC01208185E290E02D7FFC0149
:1012B000208301C000008A819B810F900F900F90C6
:1012C000DF91CF910895CF93DF93CDB7DEB76297CB
:1012D0000FB6F894DEBF0FBECDBF9A83898390917D
:1012E000540182E08923882309F4B3C02091680166
:1012F0003091690180915E0190915F01821793079F
:1013000008F092C080916001882F90E0880F991FAB
:1013100082539E4FFC012081318180915E0190912A
:101320005F018217930708F466C080916001882FDF
:1013300090E0880F991F8A569D4FFC0120813181D2
:10134000809161019091620182179307B8F58091B5
:101350006001882F90E086599E4FFC018081882F84
:1013600090E0880F991F880F991F835E9E4FFC01A4
:1013700020813181428153812B833C834D835E8365
:101380006B817C818D819E810E943102209161015F
:10139000309162018091070190910801820F931FA3
:1013A000909362018093610185E290E0FC012081CD
:1013B00085E290E02160FC01208327C01F8218860F
:1013C00019861A866F81788589859A850E943102EF
:1013D00085E290E0FC01208185E290E02E7FFC0117
:1013E00020831092620110926101809160018F5FF1
:1013F000809360010AC01B861C861D861E866B8535
:101400007C858D859E850E94310220915E01309100
:101410005F018091070190910801820F931F9093C3
:101420005F0180935E011FC01F86188A198A1A8A7D
:101430006F85788989899A890E94310210925F01AB
:1014400010925E011092600110926201109261018F
:101450000AC010925F0110925E011092600110921A
:1014600062011092610189819A8162960FB6F894A7
:10147000DEBF0FBECDBFDF91CF910895CF93DF9335
:1014800000D0CDB7DEB780910601882F90E06CE0E8
:1014900070E00E948A119093640180936301198225
:1014A0001A8240916301509164018981282F30E0B4
:1014B000C901880F991F820F931F880F991F880FEA
:1014C000991F840F951F2A81222F30E0FC01318360
:1014D0002083409107015091080160916301709150
:1014E00064018981282F30E0C901880F991F820F7C
:1014F000931F880F991F880F991F9B01280F391F71
:10150000CA01A0E0B0E0F90182839383A483B5838C
:1015100040916301509164018981282F30E0C90115
:10152000880F991F820F931F880F991F880F991F8B
:10153000480F591F60916301709164018981282FC0
:1015400030E0C901880F991F820F931F880F991FE0
:10155000880F991F9B01280F391FFA0182819381FF
:10156000A481B581F90186839783A087B1874091D3
:101570006301509164018981282F30E0C901880FEF
:10158000991F820F931F880F991F880F991F840F2F
:10159000951F2DED35E0FC013387228789818F5F10
:1015A000898340916301509164018981282F30E043
:1015B000C901880F991F820F931F880F991F880FE9
:1015C000991F840F951F2A81222F30E0FC0131835F
:1015D000208340910701509108016091630170914F
:1015E00064018981282F30E0C901880F991F820F7B
:1015F000931F880F991F880F991F9B01280F391F70
:10160000CA01A0E0B0E0F90182839383A483B5838B
:1016100040916301509164018981282F30E0C90114
:10162000880F991F820F931F880F991F880F991F8A
:10163000480F591F60916301709164018981282FBF
:1016400030E0C901880F991F820F931F880F991FDF
:10165000880F991F9B01280F391FFA0182819381FE
:10166000A481B581F90186839783A087B1874091D2
:101670006301509164018981282F30E0C901880FEE
:10168000991F820F931F880F991F880F991F840F2E
:10169000951F21E236E0FC013387228789818F5F25
:1016A000898340916301509164018981282F30E042
:1016B000C901880F991F820F931F880F991F880FE8
:1016C000991F840F951F2A81222F30E0FC0131835E
:1016D000208340910701509108016091630170914E
:1016E00064018981282F30E0C901880F991F820F7A
:1016F000931F880F991F880F991F9B01280F391F6F
:10170000CA01A0E0B0E0F90182839383A483B5838A
:1017100040916301509164018981282F30E0C90113
:10172000880F991F820F931F880F991F880F991F89
:10173000480F591F60916301709164018981282FBE
:1017400030E0C901880F991F820F931F880F991FDE
:10175000880F991F9B01280F391FFA0182819381FD
:10176000A481B581F90186839783A087B1874091D1
:101770006301509164018981282F30E0C901880FED
:10178000991F820F931F880F991F880F991F840F2D
:10179000951F21E836E0FC013387228789818F5F1E
:1017A000898340916301509164018981282F30E041
:1017B000C901880F991F820F931F880F991F880FE7
:1017C000991F840F951F2A81222F30E0FC0131835D
:1017D000208340910701509108016091630170914D
:1017E00064018981282F30E0C901880F991F820F79
:1017F000931F880F991F880F991F9B01280F391F6E
:10180000CA01A0E0B0E0F90182839383A483B58389
:1018100040916301509164018981282F30E0C90112
:10182000880F991F820F931F880F991F880F991F88
:10183000480F591F60916301709164018981282FBD
:1018400030E0C901880F991F820F931F880F991FDD
:10185000880F991F9B01280F391FFA0182819381FC
:10186000A481B581F90186839783A087B1874091D0
:101870006301509164018981282F30E0C901880FEC
:10188000991F820F931F880F991F880F991F840F2C
:10189000951F21E437E0FC013387228789818F5F20
:1018A000898340916301509164018981282F30E040
:1018B000C901880F991F820F931F880F991F880FE6
:1018C000991F840F951F2A81222F30E0FC0131835C
:1018D000208340910701509108016091630170914C
:1018E00064018981282F30E0C901880F991F820F78
:1018F000931F880F991F880F991F9B01280F391F6D
:10190000CA01A0E0B0E0F90182839383A483B58388
:1019100040916301509164018981282F30E0C90111
:10192000880F991F820F931F880F991F880F991F87
:10193000480F591F60916301709164018981282FBC
:1019400030E0C901880F991F820F931F880F991FDC
:10195000880F991F9B01280F391FFA0182819381FB
:10196000A481B581F90186839783A087B1874091CF
:101970006301509164018981282F30E0C901880FEB
:10198000991F820F931F880F991F880F991F840F2B
:10199000951F22E637E0FC013387228789818F5F1C
:1019A000898340916301509164018981282F30E03F
:1019B000C901880F991F820F931F880F991F880FE5
:1019C000991F840F951F2A81222F30E0FC0131835B
:1019D000208340910701509108016091630170914B
:1019E00064018981282F30E0C901880F991F820F77
:1019F000931F880F991F880F991F9B01280F391F6C
:101A0000CA01A0E0B0E0F90182839383A483B58387
:101A100040916301509164018981282F30E0C90110
:101A2000880F991F820F931F880F991F880F991F86
:101A3000480F591F60916301709164018981282FBB
:101A400030E0C901880F991F820F931F880F991FDB
:101A5000880F991F9B01280F391FFA0182819381FA
:101A6000A481B581F90186839783A087B1874091CE
:101A70006301509164018981282F30E0C901880FEA
:101A8000991F820F931F880F991F880F991F840F2A
:101A9000951F2CE338E0FC013387228789818F5F13
:101AA000898340916301509164018981282F30E03E
:101AB000C901880F991F820F931F880F991F880FE4
:101AC000991F840F951F2A81222F30E0FC0131835A
:101AD000208340910701509108016091630170914A
:101AE00064018981282F30E0C901880F991F820F76
:101AF000931F880F991F880F991F9B01280F391F6B
:101B0000CA01A0E0B0E0F90182839383A483B58386
:101B100040916301509164018981282F30E0C9010F
:101B2000880F991F820F931F880F991F880F991F85
:101B3000480F591F60916301709164018981282FBA
:101B400030E0C901880F991F820F931F880F991FDA
:101B5000880F991F9B01280F391FFA0182819381F9
:101B6000A481B581F90186839783A087B1874091CD
:101B70006301509164018981282F30E0C901880FE9
:101B8000991F820F931F880F991F880F991F840F29
:101B9000951F20EC38E0FC013387228789818F5F15
:101BA000898340916301509164018981282F30E03D
:101BB000C901880F991F820F931F880F991F880FE3
:101BC000991F840F951F2A81222F30E0FC01318359
:101BD0002083409107015091080160916301709149
:101BE00064018981282F30E0C901880F991F820F75
:101BF000931F880F991F880F991F9B01280F391F6A
:101C0000CA01A0E0B0E0F90182839383A483B58385
:101C100040916301509164018981282F30E0C9010E
:101C2000880F991F820F931F880F991F880F991F84
:101C3000480F591F60916301709164018981282FB9
:101C400030E0C901880F991F820F931F880F991FD9
:101C5000880F991F9B01280F391FFA0182819381F8
:101C6000A481B581F90186839783A087B1874091CC
:101C70006301509164018981282F30E0C901880FE8
:101C8000991F820F931F880F991F880F991F840F28
:101C9000951F23E639E0FC013387228789818F5F16
:101CA000898300000F900F90DF91CF910895CF931B
:101CB000DF9300D000D00F92CDB7DEB78983898142
:101CC0008093550180915501882F90E0880F991FCE
:101CD000880F991F835E9E4FFC01208131814281D4
:101CE00053812A833B834C835D836A817B818C8112
:101CF0009D810E9431028091560190915701892B5C
:101D000041F480916801909169019093570180930B
:101D1000560185E290E0FC01208185E290E021609F
:101D2000FC01208300000F900F900F900F900F90F8
:101D3000DF91CF9108950F931F93CF93DF930F926D
:101D4000CDB7DEB71982D1C04091630150916401D3
:101D50008981282F30E0C901880F991F820F931FB6
:101D6000880F991F880F991F840F951FDC01169605
:101D70004D915D916D917C911997E0916301F09186
:101D800064018981282F30E0C901880F991F820FD3
:101D9000931F880F991F880F991F8E0F9F1FFC019B
:101DA00082819381A481B581481759076A077B070F
:101DB00008F45BC040916301509164018981282F30
:101DC00030E0C901880F991F820F931F880F991F58
:101DD000880F991F840F951FDC011A964D915C9115
:101DE00060916301709164018981282F30E0C901FD
:101DF000880F991F820F931F880F991F880F991FB3
:101E0000860F971FDC01ED91FC9160916301709149
:101E100064018981282F30E0C901880F991F820F42
:101E2000931F880F991F880F991F8B01080F191F87
:101E3000CF01FA010995D8018D939C9340916301DC
:101E4000509164018981282F30E0C901880F991FC2
:101E5000820F931F880F991F880F991F840F951F5A
:101E6000FC01168217821086118640916301509101
:101E700064018981282F30E0C901880F991F820FE2
:101E8000931F880F991F880F991F840F951FDC01DE
:101E900016960D911D912D913C91199780910701F6
:101EA00090910801AC0160E070E0A0916301B091F5
:101EB00064018981E82FF0E0CF01880F991F8E0F10
:101EC0009F1F880F991F880F991FFD01E80FF91FA9
:101ED000D901C801840F951FA61FB71F868397835A
:101EE000A087B18789818F5F89838091060199815D
:101EF000981708F429CF000000000F90DF91CF91D0
:101F00001F910F910895CF93DF9300D00F92CDB71B
:101F1000DEB789837B836A8389818A3031F48A8141
:101F20009B81BC018DE00E94830F80EC90E0FC015E
:101F30008081882F90E080729927892BB1F386ECFD
:101F400090E02981FC01208380E090E00F900F90C9
:101F50000F90DF91CF910895CF93DF9300D000D001
:101F6000CDB7DEB781E290E0FC01108282E290E022
:101F70002FEFFC01208384E290E02FEFFC0120830F
:101F800085E290E0FC01108287E290E0FC01108283
:101F900088E290E02FEFFC0120838AE290E02FEFAF
:101FA000FC0120838BE290E0FC011082809107010C
:101FB000909108019C0140E050E029833A834B83D3
:101FC0005C8369817A818B819C810E9403020E94DB
:101FD00062018BE090E00E94140387E691E00E948A
:101FE000C1030E94ED020E943E0AFFCF0E94A3108F
:101FF00008F481E008950E940F100C94DE100E94F6
:10200000D71058F00E94D01040F029F45F3F29F01B
:102010000C94C71051110C9412110C94CD100E9405
:10202000EF1068F39923B1F3552391F3951B550BEA
:10203000BB27AA2762177307840738F09F5F5F4F9B
:10204000220F331F441FAA1FA9F335D00E2E3AF0DA
:10205000E0E832D091505040E695001CCAF72BD0F2
:10206000FE2F29D0660F771F881FBB1F2617370743
:102070004807AB07B0E809F0BB0B802DBF01FF2775
:1020800093585F4F3AF09E3F510578F00C94C7107B
:102090000C9412115F3FE4F3983ED4F38695779544
:1020A0006795B795F7959F5FC9F7880F911D96952E
:1020B000879597F90895E1E0660F771F881FBB1F8A
:1020C000621773078407BA0720F0621B730B840B37
:1020D000BA0BEE1F88F7E09508950E94741068947B
:1020E000B1110C94121108950E94F71088F09F57B7
:1020F00098F0B92F9927B751B0F0E1F0660F771F2C
:10210000881F991F1AF0BA95C9F714C0B13091F021
:102110000E941111B1E008950C941111672F782FCE
:102120008827B85F39F0B93FCCF3869577956795E6
:10213000B395D9F73EF490958095709561957F4F52
:102140008F4F9F4F0895990F0008550FAA0BE0E895
:10215000FEEF16161706E807F907C0F01216130669
:10216000E407F50798F0621B730B840B950B39F4A9
:102170000A2661F0232B242B252B21F408950A260F
:1021800009F4A140A6958FEF811D811D089597F94F
:102190009F6780E870E060E008959FEF80EC08950D
:1021A00000240A9416161706180609060895002436
:1021B0000A9412161306140605060895092E0394B0
:1021C000000C11F4882352F0BB0F40F4BF2B11F424
:1021D00060FF04C06F5F7F4F8F4F9F4F089557FD83
:1021E0009058440F551F59F05F3F71F04795880F85
:1021F00097FB991F61F09F3F79F08795089512161C
:1022000013061406551FF2CF4695F1DF08C01616C7
:1022100017061806991FF1CF869571056105089478
:102220000895E894BB2766277727CB0197F908958F
:102230000E94A31008F48FEF08950E9430110C94AF
:10224000DE100E94D01038F00E94D71020F09523A5
:1022500011F00C94C7100C94CD1011240C94121191
:102260000E94EF1070F3959FC1F3950F50E0551F3A
:10227000629FF001729FBB27F00DB11D639FAA27DB
:10228000F00DB11DAA1F649F6627B00DA11D661F2A
:10229000829F2227B00DA11D621F739FB00DA11D4B
:1022A000621F839FA00D611D221F749F3327A00D05
:1022B000611D231F849F600D211D822F762F6A2FA1
:1022C00011249F5750409AF0F1F088234AF0EE0F06
:1022D000FF1FBB1F661F771F881F91505040A9F733
:1022E0009E3F510580F00C94C7100C9412115F3F73
:1022F000E4F3983ED4F3869577956795B795F7956F
:10230000E7959F5FC1F7FE2B880F911D96958795E6
:1023100097F908950F931F93CF93DF93869F8001C2
:10232000879F100D969F100D1124C8010E94A611C1
:10233000EC01009729F0A80170E060E00E94D7123C
:10234000CE01DF91CF911F910F9108950F931F93AD
:10235000CF93DF939C01029710F422E030E0E091EC
:102360005805F091590590E080E0B0E0A0E030978A
:1023700091F4009709F445C0821B930B84309105BA
:10238000B8F58A819B816115710569F1FB01938321
:102390008283FE0111C04081518102811381421765
:1023A0005307F0F04217530799F4109761F0129613
:1023B0000C93129713961C933296CF01DF91CF9115
:1023C0001F910F9108950093580510935905F4CF6C
:1023D000009719F04817590718F4CA01BD01EF0119
:1023E000DF01F801C4CF9093590580935805D1CFF0
:1023F000FE01E80FF91F2193319302979983888397
:10240000DCCF8091560590915705892B41F480913E
:10241000190190911A019093570580935605809168
:10242000170190911801009741F48DB79EB7409124
:102430001B0150911C01841B950B40915605509136
:1024400057054817590708F0B8CF841B950B82171A
:10245000930708F4B2CFB9016E5F7F4F86179707D5
:1024600008F4ABCF640F751F709357056093560542
:10247000FA0121933193A1CFCF93DF939C01009771
:10248000E9F0FC01329713821282C0915805D09175
:102490005905DE0190E080E02097A1F480819181D0
:1024A000280F391F80915605909157058217930781
:1024B00009F067C0F0935705E0935605DF91CF917F
:1024C0000895DA01AE17BF0708F041C012964D918A
:1024D0005C911397CD014115510599F7DC011396D5
:1024E000FC93EE9312974D915D91A40FB51FEA17DF
:1024F000FB0781F4208131812E5F3F4F240F351F70
:10250000DC0111963C932E932281338113963C93E8
:102510002E931297B0E0A0E08A819B810097B1F5DD
:10252000FE0181919191E80FF91F809156059091DC
:1025300057058E179F0711F6109759F510925905F8
:1025400010925805D0935705C0935605B7CFB38363
:10255000A28340815181240F351FA217B30771F464
:102560004E5F5F4F2D913C911197420F531F518346
:10257000408312962D913C9133832283009709F07A
:10258000ADCFF0935905E093580598CFDE01EC01EB
:10259000C3CF13961C921E921297D4CFFB01DC017D
:1025A00002C001900D9241505040D8F70895DC01CF
:1025B00001C06D9341505040E0F70895F894FFCF6B
:1025C000010000004101083200000000020000008C
:1025D00000830F0000000000005A052000000000EA
:1025E00000A4D082437BD49243A4D0A443719DAE77
:1025F000430000C4430000DC430080F64300D002E7
:102600004453434445464741422A0001020408001E
:00000001FF
