:100000000C9446000C9465000C9465000C946500FB
:100010000C9465000C9465000C9465000C946500CC
:100020000C9465000C9465000C9465000C946500BC
:100030000C9465000C94A7010C9465000C94650069
:100040000C9465000C9465000C9465000C9465009C
:100050000C9465000C9465000C9465000C9465008C
:100060000C9465000C9465000C9465000C9465007C
:100070000C9465000C9465000C9465000C9465006C
:100080000C9465000C9465000C94650011241FBE4F
:10009000CFEFD0E4DEBFCDBF11E0A0E0B1E0EEEDE8
:1000A000FAE000E00BBF02C007900D92AC31B1073F
:1000B000D9F721E0ACE1B1E001C01D92A632B20750
:1000C000E1F70E94FD030C946D050C940000CF93A2
:1000D000DF93CDB7DEB781E00E948E000000DF9194
:1000E000CF910895CF93DF93CDB7DEB784E690E04C
:1000F0000E94330188E30E948E0086E00E948E00F9
:100100008FE00E948E0081E00E948E008AE090E0E5
:100110000E9433010000DF91CF910895CF93DF93C8
:100120000F92CDB7DEB789838BE290E0FC0120818E
:100130008BE290E02F7BFC01208388E290E0298114
:10014000FC0120838BE290E0FC0120818BE290E0B7
:100150002068FC01208300008BE290E0FC012081FC
:100160008BE290E02F77FC01208382E090E00E94F8
:10017000330100000F90DF91CF910895CF93DF936B
:100180000F92CDB7DEB789838BE290E0FC0120812E
:100190008BE290E02064FC01208388E290E02981DA
:1001A000FC0120838BE290E0FC0120818BE290E057
:1001B0002068FC01208300008BE290E0FC0120819C
:1001C0008BE290E02F77FC01208381E090E00E9499
:1001D000330100000F90DF91CF910895CF93DF930B
:1001E00000D000D0CDB7DEB78A837C836B830E94BA
:1001F00067008A81898311C0898191E0980F998372
:100200000E941C018B819C819C012F5F3F4F3C838E
:100210002B83FC0180810E94BE008B819C81FC01AC
:100220008081882349F7000000000F900F900F9005
:100230000F90DF91CF910895CF93DF930F92CDB7B9
:10024000DEB789838981813128F4898181580E94B0
:100250008E0004C0898181550E948E0000000F909D
:10026000DF91CF910895CF93DF9300D000D000D0DD
:10027000CDB7DEB79E838D831A82198213C01C828C
:100280001B8206C000008B819C8101969C838B831E
:100290008B819C8187309340ACF389819A81019650
:1002A0009A83898329813A818D819E812817390714
:1002B00034F30000000026960FB6F894DEBF0FBEA0
:1002C000CDBFDF91CF910895CF93DF93CDB7DEB748
:1002D00081E890E02BE0FC01208388E890E02DE7A6
:1002E00030E0FC01318320838FE690E022E0FC01C6
:1002F000208384E890E0FC0111821082809100014B
:1003000090910101A0910201B091030180931C0121
:1003100090931D01A0931E01B0931F018FE590E003
:10032000FC0120818FE590E02068FC012083000023
:10033000DF91CF910895CF93DF93CDB7DEB781E8FA
:1003400090E0FC0110820000DF91CF9108951F9290
:100350000F920FB60F9211240BB60F922F933F936B
:100360004F935F936F937F938F939F93AF93BF93BD
:10037000EF93FF93CF93DF93CDB7DEB780911C014E
:1003800090911D01A0911E01B0911F010197A1093B
:10039000B10980931C0190931D01A0931E01B0939D
:1003A0001F0180911C0190911D01A0911E01B0912F
:1003B0001F01892B8A2B8B2B91F40E94EC028091D8
:1003C000000190910101A0910201B091030180937D
:1003D0001C0190931D01A0931E01B0931F0100000A
:1003E000DF91CF91FF91EF91BF91AF919F918F914D
:1003F0007F916F915F914F913F912F910F900BBE25
:100400000F900FBE0F901F901895CF93DF9300D0E1
:1004100000D0CDB7DEB769837A838B839C838981D3
:100420009A81AB81BC818093000190930101A093DC
:100430000201B09303018091000190910101A0910C
:100440000201B091030180931C0190931D01A093C0
:100450001E01B0931F0100000F900F900F900F909E
:10046000DF91CF910895CF93DF9300D0CDB7DEB762
:100470009A83898382E290E0FC01808121E08823D5
:1004800009F020E082E290E0FC01208389819A81DA
:100490000F900F90DF91CF910895CF93DF9300D00D
:1004A000CDB7DEB780910401882F90E06CE070E05A
:1004B0000E942204909321018093200119821A82C4
:1004C00040912001509121018981282F30E0C901FC
:1004D000880F991F820F931F880F991F880F991FEC
:1004E000840F951F2A81222F30E0FC013183208365
:1004F0004091050150910601609120017091210108
:100500008981282F30E0C901880F991F820F931F1E
:10051000880F991F880F991F9B01280F391FCA0147
:10052000A0E0B0E0F90182839383A483B583409176
:100530002001509121018981282F30E0C901880FC5
:10054000991F820F931F880F991F880F991F480FBB
:10055000591F60912001709121018981282F30E07D
:10056000C901880F991F820F931F880F991F880F49
:10057000991F9B01280F391FFA0182819381A48161
:10058000B581F90186839783A087B18740912001C7
:10059000509121018981282F30E0C901880F991FCE
:1005A000820F931F880F991F880F991F840F951F23
:1005B00023E332E0FC013387228789818F5F8983BF
:1005C00080912001909121010E94D40400000F909D
:1005D0000F90DF91CF9108950F931F93CF93DF93E7
:1005E0000F92CDB7DEB71982D1C040912001509152
:1005F00021018981282F30E0C901880F991F820FBE
:10060000931F880F991F880F991F840F951FDC0176
:1006100016964D915D916D917C911997E091200115
:10062000F09121018981282F30E0C901880F991F9D
:10063000820F931F880F991F880F991F8E0F9F1F7E
:10064000FC0182819381A481B581481759076A070B
:100650007B0708F45BC04091200150912101898102
:10066000282F30E0C901880F991F820F931F880F30
:10067000991F880F991F840F951FDC011A964D91C1
:100680005C9160912001709121018981282F30E0D7
:10069000C901880F991F820F931F880F991F880F18
:1006A000991F860F971FDC01ED91FC91609120014D
:1006B000709121018981282F30E0C901880F991F8D
:1006C000820F931F880F991F880F991F8B01080FA6
:1006D000191FCF01FA010995D8018D939C93409180
:1006E0002001509121018981282F30E0C901880F14
:1006F000991F820F931F880F991F880F991F840FCE
:10070000951FFC01168217821086118640912001E8
:10071000509121018981282F30E0C901880F991F4C
:10072000820F931F880F991F880F991F840F951FA1
:10073000DC0116960D911D912D913C911997809198
:10074000050190910601AC0160E070E0A0912001EC
:10075000B09121018981E82FF0E0CF01880F991F26
:100760008E0F9F1F880F991F880F991FFD01E80F9B
:10077000F91FD901C801840F951FA61FB71F8683D3
:100780009783A087B18789818F5F898380910401D6
:100790009981981708F429CF000000000F90DF918D
:1007A000CF911F910F910895CF93DF9300D00F92B7
:1007B000CDB7DEB789837B836A8389818A3031F440
:1007C0008A819B81BC018DE00E94D40380EC90E083
:1007D000FC018081882F90E080729927892BB1F3EA
:1007E00086EC90E02981FC01208380E090E00F906E
:1007F0000F900F90DF91CF910895CF93DF9300D0AA
:1008000000D0CDB7DEB781E290E02FEFFC0120836E
:1008100082E290E0FC011082809105019091060136
:100820009C0140E050E029833A834B835C836981DB
:100830007A818B819C810E9405020E9464010E9442
:100840004D02FFCF0F931F93CF93DF93869F8001BD
:10085000879F100D969F100D1124C8010E943E0421
:10086000EC01009729F0A80170E060E00E946605A5
:10087000CE01DF91CF911F910F9108950F931F9398
:10088000CF93DF939C01029710F422E030E0E091D7
:100890002401F091250190E080E0B0E0A0E03097E5
:1008A00091F4009709F445C0821B930B84309105A5
:1008B000B8F58A819B816115710569F1FB0193830C
:1008C0008283FE0111C04081518102811381421750
:1008D0005307F0F04217530799F4109761F01296FE
:1008E0000C93129713961C933296CF01DF91CF9100
:1008F0001F910F9108950093240110932501F4CFC7
:10090000009719F04817590718F4CA01BD01EF0103
:10091000DF01F801C4CF9093250180932401D1CF4A
:10092000FE01E80FF91F2193319302979983888381
:10093000DCCF8091220190912301892B41F4809199
:1009400017019091180190932301809322018091C7
:10095000150190911601009741F48DB79EB7409113
:10096000190150911A01841B950B4091220150915D
:1009700023014817590708F0B8CF841B950B82173D
:10098000930708F4B2CFB9016E5F7F4F86179707C0
:1009900008F4ABCF640F751F70932301609322019D
:1009A000FA0121933193A1CFCF93DF939C0100975C
:1009B000E9F0FC01329713821282C0912401D09198
:1009C0002501DE0190E080E02097A1F480819181F3
:1009D000280F391F809122019091230182179307DC
:1009E00009F067C0F0932301E0932201DF91CF91DA
:1009F0000895DA01AE17BF0708F041C012964D9175
:100A00005C911397CD014115510599F7DC011396BF
:100A1000FC93EE9312974D915D91A40FB51FEA17C9
:100A2000FB0781F4208131812E5F3F4F240F351F5A
:100A3000DC0111963C932E932281338113963C93D3
:100A40002E931297B0E0A0E08A819B810097B1F5C8
:100A5000FE0181919191E80FF91F809122019091FF
:100A600023018E179F0711F6109759F51092250153
:100A700010922401D0932301C0932201B7CFB383F6
:100A8000A28340815181240F351FA217B30771F44F
:100A90004E5F5F4F2D913C911197420F531F518331
:100AA000408312962D913C9133832283009709F065
:100AB000ADCFF0932501E093240198CFDE01EC0146
:100AC000C3CF13961C921E921297D4CFDC0101C0A3
:0E0AD0006D9341505040E0F70895F894FFCF29
:100ADE000100000001E8030000000200000000D445
:0C0AEE00030000000000002601200000B2
:00000001FF
