:100000000C9446000C9465000C9465000C946500FB
:100010000C9465000C9465000C9465000C946500CC
:100020000C9465000C9465000C9465000C946500BC
:100030000C9465000C94A7010C9465000C94650069
:100040000C9465000C9465000C9465000C9465009C
:100050000C9465000C9465000C9465000C9465008C
:100060000C9465000C9465000C9465000C9465007C
:100070000C9465000C9465000C9465000C9465006C
:100080000C9465000C9465000C94650011241FBE4F
:10009000CFEFD0E4DEBFCDBF11E0A0E0B1E0E0E102
:1000A000F8E100E00BBF02C007900D92A034B10749
:1000B000D9F723E0A0E4B1E001C01D92AE34B2074D
:1000C000E1F70E94DC080C94060C0C940000CF931E
:1000D000DF93CDB7DEB781E00E948E000000DF9194
:1000E000CF910895CF93DF93CDB7DEB784E690E04C
:1000F0000E94330188E30E948E0086E00E948E00F9
:100100008FE00E948E0081E00E948E008AE090E0E5
:100110000E9433010000DF91CF910895CF93DF93C8
:100120000F92CDB7DEB789838BE290E0FC0120818E
:100130008BE290E02F7BFC01208385E290E0298117
:10014000FC0120838BE290E0FC0120818BE290E0B7
:100150002068FC01208300008BE290E0FC012081FC
:100160008BE290E02F77FC01208382E090E00E94F8
:10017000330100000F90DF91CF910895CF93DF936B
:100180000F92CDB7DEB789838BE290E0FC0120812E
:100190008BE290E02064FC01208385E290E02981DD
:1001A000FC0120838BE290E0FC0120818BE290E057
:1001B0002068FC01208300008BE290E0FC0120819C
:1001C0008BE290E02F77FC01208381E090E00E9499
:1001D000330100000F90DF91CF910895CF93DF930B
:1001E00000D000D0CDB7DEB78A837C836B830E94BA
:1001F00067008A81898311C0898191E0980F998372
:100200000E941C018B819C819C012F5F3F4F3C838E
:100210002B83FC0180810E94BE008B819C81FC01AC
:100220008081882349F7000000000F900F900F9005
:100230000F90DF91CF910895CF93DF930F92CDB7B9
:10024000DEB789838981813128F4898181580E94B0
:100250008E0004C0898181550E948E0000000F909D
:10026000DF91CF910895CF93DF9300D000D000D0DD
:10027000CDB7DEB79E838D831A82198213C01C828C
:100280001B8206C000008B819C8101969C838B831E
:100290008B819C8187309340ACF389819A81019650
:1002A0009A83898329813A818D819E812817390714
:1002B00034F30000000026960FB6F894DEBF0FBEA0
:1002C000CDBFDF91CF910895CF93DF93CDB7DEB748
:1002D00081E890E02BE0FC01208388E890E02DE7A6
:1002E00030E0FC01318320838FE690E022E0FC01C6
:1002F000208384E890E0FC0111821082809100014B
:1003000090910101A0910201B091030180934001FD
:1003100090934101A0934201B09343018FE590E097
:10032000FC0120818FE590E02068FC012083000023
:10033000DF91CF910895CF93DF93CDB7DEB781E8FA
:1003400090E0FC0110820000DF91CF9108951F9290
:100350000F920FB60F9211240BB60F922F933F936B
:100360004F935F936F937F938F939F93AF93BF93BD
:10037000EF93FF93CF93DF93CDB7DEB7809140012A
:1003800090914101A0914201B09143010197A109CF
:10039000B1098093400190934101A0934201B09331
:1003A00043018091400190914101A0914201B0919F
:1003B0004301892B8A2B8B2B91F40E94CB078091D0
:1003C000000190910101A0910201B091030180937D
:1003D000400190934101A0934201B093430100007A
:1003E000DF91CF91FF91EF91BF91AF919F918F914D
:1003F0007F916F915F914F913F912F910F900BBE25
:100400000F900FBE0F901F901895CF93DF9300D0E1
:1004100000D0CDB7DEB769837A838B839C838981D3
:100420009A81AB81BC818093000190930101A093DC
:100430000201B09303018091000190910101A0910C
:100440000201B09103018093400190934101A09378
:100450004201B093430100000F900F900F900F9056
:10046000DF91CF910895CF93DF93CDB7DEB7649737
:100470000FB6F894DEBF0FBECDBF69837A838B833E
:100480009C8380914D0190914E01A0914F01B091BC
:1004900050019C01AD0169817A818B819C810E9410
:1004A0002709882309F491C020E030E0A90169817F
:1004B0007A818B819C810E942709882351F481E9EC
:1004C00090E0DC012C9181E990E02870FC01208310
:1004D00009C081E990E0DC012C9181E990E0236082
:1004E000FC01208328E539E344E75FE369817A81F1
:1004F0008B819C810E94270988234CF488E990E035
:100500002FEF3FEFDC0111963C932E934DC020E07E
:1005100034E244EF56E469817A818B819C810E94A8
:10052000490A181634F488E990E0FC01118210821F
:100530003BC020E030E040E053E469817A818B8168
:100540009C810E944E0A69877A878B879C87898560
:100550009A85AB85BC859C01AD0160E074E284EFB7
:100560009AE40E942C096D877E878F87988B8D85F2
:100570009E85AF85B8898D839E83AF83B8876D8153
:100580007E818F8198850E949E09698B7A8B8B8BE7
:100590009C8B89899A899C012150310988E990E0D6
:1005A000DC0111963C932E9384E990E0FC011182CA
:1005B000108289819A81AB81BC8180934D01909397
:1005C0004E01A0934F01B0935001000064960FB606
:1005D000F894DEBF0FBECDBFDF91CF910895CF93CA
:1005E000DF93CDB7DEB780E990E020E4FC01208303
:1005F00081E990E02BE0FC01208360E070E0CB011A
:100600000E9433020000DF91CF910895CF93DF93D2
:10061000CDB7DEB780E990E0FC01108281E990E07F
:10062000FC0110820000DF91CF910895CF93DF93FA
:1006300000D0CDB7DEB79A83898389819A81292F2B
:10064000332785EC90E0FC01208384EC90E0298145
:10065000FC01208382EC90E02EE0FC01208381EC01
:1006600090E028E1FC01208300000F900F90DF91C3
:10067000CF910895CF93DF93CDB7DEB7000080EC24
:1006800090E0FC0180818823D4F70000DF91CF91B6
:100690000895CF93DF93CDB7DEB7000080EC90E0F4
:1006A000FC018081882F90E080749927892BB1F319
:1006B0000000DF91CF910895CF93DF930F92CDB7D4
:1006C000DEB78983000080EC90E0FC018081882FF8
:1006D00090E080729927892BB1F386EC90E0298114
:1006E000FC01208300000F90DF91CF910895CF93FC
:1006F000DF93CDB7DEB781EC90E0FC011082000003
:10070000DF91CF910895CF93DF93CDB7DEB700008F
:1007100080EC90E0FC0180818823D4F786EC90E0A7
:10072000FC018081DF91CF910895CF93DF9300D0BA
:100730000F92CDB7DEB79B838A83198229C0898146
:10074000882F90E02A813B81820F931F0396FC0142
:1007500010828981882F90E02A813B81880F991F20
:10076000820F931F89599F4FFC011182108289814A
:10077000882F90E02A813B81880F991F820F931F59
:10078000815D9E4FFC011182108289818F5F898378
:100790008A819B81FC0180819981981780F28A81EE
:1007A0009B81FC0110828A819B81FC011282118253
:1007B00000000F900F900F90DF91CF910895CF938D
:1007C000DF93CDB7DEB728970FB6F894DEBF0FBE24
:1007D000CDBF9A8389837C836B835E834D83388707
:1007E0002F8389819A81FC018081882F90E04B8141
:1007F00029813A81820F931F0396FC0140838981EE
:100800009A81FC018081882F90E029813A81880FAC
:10081000991F820F931F89599F4F2D813E81FC01A3
:100820003183208389819A81FC018081882F90E027
:1008300029813A81880F991F820F931F815D9E4FF6
:100840002F813885FC013183208389819A81FC01C5
:10085000808121E0280F89819A81FC01208300009A
:1008600028960FB6F894DEBF0FBECDBFDF91CF91B3
:100870000895CF93DF9300D00F92CDB7DEB79B835F
:100880008A8380914401882351F11092440182E2CD
:1008900090E023E0FC012083809153010E945C03DF
:1008A0000E94490319820EC08981882F90E08A5ADC
:1008B0009E4FFC0180810E945C030E944903898154
:1008C0008F5F8983809153019981981768F383E53D
:1008D00091E00E94950382E290E0FC0110828A81FF
:1008E0009B810F900F900F90DF91CF910895CF9340
:1008F000DF93CDB7DEB767970FB6F894DEBF0FBEB4
:10090000CDBF9B838A8383E290E0FC018081809548
:100910008F7089838981882F90E08F30910509F449
:100920000EC1803191050CF01AC18830910509F48F
:10093000CFC0893091050CF012C18630910509F4C1
:10094000B7C0873091050CF00AC18430910509F4D5
:1009500078C0853091050CF002C18130910519F005
:100960000297C1F1FCC081E090E090934801809330
:1009700047018091470190914801880F991F880F86
:10098000991F855E9E4FFC012081318142815381F8
:100990002C833D834E835F836C817D818E819F811B
:1009A0000E9433028091490190914A01892B41F4C0
:1009B000809154019091550190934A01809349018F
:1009C00082E290E0FC01208182E290E02160FC0163
:1009D00020831BC182E090E09093480180934701FF
:1009E0008091470190914801880F991F880F991FA6
:1009F000855E9E4FFC012081318142815381288791
:100A000039874A875B87688579858A859B850E94B7
:100A100033028091490190914A01892B41F48091E0
:100A200054019091550190934A018093490182E2CB
:100A300090E0FC01208182E290E02160FC012083B3
:100A4000E4C083E090E09093480180934701809157
:100A5000470190914801880F991F880F991F855E63
:100A60009E4FFC0120813181428153812C873D873B
:100A70004E875F876C857D858E859F850E943302BA
:100A80008091490190914A01892B41F48091540150
:100A90009091550190934A018093490182E290E040
:100AA000FC01208182E290E02160FC012083ADC046
:100AB00081E090E0909346018093450182E290E0CE
:100AC000FC01208182E290E02260FC0120839DC035
:100AD00084E090E090934801809347018091470122
:100AE00090914801880F991F880F991F855E9E4F2E
:100AF000FC012081318142815381288B398B4A8BC3
:100B00005B8B688979898A899B890E9433028091ED
:100B1000490190914A01892B41F4809154019091AF
:100B2000550190934A018093490182E290E0FC01D3
:100B3000208182E290E02160FC01208366C081E098
:100B400080934401109246011092450182E290E0A8
:100B5000FC01208182E290E02D7FFC01208382E273
:100B600090E0FC01208182E290E02E7FFC01208356
:100B70008091470190914801892B09F120915401FE
:100B8000309155018091490190914A01A901481B7A
:100B9000590BCA0190934C0180934B0120914B015A
:100BA00030914C014091490150914A018091470197
:100BB00090914801BC0183E591E00E94DF0310920F
:100BC0004801109247018091470190914801880F98
:100BD000991F880F991F855E9E4FFC0120813181EE
:100BE000428153812C8B3D8B4E8B5F8B6C897D8931
:100BF0008E899F890E94330210924A011092490106
:100C000010924C0110924B0100008A819B816796E3
:100C10000FB6F894DEBF0FBECDBFDF91CF91089520
:100C2000CF93DF9300D0CDB7DEB79A8389838091CD
:100C3000450190914601892B71F02091540130912A
:100C400055018091050190910601820F931F9093A9
:100C500055018093540189819A810F900F90DF9103
:100C6000CF910895CF93DF9300D0CDB7DEB78091B9
:100C70000401882F90E06CE070E00E94BB0A909322
:100C800052018093510119821A8240915101509171
:100C900052018981282F30E0C901880F991F820FE6
:100CA000931F880F991F880F991F840F951F2A8102
:100CB000222F30E0FC0131832083409105015091C7
:100CC000060160915101709152018981282F30E015
:100CD000C901880F991F820F931F880F991F880FD2
:100CE000991F9B01280F391FCA01A0E0B0E0F9014C
:100CF00082839383A483B583409151015091520123
:100D00008981282F30E0C901880F991F820F931F16
:100D1000880F991F880F991F480F591F6091510123
:100D2000709152018981282F30E0C901880F991FE5
:100D3000820F931F880F991F880F991F9B01280FFF
:100D4000391FFA0182819381A481B581F9018683DB
:100D50009783A087B18740915101509152018981B9
:100D6000282F30E0C901880F991F820F931F880F29
:100D7000991F880F991F840F951F29E334E0FC0108
:100D80003387228789818F5F8983409151015091F8
:100D900052018981282F30E0C901880F991F820FE5
:100DA000931F880F991F880F991F840F951F2A8101
:100DB000222F30E0FC0131832083409105015091C6
:100DC000060160915101709152018981282F30E014
:100DD000C901880F991F820F931F880F991F880FD1
:100DE000991F9B01280F391FCA01A0E0B0E0F9014B
:100DF00082839383A483B583409151015091520122
:100E00008981282F30E0C901880F991F820F931F15
:100E1000880F991F880F991F480F591F6091510122
:100E2000709152018981282F30E0C901880F991FE4
:100E3000820F931F880F991F880F991F9B01280FFE
:100E4000391FFA0182819381A481B581F9018683DA
:100E50009783A087B18740915101509152018981B8
:100E6000282F30E0C901880F991F820F931F880F28
:100E7000991F880F991F840F951F27E734E0FC0105
:100E80003387228789818F5F8983409151015091F7
:100E900052018981282F30E0C901880F991F820FE4
:100EA000931F880F991F880F991F840F951F2A8100
:100EB000222F30E0FC0131832083409105015091C5
:100EC000060160915101709152018981282F30E013
:100ED000C901880F991F820F931F880F991F880FD0
:100EE000991F9B01280F391FCA01A0E0B0E0F9014A
:100EF00082839383A483B583409151015091520121
:100F00008981282F30E0C901880F991F820F931F14
:100F1000880F991F880F991F480F591F6091510121
:100F2000709152018981282F30E0C901880F991FE3
:100F3000820F931F880F991F880F991F9B01280FFD
:100F4000391FFA0182819381A481B581F9018683D9
:100F50009783A087B18740915101509152018981B7
:100F6000282F30E0C901880F991F820F931F880F27
:100F7000991F880F991F840F951F20E136E0FC010F
:100F80003387228789818F5F898300000F900F90BC
:100F9000DF91CF9108950F931F93CF93DF930F921B
:100FA000CDB7DEB71982D1C04091510150915201A5
:100FB0008981282F30E0C901880F991F820F931F64
:100FC000880F991F880F991F840F951FDC011696B3
:100FD0004D915D916D917C911997E0915101F09146
:100FE00052018981282F30E0C901880F991F820F93
:100FF000931F880F991F880F991F8E0F9F1FFC0149
:1010000082819381A481B581481759076A077B07BC
:1010100008F45BC040915101509152018981282F01
:1010200030E0C901880F991F820F931F880F991F05
:10103000880F991F840F951FDC011A964D915C91C2
:1010400060915101709152018981282F30E0C901CE
:10105000880F991F820F931F880F991F880F991F60
:10106000860F971FDC01ED91FC9160915101709109
:1010700052018981282F30E0C901880F991F820F02
:10108000931F880F991F880F991F8B01080F191F35
:10109000CF01FA010995D8018D939C93409151019C
:1010A000509152018981282F30E0C901880F991F82
:1010B000820F931F880F991F880F991F840F951F08
:1010C000FC011682178210861186409151015091C1
:1010D00052018981282F30E0C901880F991F820FA2
:1010E000931F880F991F880F991F840F951FDC018C
:1010F00016960D911D912D913C91199780910501A6
:1011000090910601AC0160E070E0A0915101B091B6
:1011100052018981E82FF0E0CF01880F991F8E0FCF
:101120009F1F880F991F880F991FFD01E80FF91F56
:10113000D901C801840F951FA61FB71F8683978307
:10114000A087B18789818F5F89838091040199810C
:10115000981708F429CF000000000F90DF91CF917D
:101160001F910F910895CF93DF9300D00F92CDB7C9
:10117000DEB789837B836A8389818A3031F48A81EF
:101180009B81BC018DE00E94B30880EC90E0FC01E3
:101190008081882F90E080729927892BB1F386ECAB
:1011A00090E02981FC01208380E090E00F900F9077
:1011B0000F90DF91CF910895CF93DF9300D000D0AF
:1011C000CDB7DEB781E290E02FEFFC01208382E211
:1011D00090E0FC01108284E290E020EFFC0120838B
:1011E00085E290E02FE0FC01208387E290E02FEF82
:1011F000FC01208388E290E0FC0110828AE290E00A
:101200002FEFFC0120838BE290E0FC0110828091A3
:101210000501909106019C0140E050E029833A834A
:101220004B835C8369817A818B819C810E9405025A
:101230000E9464018BE090E00E94160383E591E038
:101240000E9495030E94EF020E943206FFCF0E9487
:10125000D40908F481E008950E9440090C940F0A13
:101260000E94080A58F00E94010A40F029F45F3FEA
:1012700029F00C94F80951110C94430A0C94FE09BE
:101280000E94200A68F39923B1F3552391F3951B2B
:10129000550BBB27AA2762177307840738F09F5F97
:1012A0005F4F220F331F441FAA1FA9F335D00E2E04
:1012B0003AF0E0E832D091505040E695001CCAF771
:1012C0002BD0FE2F29D0660F771F881FBB1F261734
:1012D00037074807AB07B0E809F0BB0B802DBF010B
:1012E000FF2793585F4F3AF09E3F510578F00C94DA
:1012F000F8090C94430A5F3FE4F3983ED4F38695D3
:1013000077956795B795F7959F5FC9F7880F911DFA
:101310009695879597F90895E1E0660F771F881FE6
:10132000BB1F621773078407BA0720F0621B730B99
:10133000840BBA0BEE1F88F7E09508950E94A5096B
:101340006894B1110C94430A08950E94280A88F009
:101350009F5798F0B92F9927B751B0F0E1F0660F79
:10136000771F881F991F1AF0BA95C9F714C0B130BA
:1013700091F00E94420AB1E008950C94420A672F4E
:10138000782F8827B85F39F0B93FCCF386957795E9
:101390006795B395D9F73EF49095809570956195D2
:1013A0007F4F8F4F9F4F0895990F0008550FAA0B3D
:1013B000E0E8FEEF16161706E807F907C0F0121668
:1013C0001306E407F50798F0621B730B840B950B6B
:1013D00039F40A2661F0232B242B252B21F40895C0
:1013E0000A2609F4A140A6958FEF811D811D08955D
:1013F00097F99F6780E870E060E008959FEF80ECC8
:10140000089500240A94161617061806090608956A
:1014100000240A9412161306140605060895092ED0
:101420000394000C11F4882352F0BB0F40F4BF2B3F
:1014300011F460FF04C06F5F7F4F8F4F9F4F08957F
:1014400057FD9058440F551F59F05F3F71F0479575
:10145000880F97FB991F61F09F3F79F0879508955A
:10146000121613061406551FF2CF4695F1DF08C079
:10147000161617061806991FF1CF86957105610596
:1014800008940895E894BB2766277727CB0197F93E
:1014900008950E94D40908F48FEF08950E94610A0C
:1014A0000C940F0A0E94010A38F00E94080A20F0EA
:1014B000952311F00C94F8090C94FE0911240C9456
:1014C000430A0E94200A70F3959FC1F3950F50E0E4
:1014D000551F629FF001729FBB27F00DB11D639FE6
:1014E000AA27F00DB11DAA1F649F6627B00DA11D8C
:1014F000661F829F2227B00DA11D621F739FB00D32
:10150000A11D621F839FA00D611D221F749F3327A1
:10151000A00D611D231F849F600D211D822F762F3A
:101520006A2F11249F5750409AF0F1F088234AF017
:10153000EE0FFF1FBB1F661F771F881F9150504083
:10154000A9F79E3F510580F00C94F8090C94430ACA
:101550005F3FE4F3983ED4F3869577956795B7950A
:10156000F795E7959F5FC1F7FE2B880F911D969524
:10157000879597F908950F931F93CF93DF93869FD5
:101580008001879F100D969F100D1124C8010E94A5
:10159000D70AEC01009729F0A80170E060E00E94F2
:1015A000FF0BCE01DF91CF911F910F9108950F9303
:1015B0001F93CF93DF939C01029710F422E030E059
:1015C000E0914C03F0914D0390E080E0B0E0A0E0AA
:1015D000309791F4009709F445C0821B930B843037
:1015E0009105B8F58A819B816115710569F1FB014F
:1015F00093838283FE0111C0408151810281138156
:1016000042175307F0F04217530799F4109761F00F
:1016100012960C93129713961C933296CF01DF917A
:10162000CF911F910F91089500934C0310934D0398
:10163000F4CF009719F04817590718F4CA01BD01F3
:10164000EF01DF01F801C4CF90934D0380934C0369
:10165000D1CFFE01E80FF91F2193319302979983AF
:101660008883DCCF80914A0390914B03892B41F40E
:10167000809117019091180190934B0380934A0336
:101680008091150190911601009741F48DB79EB796
:101690004091190150911A01841B950B40914A0306
:1016A00050914B034817590708F0B8CF841B950B8E
:1016B0008217930708F4B2CFB9016E5F7F4F861788
:1016C000970708F4ABCF640F751F70934B036093BB
:1016D0004A03FA0121933193A1CFCF93DF939C0169
:1016E0000097E9F0FC01329713821282C0914C03FB
:1016F000D0914D03DE0190E080E02097A1F480813D
:101700009181280F391F80914A0390914B038217D2
:10171000930709F067C0F0934B03E0934A03DF910E
:10172000CF910895DA01AE17BF0708F041C01296B5
:101730004D915C911397CD014115510599F7DC014D
:101740001396FC93EE9312974D915D91A40FB51FE4
:10175000EA17FB0781F4208131812E5F3F4F240F70
:10176000351FDC0111963C932E9322813381139611
:101770003C932E931297B0E0A0E08A819B81009762
:10178000B1F5FE0181919191E80FF91F80914A0313
:1017900090914B038E179F0711F6109759F51092F1
:1017A0004D0310924C03D0934B03C0934A03B7CF21
:1017B000B383A28340815181240F351FA217B30741
:1017C00071F44E5F5F4F2D913C911197420F531F63
:1017D0005183408312962D913C913383228300974D
:1017E00009F0ADCFF0934D03E0934C0398CFDE01A9
:1017F000EC01C3CF13961C921E921297D4CFDC013A
:1018000001C06D9341505040E0F70895F894FFCF28
:10181000010000000364000000000200000000B3AB
:10182000080000000000004E03200000000000A49B
:10183000D082437BD49243A4D0A443719DAE430095
:1018400000C4430000DC430080F64300D0024400A3
:00000001FF
