:100000000C9446000C9465000C9465000C946500FB
:100010000C9465000C9465000C9465000C946500CC
:100020000C9465000C9465000C9465000C946500BC
:100030000C9465000C940F020C9465000C94650000
:100040000C9465000C9465000C9465000C9465009C
:100050000C9465000C9465000C9465000C9465008C
:100060000C9465000C9465000C9465000C9465007C
:100070000C9465000C9465000C9465000C9465006C
:100080000C9465000C9465000C94650011241FBE4F
:10009000CFEFD0E4DEBFCDBF11E0A0E0B1E0E0EDF6
:1000A000F2E300E00BBF02C007900D92AE3DB10736
:1000B000D9F725E0AEEDB1E001C01D92A13EB20737
:1000C000E1F70E94AB140C9466190C940000CF93D6
:1000D000DF93CDB7DEB781E00E948E000000DF9194
:1000E000CF910895CF93DF93CDB7DEB784E690E04C
:1000F0000E94720188E30E948E0086E00E948E00BA
:100100008FE00E948E0081E00E948E008AE090E0E5
:100110000E9472010000DF91CF910895CF93DF9389
:100120000F92CDB7DEB789838BE290E0FC0120818E
:100130008BE290E02F7BFC01208385E290E0298117
:10014000FC0120838BE290E0FC0120818BE290E0B7
:100150002068FC01208300008BE290E0FC012081FC
:100160008BE290E02F77FC01208382E090E00E94F8
:10017000720100000F90DF91CF910895CF93DF932C
:100180000F92CDB7DEB789838BE290E0FC0120812E
:100190008BE290E02064FC01208385E290E02981DD
:1001A000FC0120838BE290E0FC0120818BE290E057
:1001B0002068FC01208300008BE290E0FC0120819C
:1001C0008BE290E02F77FC01208381E090E00E9499
:1001D000720100000F90DF91CF910895CF93DF93CC
:1001E00000D000D0CDB7DEB79B838A836C838C812F
:1001F000885F880F880F880F0E948E0019820EC0BA
:100200008981882F90E02A813B81820F931FFC0116
:1002100080810E94BE0089818F5F898389818830B7
:1002200078F380E80E948E0000000F900F900F90EE
:100230000F90DF91CF910895CF93DF9300D0CDB78A
:10024000DEB789836A838A810E945B0189810E946B
:10025000BE0000000F900F90DF91CF910895CF93D3
:10026000DF9300D000D0CDB7DEB78A837C836B8369
:100270008A81898311C0898191E0980F99830E94B6
:100280005B018B819C819C012F5F3F4F3C832B83C3
:10029000FC0180810E94BE008B819C81FC018081D9
:1002A000882349F7000000000F900F900F900F90E7
:1002B000DF91CF910895CF93DF930F92CDB7DEB743
:1002C00089838981813128F4898181580E948E0037
:1002D00004C0898181550E948E0000000F90DF913B
:1002E000CF910895CF93DF9300D000D000D0CDB749
:1002F000DEB79E838D831A82198213C01C821B82F3
:1003000006C000008B819C8101969C838B838B812E
:100310009C8187309340ACF389819A8101969A83BE
:10032000898329813A818D819E812817390734F389
:100330000000000026960FB6F894DEBF0FBECDBFBA
:10034000DF91CF910895CF93DF9300D00F92CDB777
:10035000DEB789837B836A8389818A3031F48A811D
:100360009B81BC018DE00E94A30180EC90E0FC0128
:100370008081882F90E080729927892BB1F386ECD9
:1003800090E02981FC01208380E090E00F900F90A5
:100390000F90DF91CF910895CF93DF93CDB7DEB764
:1003A00081E890E02BE0FC01208388E890E02DE7D5
:1003B00030E0FC01318320838FE690E022E0FC01F5
:1003C000208384E890E0FC011182108280910E016C
:1003D00090910F01A0911001B09111018093DE0165
:1003E0009093DF01A093E001B093E1018FE590E0ED
:1003F000FC0120818FE590E02068FC012083000053
:10040000DF91CF910895CF93DF93CDB7DEB781E829
:1004100090E0FC0110820000DF91CF9108951F92BF
:100420000F920FB60F9211240BB60F922F933F939A
:100430004F935F936F937F938F939F93AF93BF93EC
:10044000EF93FF93CF93DF93CDB7DEB78091DE01BB
:100450009091DF01A091E001B091E1010197A10924
:10046000B1098093DE019093DF01A093E001B09386
:10047000E1018091DE019091DF01A091E001B09156
:10048000E101892B8A2B8B2B91F40E94C31380915D
:100490000E0190910F01A0911001B0911101809374
:1004A000DE019093DF01A093E001B093E101000031
:1004B000DF91CF91FF91EF91BF91AF919F918F917C
:1004C0007F916F915F914F913F912F910F900BBE54
:1004D0000F900FBE0F901F901895CF93DF9300D011
:1004E00000D0CDB7DEB769837A838B839C83898103
:1004F0009A81AB81BC8180930E0190930F01A093F0
:100500001001B093110180910E0190910F01A09103
:100510001001B09111018093DE019093DF01A0934F
:10052000E001B093E10100000F900F900F900F9049
:10053000DF91CF910895CF93DF9300D0CDB7DEB791
:100540009A83898389819A81292F332785EC90E0CA
:10055000FC01208384EC90E02981FC01208382EC63
:1005600090E02EE0FC01208381EC90E028E1FC018A
:10057000208300000F900F90DF91CF910895CF93CB
:10058000DF93CDB7DEB7000080EC90E0FC01808106
:100590008823D4F70000DF91CF910895CF93DF93A4
:1005A000CDB7DEB7000080EC90E0FC018081882FA1
:1005B00090E080749927892BB1F30000DF91CF91EF
:1005C0000895CF93DF93CDB7DEB780EC90E0FC01C8
:1005D00080818074DF91CF910895CF93DF93CDB761
:1005E000DEB780EC90E0FC0180818078DF91CF91D4
:1005F0000895CF93DF930F92CDB7DEB705C086EC99
:1006000090E0FC018081898380EC90E0FC01808196
:100610008823ACF300000F90DF91CF910895CF9322
:10062000DF930F92CDB7DEB78983000080EC90E0B6
:10063000FC018081882F90E080729927892BB1F38B
:1006400086EC90E02981FC01208300000F90DF916F
:10065000CF910895CF93DF93CDB7DEB781EC90E0D3
:10066000FC0110820000DF91CF910895CF93DF93BA
:10067000CDB7DEB7000080EC90E0FC0180818823DC
:10068000D4F786EC90E0FC018081DF91CF91089552
:10069000CF93DF93CDB7DEB78AE790E0FC012081EE
:1006A0008AE790E0206EFC0120830000DF91CF916B
:1006B0000895CF93DF930F92CDB7DEB789838981F9
:1006C000882F90E0009719F0019739F00CC08CE763
:1006D00090E020ECFC0120830BC08CE790E021EC43
:1006E000FC01208305C08CE790E0FC011082000033
:1006F00084E090E00E94720100000F90DF91CF91A2
:100700000895CF93DF9300D000D0CDB7DEB79A83A2
:1007100089836B834C8389819A812B81FC0120839F
:1007200089819A812C81FC01218389819A81FC0134
:100730008181282F2295207F89819A81FC018081E7
:10074000820F21E0280F89819A81FC012283000019
:100750000F900F900F900F90DF91CF910895CF934E
:10076000DF9300D0CDB7DEB79A83898389819A81E0
:10077000FC01118289819A81FC018181282F2295B7
:10078000207F89819A81FC018081820F21E0280FDE
:1007900089819A81FC01228300000F900F90DF91E4
:1007A000CF910895CF93DF9300D0CDB7DEB79A8372
:1007B000898389819A81FC0180818D30B8F4898197
:1007C0009A8121E0FC01218389819A81FC01818148
:1007D000282F2295207F89819A81FC018081820FB8
:1007E00021E0280F89819A81FC01228300000F906B
:1007F0000F90DF91CF910895CF93DF9300D0CDB7C5
:10080000DEB79A83898389819A81FC01808188235C
:1008100039F089819A81FC0180812FEF280F04C073
:1008200089819A81FC01208189819A81FC01208340
:1008300089819A81FC018181282F2295207F8981DD
:100840009A81FC018081820F21E0280F89819A81A1
:10085000FC01228300000F900F90DF91CF9108954B
:10086000CF93DF9300D0CDB7DEB79A838983898198
:100870009A81FC018181882341F589819A81FC015B
:1008800080818F3038F489819A81FC01808121E058
:10089000280F04C089819A81FC01208189819A8175
:1008A000FC01208389819A81FC018181282F229576
:1008B000207F89819A81FC018081820F21E0280FAD
:1008C00089819A81FC01228327C089819A81FC0158
:1008D00080818C3038F489819A81FC01808121E00B
:1008E000280F04C089819A81FC01208189819A8125
:1008F000FC01208389819A81FC018181282F229526
:10090000207F89819A81FC018081820F21E0280F5C
:1009100089819A81FC01228300000F900F90DF9162
:10092000CF910895CF93DF9300D000D0CDB7DEB73D
:100930009A8389837C836B8389819A812B813C8113
:10094000B9010E948A1689819A814D9640E060E043
:100950000E94810300000F900F900F900F90DF9185
:10096000CF910895CF93DF9300D000D0CDB7DEB7FD
:100970009A8389836B834C838B818D3150F48B8177
:10098000882F90E04C8129813A81820F931FFC01CE
:10099000408300000F900F900F900F90DF91CF9148
:1009A0000895CF93DF9300D000D0CDB7DEB79A8300
:1009B00089836B834C832B8189819A81FC012283FB
:1009C00089819A81FC018281882F90E060E270E049
:1009D0000E9436159C0189819A81FC013183208314
:1009E0009C818B8198172CF42C8189819A81FC0140
:1009F000238300000F900F900F900F90DF91CF9105
:100A00000895CF93DF9300D0CDB7DEB79A83898363
:100A100089819A81FC018381882F90E0AC014F5F2E
:100A20005F4F89819A81FC018281282F30E0CA01C1
:100A3000B9010E94FF14282F89819A81FC01238328
:100A400000000F900F90DF91CF910895CF93DF9327
:100A500000D0CDB7DEB79A83898389819A81FC0162
:100A60008381882339F089819A81FC0183812FEF6A
:100A7000280F06C089819A81FC0182812FEF280FFF
:100A800089819A81FC01238300000F900F90DF91F0
:100A9000CF910895CF93DF9300D00F92CDB7DEB7FB
:100AA0009A8389836B8389819A81FC0182819B81EE
:100AB000981798F489819A81FC01208131818B817A
:100AC000882F90E0880F991F82959295907F9827A4
:100AD000807F9827820F931F02C080E090E00F90E4
:100AE0000F900F90DF91CF910895CF93DF9300D0B7
:100AF00000D00F92CDB7DEB79A8389836B835D8375
:100B00004C8389819A81FC01208131818B81882FDE
:100B100090E0880F991F82959295907F9827807F0B
:100B20009827820F931F9C018C819D81BC01C90174
:100B30000E948A1600000F900F900F900F900F9058
:100B4000DF91CF910895CF93DF9300D0CDB7DEB77B
:100B50009A83898389819A81FC01208131818981ED
:100B60009A81FC018381882F90E0880F991F8295DC
:100B70009295907F9827807F9827820F931F0F90E0
:100B80000F90DF91CF910895CF93DF9300D00F9214
:100B9000CDB7DEB79B838A83198229C08981882FCC
:100BA00090E02A813B81820F931F0396FC01108203
:100BB0008981882F90E02A813B81880F991F820FBD
:100BC000931F89599F4FFC01118210828981882FC0
:100BD00090E02A813B81880F991F820F931F815DCE
:100BE0009E4FFC011182108289818F5F89838981E8
:100BF0008436A0F28A819B81FC0110828A819B81CC
:100C0000FC011282118200000F900F900F90DF9173
:100C1000CF910895CF93DF93CDB7DEB728970FB666
:100C2000F894DEBF0FBECDBF9A8389837C836B832C
:100C30005E834D8338872F8389819A81FC0180816F
:100C40008436F0F589819A81FC018081882F90E0BB
:100C50004B8129813A81820F931F0396FC014083C7
:100C600089819A81FC018081882F90E029813A81D5
:100C7000880F991F820F931F89599F4F2D813E81A5
:100C8000FC013183208389819A81FC018081882F36
:100C900090E029813A81880F991F820F931F815D0F
:100CA0009E4F2F813885FC013183208389819A8171
:100CB000FC01808121E0280F89819A81FC01208339
:100CC000000028960FB6F894DEBF0FBECDBFDF91AF
:100CD000CF910895CF93DF93CDB7DEB728970FB6A6
:100CE000F894DEBF0FBECDBF9E838D8378876F8360
:100CF0008F81988547EF51E060E070E00E94831695
:100D00008D819E81FC018081282F8F819885FC0137
:100D100020838D819E81FC01818192819093E701E6
:100D20008093E6012091E6018F8198850196FC0170
:100D300020832091E7018F8198850296FC01208312
:100D40008D819E819C012D5F3F4F8F8198850396F9
:100D500044E650E0B9010E947A161C821B821A8276
:100D6000198263C02D813E8189819A81880F991FE4
:100D7000820F931F89599F4FFC018081918190932D
:100D8000E7018093E60189819A81880F991F9C83EE
:100D90008B834091E6018B819C8189599F4F9C01F7
:100DA0008F819885820F931F242FFC01208340910F
:100DB000E7018B819C8188599F4F2F813885820F55
:100DC000931F242FFC0120832D813E8189819A81EC
:100DD000880F991F820F931F815D9E4FFC018081B8
:100DE00091819093E7018093E6014091E6018B8128
:100DF0009C81815D9E4F9C018F819885820F931FFE
:100E0000242FFC0120834091E7018B819C81805D30
:100E10009E4F2F813885820F931F242FFC01208342
:100E200089819A8101969A83898389819A818436FE
:100E300091050CF497CF8D819E8182519C4F21E0CA
:100E4000FC012083000028960FB6F894DEBF0FBE89
:100E5000CDBFDF91CF910895CF93DF93CDB7DEB7AC
:100E600028970FB6F894DEBF0FBECDBF9E838D834B
:100E700078876F838D819E810E94C4058F819885BC
:100E80009C012D5F3F4F8D819E81039644E650E08B
:100E9000B9010E947A168F819885FC018081282FE4
:100EA0008D819E81FC0120838F8198850296FC01B3
:100EB00080818093E7018F8198850196FC01808174
:100EC0008093E6012091E6013091E7018D819E81BA
:100ED000FC01328321831C821B821A8219825FC02B
:100EE00089819A81880F991F9C838B838B819C8138
:100EF00088599F4F2F813885820F931FFC01808175
:100F00008093E6018B819C8189599F4F9C018F8141
:100F10009885820F931FFC0180818093E7012091C7
:100F2000E6013091E7014D815E8189819A81880FC8
:100F3000991F840F951F89599F4FFC01318320838E
:100F40008B819C81805D9E4F2F813885820F931FFE
:100F5000FC0180818093E6018B819C81815D9E4FA5
:100F60009C018F819885820F931FFC018081809363
:100F7000E7012091E6013091E7014D815E81898191
:100F80009A81880F991F840F951F815D9E4FFC01E8
:100F90003183208389819A8101969A83898389810B
:100FA0009A81843691050CF49BCF000000002896AE
:100FB0000FB6F894DEBF0FBECDBFDF91CF9108957D
:100FC000CF93DF9300D000D00F92CDB7DEB79D83D3
:100FD0008C839091E20181E08923882309F49EC0EB
:100FE00081E080959091E20189238093E2018091D4
:100FF000E801813031F565EE73E08EEE91E00E94FC
:101000006A0681E00E940F030E9436038B838B8166
:101010008F3F09F083C01A8219820DC089819A819D
:101020008B519C4FFC0180810E940F0389819A8122
:1010300001969A83898389819A81873F914070F3D1
:101040006DC08091E801823069F582E00E940F0353
:101050000E9436038093E8018091E8018E3F09F0F9
:101060005DC02091E9013091EA018091EC01882F67
:1010700090E0880F991F82959295907F9827807FA6
:101080009827820F931FFC01878D81500E940F03C8
:101090009091E20184E0892B8093E20181E08093CA
:1010A000EC013CC08091E8018330E9F483E00E94C8
:1010B0000F030E9436038093E8018091E8018D3F81
:1010C00069F51092EC019091E20184E0892B809304
:1010D000E2019091E20181E0892B8093E20184E0BA
:1010E0008093E8011BC08091E8018430B9F484E06A
:1010F0000E940F030E9436038093E8018091E8016B
:101100008C3F61F40E9436038093E3019091E201E9
:1011100084E0892B8093E2011092EC018C819D8107
:101120000F900F900F900F900F90DF91CF91089537
:10113000CF93DF9300D000D00F92CDB7DEB79D8361
:101140008C830E94ED028823B1F10E9436038B83C9
:101150008B81813081F547EF51E060E070E085EEF2
:1011600093E00E9483168FEF0E940F031A82198268
:101170000EC00E943603282F89819A818B519C4F83
:10118000FC01208389819A8101969A8389838981D0
:101190009A81873F914068F381E08093DC0565EE9A
:1011A00073E08EEE91E00E942C079091E20184E0C2
:1011B000892B8093E2018C819D810F900F900F907D
:1011C0000F900F90DF91CF910895CF93DF9300D0D0
:1011D00000D0CDB7DEB79C838B8381E00E9459039A
:1011E00088E790E0FC01808191819A8389838981DD
:1011F0009A818835924030F08091ED018260809331
:10120000ED0115C089819A81853F914030F480912C
:10121000ED0181608093ED010AC08091ED018E7F28
:101220008093ED018091ED018D7F8093ED018B81A5
:101230009C810F900F900F900F90DF91CF910895A8
:10124000CF93DF9300D000D0CDB7DEB79C838B83E4
:1012500080E00E94590388E790E0FC018081918141
:101260009A83898389819A818835924030F0809170
:10127000ED0184608093ED0115C089819A81853FDD
:10128000914030F48091ED0188608093ED010AC0B7
:101290008091ED018B7F8093ED018091ED01877F3F
:1012A0008093ED018B819C810F900F900F900F9098
:1012B000DF91CF910895CF93DF9300D00F92CDB7F8
:1012C000DEB79B838A8380E290E0FC018081809579
:1012D000847089838981882331F08091ED01806158
:1012E0008093ED0105C08091ED018F7E8093ED012B
:1012F0008A819B810F900F900F90DF91CF9108957D
:10130000CF93DF9300D000D0CDB7DEB79C838B8323
:101310009091E20184E08923882309F4E1C080915F
:10132000EC01882F90E08230910509F4CAC0833027
:1013300091050CF0D8C0009719F0019769F1D3C05E
:101340008091E301882309F4CDC0198219C020914E
:101350004701309148018981082E000C990B820FBA
:10136000931FFC018081382F29818091E9019091A0
:10137000EA01432F622F0E94B20489818F5F898323
:101380008981282F880F330B8091E301882F90E00B
:1013900028173907E4F2A6C08091EF019091F0017F
:1013A0009695879596958795969587959C01A5EC3A
:1013B000B0E20E941315AC01529542954F7045273B
:1013C0005F7045278091EE01282F30E08091E90180
:1013D0009091EA018096BC01852F8F93842F8F9383
:1013E000832F8F93822F8F9380EA91E0892F8F93A1
:1013F00080EA91E08F93872F8F93862F8F930E949F
:1014000091168DB79EB708960FB6F894DEBF0FBE43
:10141000CDBF1A8251C08A81082E000C990B8F50C3
:101420009E4FFC018081882359F120911201309157
:1014300013018A81082E000C990B8F509E4FFC01DE
:101440008081882F90E0820F931FFC0140818A8168
:1014500059E0580F2091E9013091EA018091EC01A7
:10146000882F90E0880F991F82959295907F9827FA
:10147000807F9827820F931F652F0E94B20419C0A6
:101480008A8159E0580F2091E9013091EA01809159
:10149000EC01882F90E0880F991F82959295907F9C
:1014A0009827807F9827820F931F40E2652F0E9424
:1014B000B2048A818F5F8A838A8187300CF4ABCF34
:1014C00012C08091E9019091EA01805C9F4F2DE16B
:1014D000E0ECF1E0DC0101900D922A95E1F703C008
:1014E000000001C0000000000F900F900F900F90BF
:1014F000DF91CF910895CF93DF9300D0CDB7DEB7C2
:101500009A8389838091EC01882F90E08230910545
:1015100009F455C1833091050CF0CDC1009721F03D
:10152000019709F4BBC0C7C18091ED01882F90E0FD
:1015300081709927892B09F440C08091E90190912D
:10154000EA01FC01858D882311F589EE91E00E9466
:1015500026052091E9013091EA018091EC01882F64
:1015600090E0880F991F82959295907F9827807FB1
:101570009827820F931F4D9640E063E00E948103FD
:101580009091E20184E0892B8093E20196C1209141
:10159000E9013091EA018091EC01882F90E0880FF9
:1015A000991F82959295907F9827807F9827820F28
:1015B000931F4D960E94FC0380C18091ED01882FFE
:1015C00090E082709927892B61F18091E9019091D7
:1015D000EA01FC01858D8F3071F489EE91E00E9463
:1015E000010580E00E945B019091E20184E0892B7B
:1015F0008093E20162C12091E9013091EA0180917A
:10160000EC01882F90E0880F991F82959295907F2A
:101610009827807F9827820F931F4D960E94300451
:101620004CC18091ED01882F90E084709927892B1F
:10163000B1F02091E9013091EA018091EC01882F0D
:1016400090E0880F991F82959295907F9827807FD0
:101650009827820F931F4D960E94AF032EC1809151
:10166000ED01882F90E088709927892B09F425C116
:101670002091E9013091EA018091EC01882F90E0FE
:10168000880F991F82959295907F9827807F982741
:10169000820F931F4D960E94D2030FC18091ED01DE
:1016A000882F90E081709927892B11F189EE91E0C4
:1016B0000E9426052091E9013091EA018091EC0118
:1016C000882F90E0880F991F82959295907F982798
:1016D000807F9827820F931F4D9640E060E00E9424
:1016E00081039091E20184E0892B8093E201E7C0BD
:1016F0008091ED01882F90E082709927892B11F15C
:1017000089EE91E00E9401052091E9013091EA0102
:101710008091EC01882F90E0880F991F8295929517
:10172000907F9827807F9827820F931F4D9640E0E7
:1017300063E00E9481039091E20184E0892B809311
:10174000E201BDC08091ED01882F90E0847099275F
:10175000892BB1F02091E9013091EA018091EC01EF
:10176000882F90E0880F991F82959295907F9827F7
:10177000807F9827820F931F4D960E94AF039FC0D2
:101780008091ED01882F90E088709927892B09F4CA
:1017900096C02091E9013091EA018091EC01882FF7
:1017A00090E0880F991F82959295907F9827807F6F
:1017B0009827820F931F4D960E94D20380C080917C
:1017C000ED01882F90E081709927892B71F089EEC7
:1017D00091E00E94260580E00E945B019091E20169
:1017E00084E0892B8093E2016CC08091ED01882F09
:1017F00090E082709927892B11F189EE91E00E9487
:1018000001052091E9013091EA018091EC01882FD6
:1018100090E0880F991F82959295907F9827807FFE
:101820009827820F931F4D9640E060E00E9481034D
:101830009091E20184E0892B8093E20142C0809183
:10184000ED01882F90E084709927892BB1F02091C9
:10185000E9013091EA018091EC01882F90E0880F36
:10186000991F82959295907F9827807F9827820F65
:10187000931F4D960E94AF0324C08091ED01882FE5
:1018800090E088709927892BE1F02091E90130914F
:10189000EA018091EC01882F90E0880F991F8295D2
:1018A0009295907F9827807F9827820F931F4D965F
:1018B0000E94D20306C0000005C0000003C0000063
:1018C00001C0000089819A810F900F90DF91CF9124
:1018D0000895CF93DF9300D00F92CDB7DEB79B83EF
:1018E0008A838091EC01823009F055C08091ED012E
:1018F000807189838A819B810397A9F18A819B8169
:1019000004970CF04BC08A819B810297F1F08A8189
:101910009B8103970CF042C08A819B81892B29F01F
:101920008A819B81019731F039C081E090E09B83EF
:101930008A8334C08981882319F082E090E002C054
:1019400081E090E09B838A8329C09091E20181E04D
:10195000892B8093E20183E08093E80183E090E0AB
:101960009B838A831BC08981882319F083E090E0E0
:1019700002C081E090E09B838A838A819B810197EA
:1019800061F49091E20184E0892B8093E20181E08F
:101990008093EC0102C0000001C000008A819B819D
:1019A0000F900F900F90DF91CF910895CF93DF9319
:1019B00000D00F92CDB7DEB79B838A838091EC0174
:1019C000882309F055C08091ED01807189838A8157
:1019D0009B810397A9F18A819B8104970CF04BC0EE
:1019E0008A819B810297F1F08A819B8103970CF099
:1019F00042C08A819B81892B29F08A819B81019732
:101A000031F039C081E090E09B838A8334C08981C2
:101A1000882319F082E090E002C081E090E09B838F
:101A20008A8329C09091E20181E0892B8093E201B1
:101A300082E08093E80183E090E09B838A831BC06F
:101A40008981882319F083E090E002C081E090E072
:101A50009B838A838A819B81019761F49091E20143
:101A600084E0892B8093E20181E08093EC0102C045
:101A7000000001C000008A819B810F900F900F90A1
:101A8000DF91CF910895CF93DF9300D00F92CDB720
:101A9000DEB79B838A838091ED0180718983809179
:101AA000EC01813009F047C08A819B81039799F14D
:101AB0008A819B810497D4F58A819B810297E9F002
:101AC0008A819B81039794F58A819B81892B29F0D8
:101AD0008A819B81019731F029C081E090E09B834E
:101AE0008A832AC08981882319F082E090E002C0AD
:101AF00081E090E09B838A831FC083E090E09B831A
:101B00008A839091E20181E0892B8093E20181E058
:101B10008093E80111C08981882319F083E090E067
:101B200002C081E090E09B838A8306C081E090E060
:101B30009B838A8301C000008A819B810F900F9054
:101B40000F90DF91CF910895CF93DF9300D00F9244
:101B5000CDB7DEB79B838A839091E20184E089232D
:101B6000882309F459C084E080959091E20189238B
:101B70008093E2010E9467002091E9013091EA011F
:101B80008091EC01882F90E0880F991F82959295A3
:101B9000907F9827807F9827820F931FBC0181E058
:101BA0000E942F0160E084E191E00E94EE0061E07C
:101BB00084E291E00E94EE0062E084E391E00E9402
:101BC000EE0063E08CE191E00E94EE0064E08CE2C4
:101BD00091E00E94EE0065E08CE391E00E94EE004F
:101BE000198217C08091EC019981981749F4898175
:101BF0009EE1980F89818D5F692F0E941C0106C0AC
:101C00008981825E682F89810E941C0189818F5F92
:101C100089838981833030F32091E9013091EA0191
:101C20008091EC01882F90E0880F991F8295929502
:101C3000907F9827807F9827820F931FFC01878DC4
:101C40000E945B018A819B810F900F900F90DF9122
:101C5000CF910895CF93DF9300D0CDB7DEB78091B9
:101C60004401882F90E06CE070E00E94361590935C
:101C7000E5018093E40119821A824091E4015091B8
:101C8000E5018981282F30E0C901880F991F820F53
:101C9000931F880F991F880F991F840F951F2A8102
:101CA000222F30E0FC013183208340914501509187
:101CB00046016091E4017091E5018981282F30E0AF
:101CC000C901880F991F820F931F880F991F880FD2
:101CD000991F9B01280F391FCA01A0E0B0E0F9014C
:101CE00082839383A483B5834091E4015091E501FD
:101CF0008981282F30E0C901880F991F820F931F17
:101D0000880F991F880F991F480F591F6091E40190
:101D10007091E5018981282F30E0C901880F991F52
:101D2000820F931F880F991F880F991F9B01280FFF
:101D3000391FFA0182819381A481B581F9018683DB
:101D40009783A087B1874091E4015091E501898193
:101D5000282F30E0C901880F991F820F931F880F29
:101D6000991F880F991F840F951F20EE37E0FC0103
:101D70003387228789818F5F89834091E401509165
:101D8000E5018981282F30E0C901880F991F820F52
:101D9000931F880F991F880F991F840F951F2A8101
:101DA000222F30E0FC013183208340914501509186
:101DB00046016091E4017091E5018981282F30E0AE
:101DC000C901880F991F820F931F880F991F880FD1
:101DD000991F9B01280F391FCA01A0E0B0E0F9014B
:101DE00082839383A483B5834091E4015091E501FC
:101DF0008981282F30E0C901880F991F820F931F16
:101E0000880F991F880F991F480F591F6091E4018F
:101E10007091E5018981282F30E0C901880F991F51
:101E2000820F931F880F991F880F991F9B01280FFE
:101E3000391FFA0182819381A481B581F9018683DA
:101E40009783A087B1874091E4015091E501898192
:101E5000282F30E0C901880F991F820F931F880F28
:101E6000991F880F991F840F951F28E938E0FC01FE
:101E70003387228789818F5F89834091E401509164
:101E8000E5018981282F30E0C901880F991F820F51
:101E9000931F880F991F880F991F840F951F2A8100
:101EA000222F30E0FC013183208340914501509185
:101EB00046016091E4017091E5018981282F30E0AD
:101EC000C901880F991F820F931F880F991F880FD0
:101ED000991F9B01280F391FCA01A0E0B0E0F9014A
:101EE00082839383A483B5834091E4015091E501FB
:101EF0008981282F30E0C901880F991F820F931F15
:101F0000880F991F880F991F480F591F6091E4018E
:101F10007091E5018981282F30E0C901880F991F50
:101F2000820F931F880F991F880F991F9B01280FFD
:101F3000391FFA0182819381A481B581F9018683D9
:101F40009783A087B1874091E4015091E501898191
:101F5000282F30E0C901880F991F820F931F880F27
:101F6000991F880F991F840F951F25EE38E0FC01FB
:101F70003387228789818F5F89834091E401509163
:101F8000E5018981282F30E0C901880F991F820F50
:101F9000931F880F991F880F991F840F951F2A81FF
:101FA000222F30E0FC013183208340914501509184
:101FB00046016091E4017091E5018981282F30E0AC
:101FC000C901880F991F820F931F880F991F880FCF
:101FD000991F9B01280F391FCA01A0E0B0E0F90149
:101FE00082839383A483B5834091E4015091E501FA
:101FF0008981282F30E0C901880F991F820F931F14
:10200000880F991F880F991F480F591F6091E4018D
:102010007091E5018981282F30E0C901880F991F4F
:10202000820F931F880F991F880F991F9B01280FFC
:10203000391FFA0182819381A481B581F9018683D8
:102040009783A087B1874091E4015091E501898190
:10205000282F30E0C901880F991F820F931F880F26
:10206000991F880F991F840F951F20E239E0FC010A
:102070003387228789818F5F89834091E401509162
:10208000E5018981282F30E0C901880F991F820F4F
:10209000931F880F991F880F991F840F951F2A81FE
:1020A000222F30E0FC013183208340914501509183
:1020B00046016091E4017091E5018981282F30E0AB
:1020C000C901880F991F820F931F880F991F880FCE
:1020D000991F9B01280F391FCA01A0E0B0E0F90148
:1020E00082839383A483B5834091E4015091E501F9
:1020F0008981282F30E0C901880F991F820F931F13
:10210000880F991F880F991F480F591F6091E4018C
:102110007091E5018981282F30E0C901880F991F4E
:10212000820F931F880F991F880F991F9B01280FFB
:10213000391FFA0182819381A481B581F9018683D7
:102140009783A087B1874091E4015091E50189818F
:10215000282F30E0C901880F991F820F931F880F25
:10216000991F880F991F840F951F2BE539E0FC01FB
:102170003387228789818F5F89834091E401509161
:10218000E5018981282F30E0C901880F991F820F4E
:10219000931F880F991F880F991F840F951F2A81FD
:1021A000222F30E0FC013183208340914501509182
:1021B00046016091E4017091E5018981282F30E0AA
:1021C000C901880F991F820F931F880F991F880FCD
:1021D000991F9B01280F391FCA01A0E0B0E0F90147
:1021E00082839383A483B5834091E4015091E501F8
:1021F0008981282F30E0C901880F991F820F931F12
:10220000880F991F880F991F480F591F6091E4018B
:102210007091E5018981282F30E0C901880F991F4D
:10222000820F931F880F991F880F991F9B01280FFA
:10223000391FFA0182819381A481B581F9018683D6
:102240009783A087B1874091E4015091E50189818E
:10225000282F30E0C901880F991F820F931F880F24
:10226000991F880F991F840F951F2BE73AE0FC01F7
:102270003387228789818F5F89834091E401509160
:10228000E5018981282F30E0C901880F991F820F4D
:10229000931F880F991F880F991F840F951F2A81FC
:1022A000222F30E0FC013183208340914501509181
:1022B00046016091E4017091E5018981282F30E0A9
:1022C000C901880F991F820F931F880F991F880FCC
:1022D000991F9B01280F391FCA01A0E0B0E0F90146
:1022E00082839383A483B5834091E4015091E501F7
:1022F0008981282F30E0C901880F991F820F931F11
:10230000880F991F880F991F480F591F6091E4018A
:102310007091E5018981282F30E0C901880F991F4C
:10232000820F931F880F991F880F991F9B01280FF9
:10233000391FFA0182819381A481B581F9018683D5
:102340009783A087B1874091E4015091E50189818D
:10235000282F30E0C901880F991F820F931F880F23
:10236000991F880F991F840F951F20E839E0FC0101
:102370003387228789818F5F89834091E40150915F
:10238000E5018981282F30E0C901880F991F820F4C
:10239000931F880F991F880F991F840F951F2A81FB
:1023A000222F30E0FC013183208340914501509180
:1023B00046016091E4017091E5018981282F30E0A8
:1023C000C901880F991F820F931F880F991F880FCB
:1023D000991F9B01280F391FCA01A0E0B0E0F90145
:1023E00082839383A483B5834091E4015091E501F6
:1023F0008981282F30E0C901880F991F820F931F10
:10240000880F991F880F991F480F591F6091E40189
:102410007091E5018981282F30E0C901880F991F4B
:10242000820F931F880F991F880F991F9B01280FF8
:10243000391FFA0182819381A481B581F9018683D4
:102440009783A087B1874091E4015091E50189818C
:10245000282F30E0C901880F991F820F931F880F22
:10246000991F880F991F840F951F29E63CE0FC01F6
:102470003387228789818F5F89834091E40150915E
:10248000E5018981282F30E0C901880F991F820F4B
:10249000931F880F991F880F991F840F951F2A81FA
:1024A000222F30E0FC01318320834091450150917F
:1024B00046016091E4017091E5018981282F30E0A7
:1024C000C901880F991F820F931F880F991F880FCA
:1024D000991F9B01280F391FCA01A0E0B0E0F90144
:1024E00082839383A483B5834091E4015091E501F5
:1024F0008981282F30E0C901880F991F820F931F0F
:10250000880F991F880F991F480F591F6091E40188
:102510007091E5018981282F30E0C901880F991F4A
:10252000820F931F880F991F880F991F9B01280FF7
:10253000391FFA0182819381A481B581F9018683D3
:102540009783A087B1874091E4015091E50189818B
:10255000282F30E0C901880F991F820F931F880F21
:10256000991F880F991F840F951F26ED3CE0FC01F1
:102570003387228789818F5F89834091E40150915D
:10258000E5018981282F30E0C901880F991F820F4A
:10259000931F880F991F880F991F840F951F2A81F9
:1025A000222F30E0FC01318320834091450150917E
:1025B00046016091E4017091E5018981282F30E0A6
:1025C000C901880F991F820F931F880F991F880FC9
:1025D000991F9B01280F391FCA01A0E0B0E0F90143
:1025E00082839383A483B5834091E4015091E501F4
:1025F0008981282F30E0C901880F991F820F931F0E
:10260000880F991F880F991F480F591F6091E40187
:102610007091E5018981282F30E0C901880F991F49
:10262000820F931F880F991F880F991F9B01280FF6
:10263000391FFA0182819381A481B581F9018683D2
:102640009783A087B1874091E4015091E50189818A
:10265000282F30E0C901880F991F820F931F880F20
:10266000991F880F991F840F951F23E43DE0FC01FB
:102670003387228789818F5F89834091E40150915C
:10268000E5018981282F30E0C901880F991F820F49
:10269000931F880F991F880F991F840F951F2A81F8
:1026A000222F30E0FC01318320834091450150917D
:1026B00046016091E4017091E5018981282F30E0A5
:1026C000C901880F991F820F931F880F991F880FC8
:1026D000991F9B01280F391FCA01A0E0B0E0F90142
:1026E00082839383A483B5834091E4015091E501F3
:1026F0008981282F30E0C901880F991F820F931F0D
:10270000880F991F880F991F480F591F6091E40186
:102710007091E5018981282F30E0C901880F991F48
:10272000820F931F880F991F880F991F9B01280FF5
:10273000391FFA0182819381A481B581F9018683D1
:102740009783A087B1874091E4015091E501898189
:10275000282F30E0C901880F991F820F931F880F1F
:10276000991F880F991F840F951F24EA3DE0FC01F3
:102770003387228789818F5F898300000F900F90B4
:10278000DF91CF9108950F931F93CF93DF930F9213
:10279000CDB7DEB71982D1C04091E4015091E50177
:1027A0008981282F30E0C901880F991F820F931F5C
:1027B000880F991F880F991F840F951FDC011696AB
:1027C0004D915D916D917C911997E091E401F091AB
:1027D000E5018981282F30E0C901880F991F820FF8
:1027E000931F880F991F880F991F8E0F9F1FFC0141
:1027F00082819381A481B581481759076A077B07B5
:1028000008F45BC04091E4015091E5018981282FD3
:1028100030E0C901880F991F820F931F880F991FFD
:10282000880F991F840F951FDC011A964D915C91BA
:102830006091E4017091E5018981282F30E0C901A0
:10284000880F991F820F931F880F991F880F991F58
:10285000860F971FDC01ED91FC916091E40170916E
:10286000E5018981282F30E0C901880F991F820F67
:10287000931F880F991F880F991F8B01080F191F2D
:10288000CF01FA010995D8018D939C934091E40101
:102890005091E5018981282F30E0C901880F991FE7
:1028A000820F931F880F991F880F991F840F951F00
:1028B000FC0116821782108611864091E401509126
:1028C000E5018981282F30E0C901880F991F820F07
:1028D000931F880F991F880F991F840F951FDC0184
:1028E00016960D911D912D913C911997809145015E
:1028F00090914601AC0160E070E0A091E401B091DC
:10290000E5018981E82FF0E0CF01880F991F8E0F34
:102910009F1F880F991F880F991FFD01E80FF91F4E
:10292000D901C801840F951FA61FB71F86839783FF
:10293000A087B18789818F5F8983809144019981C4
:10294000981708F429CF000000000F90DF91CF9175
:102950001F910F910895CF93DF9300D000D0CDB792
:10296000DEB781E290E0FC01108282E290E02FEF7E
:10297000FC01208384E290E02FEFFC01208385E2BC
:1029800090E0FC01108287E290E02FEFFC012083B1
:1029900088E290E0FC0110828AE290E02FEFFC01D7
:1029A00020838BE290E0FC011082809145019091A0
:1029B00046019C0140E050E029833A834B835C83CD
:1029C00069817A818B819C810E946D020E94CC0179
:1029D0008BE090E00E949B020E9472000E944803DC
:1029E00041E063E089EE91E00E94D1040E942A0E4A
:1029F0009091E20184E0892B8093E201FFCF97FB65
:102A0000072E16F4009407D077FD09D00E942215F6
:102A100007FC05D03EF4909581959F4F08957095E1
:102A200061957F4F0895A29FB001B39FC001A39FFE
:102A3000700D811D1124911DB29F700D811D1124F7
:102A4000911D0895AA1BBB1B51E107C0AA1FBB1F04
:102A5000A617B70710F0A61BB70B881F991F5A952A
:102A6000A9F780959095BC01CD0108950F931F9310
:102A7000CF93DF93869F8001879F100D969F100D47
:102A80001124C8010E945215EC01009729F0A801F9
:102A900070E060E00E948316CE01DF91CF911F911C
:102AA0000F9108950F931F93CF93DF939C0102978B
:102AB00010F422E030E0E091DF05F091E00590E0D5
:102AC00080E0B0E0A0E0309791F4009709F445C0B1
:102AD000821B930B84309105B8F58A819B81611527
:102AE000710569F1FB0193838283FE0111C040816E
:102AF00051810281138142175307F0F042175307A7
:102B000099F4109761F012960C93129713961C93F8
:102B10003296CF01DF91CF911F910F9108950093CD
:102B2000DF051093E005F4CF009719F04817590717
:102B300018F4CA01BD01EF01DF01F801C4CF909381
:102B4000E0058093DF05D1CFFE01E80FF91F219347
:102B50003193029799838883DCCF8091DD05909132
:102B6000DE05892B41F480914B0190914C019093AB
:102B7000DE058093DD058091490190914A0100971F
:102B800041F48DB79EB740914D0150914E01841B89
:102B9000950B4091DD055091DE054817590708F067
:102BA000B8CF841B950B8217930708F4B2CFB901F5
:102BB0006E5F7F4F8617970708F4ABCF640F751FC2
:102BC0007093DE056093DD05FA0121933193A1CF67
:102BD000CF93DF939C010097E9F0FC0132971382B9
:102BE0001282C091DF05D091E005DE0190E080E027
:102BF0002097A1F480819181280F391F8091DD05F4
:102C00009091DE058217930709F067C0F093DE0507
:102C1000E093DD05DF91CF910895DA01AE17BF078C
:102C200008F041C012964D915C911397CD0141156A
:102C3000510599F7DC011396FC93EE9312974D9191
:102C40005D91A40FB51FEA17FB0781F42081318144
:102C50002E5F3F4F240F351FDC0111963C932E93BE
:102C60002281338113963C932E931297B0E0A0E01B
:102C70008A819B810097B1F5FE0181919191E80FC6
:102C8000F91F8091DD059091DE058E179F0711F6E3
:102C9000109759F51092E0051092DF05D093DE05EC
:102CA000C093DD05B7CFB383A28340815181240F48
:102CB000351FA217B30771F44E5F5F4F2D913C9102
:102CC0001197420F531F5183408312962D913C91CF
:102CD00033832283009709F0ADCFF093E005E093B2
:102CE000DF0598CFDE01EC01C3CF13961C921E9234
:102CF0001297D4CFFB01DC0102C001900D9241502C
:102D00005040D8F70895DC0101C06D934150504008
:102D1000E0F70895FB01DC0101900D920020E1F73E
:102D200008950F931F93CF93DF93CDB7DEB72E9700
:102D30000FB6F894DEBF0FBECDBF0D891E8986E0A9
:102D40008C831A8309838FEF9FE79E838D83AE0167
:102D5000475E5F4F6F89788DCE0101960E94C11644
:102D60002F813885020F131FF80110822E960FB69F
:102D7000F894DEBF0FBECDBFDF91CF911F910F91B1
:102D800008952F923F924F925F926F927F928F920F
:102D90009F92AF92BF92CF92DF92EF92FF920F93EA
:102DA0001F93CF93DF93CDB7DEB72F970FB6F8946D
:102DB000DEBF0FBECDBF7C013B018A01DC0117964F
:102DC0001C921E92169713968C9181FFD8C19AE09F
:102DD000292EFE0131964F01D70113969C91F301E4
:102DE00093FD859193FF81913F01882309F448C1A8
:102DF000853239F493FD859193FF81913F018532AE
:102E000029F4B70190E00E94D818E6CFB12C412CEC
:102E1000512CBFE1B51538F08B3209F188F48032BE
:102E200001F1833221F157FC3AC020ED280F2A30FE
:102E300040F556FE1FC0B29C200D1124B22E06C0D4
:102E40008D3291F0803379F7689450F8F30193FD57
:102E5000859193FF81913F018111DBCF20C0689460
:102E600051F8689452F8F2CF689453F8EFCF689411
:102E700054F8ECCF429C200D1124422E689455F852
:102E8000E5CF8E3229F456FCFBC0689456F8DECFAD
:102E90008C3619F4689457F8D9CF8836B9F2982F40
:102EA0009F7D95549330C0F08336A1F18337C1F1F3
:102EB000833509F05BC0D801CD90DD908D016B2D7D
:102EC00070E056FC02C06FEF7FEFC6010E94C2188F
:102ED0005C01689457F80AC00C5F1F4FEFE3E98369
:102EE000AA24A394B12C6401E89457F853FC04C0BD
:102EF0004A141B0409F018F5342CA114B10431F55F
:102F0000332009F469CFB70180E290E00E94D8181D
:102F10003A94F6CFD8018C9189830E5F1F4FE0CF92
:102F2000F801C190D1908F016B2D70E056FC02C06A
:102F30006FEF7FEFC6010E94CD185C01D5CFB701BE
:102F400080E290E00E94D8184A94D2CFF60157FC54
:102F5000859157FE81916F01B70190E00E94D818CA
:102F600031103A94B1E0AB1AB108C7CF843619F0EA
:102F7000893609F074C0F80157FE6AC061917191F9
:102F8000819191918F01E52DEF76DE2E97FF09C09B
:102F900090958095709561957F4F8F4F9F4F689466
:102FA000D7F82AE030E0A4010E940819C82EC818FA
:102FB000AC2C5D2CD6FE0CC0E89450F8CB1440F439
:102FC000D4FE05C0D2FC03C05D2D5E7E552EAB2C19
:102FD00054FEADC0FE01EC0DF11D8081803309F07F
:102FE0009FC0652D697E562E752D7870372E53FC47
:102FF000ADC050FEA7C0BC2CA41418F44C0CB42CCB
:10300000BA1854FEA9C0B70180E390E00E94D81816
:1030100052FE09C088E790E051FE02C088E590E0CA
:10302000B7010E94D818CB1408F4A2C0CA94D12CBE
:103030008FEFC81AD80AC80CD91CD6018E916D0121
:10304000B70190E00E94D8188C149D04B1F758CFB6
:1030500061917191072E000C880B990B93CFD52CA1
:10306000E894D4F82AE030E08537E1F1F52DF97FD6
:10307000DF2E803751F100F5883551F18F3681F11F
:10308000F701868197812F960FB6F894DEBF0FBEA9
:10309000CDBFDF91CF911F910F91FF90EF90DF9007
:1030A000CF90BF90AF909F908F907F906F905F90E8
:1030B0004F903F902F900895883711F7D4FE02C0AB
:1030C0006894D2F820E130E00DC06894D4F8F6CFCF
:1030D00054FE03C02F2F2660D22E20E132E002C022
:1030E00028E030E0F801D7FE15C04191519161917F
:1030F00071914C875D876E877F878F01A4016C85F6
:103100007D858E859F850E940819C82EC818E89471
:10311000D7F84ECF81919191AC0170E060E0E9CF9A
:1031200052FC02C0A39460CFA394A3945DCF852DDD
:10313000867809F459CFF6CFB70180E290E00E947B
:10314000D818A394A414C0F3312C5BCF342C3A18B4
:10315000A41408F456CFF8CF852D867809F463CFF0
:103160008BE251FE80E257FC8DE2B70190E059CF2F
:10317000B70180E390E00E94D818BA9454CF8FEF43
:103180009FEF81CFFC010590615070400110D8F78E
:10319000809590958E0F9F1F0895FC01615070409F
:1031A00001900110D8F7809590958E0F9F1F08957C
:1031B0000F931F93CF93DF93182F092FEB018B8170
:1031C00081FD09C01FEF0FEF812F902FDF91CF916D
:1031D0001F910F91089582FF14C02E813F818C8131
:1031E0009D81281739073CF4E881F981CF010196C8
:1031F0009983888310838E819F8101969F838E831C
:10320000E3CFE885F985812F0995892BA1F3DACFE2
:10321000FA01AA27283051F1203181F1E8946F9307
:103220006E7F6E5F7F4F8F4F9F4FAF4FB1E03ED0AD
:10323000B4E03CD0670F781F891F9A1FA11D680F4B
:10324000791F8A1F911DA11D6A0F711D811D911D7E
:10325000A11D20D009F468943F912AE0269F1124F3
:103260003019305D3193DEF6CF010895462F477057
:10327000405D4193B3E00FD0C9F7F6CF462F4F70B2
:10328000405D4A3318F0495D31FD4052419302D010
:10329000A9F7EACFB4E0A6959795879577956795B6
:1032A000BA95C9F700976105710508959B01AC01B6
:1032B0000A2E06945795479537952795BA95C9F7DD
:1032C000620F731F841F951FA01D0895F894FFCFF0
:1032D0000000000200000000A30100000000010047
:1032E000000073011F001F11111F04041F1F000E97
:1032F0000E001B1B1F00181C0E0601001F1F0703DA
:1033000011191E1F1F000A1B1B0E04041F1F15048A
:1033100004111B1B0BFA007F010000E105200000D7
:10332000000000A4D082437BD49243A4D0A4437174
:103330009DAE430000C4430000DC430080F6430020
:10334000D0024453434445464741422A00010431D8
:10335000323334353637383941424344454647489D
:10336000494A4B4C4D4E4F505152535455565700AD
:103370004E6F7465735B253032755D2D2D2D2D2DAF
:103380002D2D54696D653A252D30337573656300B5
:10339000202020312D536176652020202020202000
:0E33A00020202020202020202020202000009F
:00000001FF
