:100000000C9446000C9465000C9465000C946500FB
:100010000C9465000C9465000C9465000C946500CC
:100020000C9465000C9465000C9465000C946500BC
:100030000C9465000C94D0010C9465000C94650040
:100040000C9465000C9465000C9465000C9465009C
:100050000C9465000C9465000C9465000C9465008C
:100060000C9465000C9465000C9465000C9465007C
:100070000C9465000C9465000C9465000C9465006C
:100080000C9465000C9465000C94650011241FBE4F
:10009000CFEFD0E4DEBFCDBF11E0A0E0B1E0E2E9F8
:1000A000FCE200E00BBF02C007900D92A83AB10736
:1000B000D9F725E0A8EAB1E001C01D92A93AB2073C
:1000C000E1F70E9486110C9447160C940000CF9320
:1000D000DF93CDB7DEB781E00E948E000000DF9194
:1000E000CF910895CF93DF93CDB7DEB784E690E04C
:1000F0000E94330188E30E948E0086E00E948E00F9
:100100008FE00E948E0081E00E948E008AE090E0E5
:100110000E9433010000DF91CF910895CF93DF93C8
:100120000F92CDB7DEB789838BE290E0FC0120818E
:100130008BE290E02F7BFC01208385E290E0298117
:10014000FC0120838BE290E0FC0120818BE290E0B7
:100150002068FC01208300008BE290E0FC012081FC
:100160008BE290E02F77FC01208382E090E00E94F8
:10017000330100000F90DF91CF910895CF93DF936B
:100180000F92CDB7DEB789838BE290E0FC0120812E
:100190008BE290E02064FC01208385E290E02981DD
:1001A000FC0120838BE290E0FC0120818BE290E057
:1001B0002068FC01208300008BE290E0FC0120819C
:1001C0008BE290E02F77FC01208381E090E00E9499
:1001D000330100000F90DF91CF910895CF93DF930B
:1001E00000D000D0CDB7DEB78A837C836B830E94BA
:1001F00067008A81898311C0898191E0980F998372
:100200000E941C018B819C819C012F5F3F4F3C838E
:100210002B83FC0180810E94BE008B819C81FC01AC
:100220008081882349F7000000000F900F900F9005
:100230000F90DF91CF910895CF93DF930F92CDB7B9
:10024000DEB789838981813128F4898181580E94B0
:100250008E0004C0898181550E948E0000000F909D
:10026000DF91CF910895CF93DF9300D000D000D0DD
:10027000CDB7DEB79E838D831A82198213C01C828C
:100280001B8206C000008B819C8101969C838B831E
:100290008B819C8187309340ACF389819A81019650
:1002A0009A83898329813A818D819E812817390714
:1002B00034F30000000026960FB6F894DEBF0FBEA0
:1002C000CDBFDF91CF910895CF93DF9300D00F92F0
:1002D000CDB7DEB789837B836A8389818A3031F425
:1002E0008A819B81BC018DE00E94640180EC90E0DA
:1002F000FC018081882F90E080729927892BB1F3CF
:1003000086EC90E02981FC01208380E090E00F9052
:100310000F900F90DF91CF910895CF93DF93CDB7DA
:10032000DEB781E890E02BE0FC01208388E890E0D4
:100330002DE730E0FC01318320838FE690E022E05E
:10034000FC01208384E890E0FC01118210828091FE
:100350000E0190910F01A0911001B09111018093B5
:10036000A8019093A901A093AA01B093AB018FE5D6
:1003700090E0FC0120818FE590E02068FC01208363
:100380000000DF91CF910895CF93DF93CDB7DEB713
:1003900081E890E0FC0110820000DF91CF91089588
:1003A0001F920F920FB60F9211240BB60F922F933C
:1003B0003F934F935F936F937F938F939F93AF93ED
:1003C000BF93EF93FF93CF93DF93CDB7DEB78091C9
:1003D000A8019091A901A091AA01B091AB01019748
:1003E000A109B1098093A8019093A901A093AA0142
:1003F000B093AB018091A8019091A901A091AA01AD
:10040000B091AB01892B8A2B8B2B91F40E949E100B
:1004100080910E0190910F01A0911001B0911101F6
:100420008093A8019093A901A093AA01B093AB0176
:100430000000DF91CF91FF91EF91BF91AF919F911C
:100440008F917F916F915F914F913F912F910F907D
:100450000BBE0F900FBE0F901F901895CF93DF9398
:1004600000D000D0CDB7DEB769837A838B839C83BD
:1004700089819A81AB81BC8180930E0190930F0199
:10048000A0931001B093110180910E0190910F0182
:10049000A0911001B09111018093A8019093A9013E
:1004A000A093AA01B093AB0100000F900F900F90A2
:1004B0000F90DF91CF910895CF93DF9300D0CDB708
:1004C000DEB79A83898389819A81292F332785EC26
:1004D00090E0FC01208384EC90E02981FC012083E2
:1004E00082EC90E02EE0FC01208381EC90E028E19A
:1004F000FC01208300000F900F90DF91CF910895B1
:10050000CF93DF93CDB7DEB7000080EC90E0FC0125
:1005100080818823D4F70000DF91CF910895CF9395
:10052000DF93CDB7DEB7000080EC90E0FC01808166
:10053000882F90E080749927892BB1F30000DF9118
:10054000CF910895CF93DF93CDB7DEB780EC90E0E5
:10055000FC0180818074DF91CF910895CF93DF9368
:10056000CDB7DEB780EC90E0FC0180818078DF9130
:10057000CF910895CF93DF930F92CDB7DEB705C02B
:1005800086EC90E0FC018081898380EC90E0FC01A6
:1005900080818823ACF300000F90DF91CF91089504
:1005A000CF93DF930F92CDB7DEB78983000080EC45
:1005B00090E0FC018081882F90E080729927892B40
:1005C000B1F386EC90E02981FC01208300000F90BC
:1005D000DF91CF910895CF93DF93CDB7DEB781EC54
:1005E00090E0FC0110820000DF91CF910895CF933D
:1005F000DF93CDB7DEB7000080EC90E0FC01808196
:100600008823D4F786EC90E0FC018081DF91CF91C4
:100610000895CF93DF9300D00F92CDB7DEB79B83C1
:100620008A83198229C08981882F90E02A813B81A1
:10063000820F931F0396FC0110828981882F90E01E
:100640002A813B81880F991F820F931F89599F4FE1
:10065000FC01118210828981882F90E02A813B81E0
:10066000880F991F820F931F815D9E4FFC0111829D
:10067000108289818F5F898389818436A0F28A8183
:100680009B81FC0110828A819B81FC011282118274
:1006900000000F900F900F90DF91CF910895CF93AE
:1006A000DF93CDB7DEB728970FB6F894DEBF0FBE45
:1006B000CDBF9A8389837C836B835E834D83388728
:1006C0002F8389819A81FC0180818436F0F58981AC
:1006D0009A81FC018081882F90E04B8129813A81A9
:1006E000820F931F0396FC01408389819A81FC014C
:1006F0008081882F90E029813A81880F991F820F8D
:10070000931F89599F4F2D813E81FC0131832083A6
:1007100089819A81FC018081882F90E029813A812A
:10072000880F991F820F931F815D9E4F2F813885FF
:10073000FC013183208389819A81FC01808121E041
:10074000280F89819A81FC012083000028960FB62A
:10075000F894DEBF0FBECDBFDF91CF910895CF9348
:10076000DF93CDB7DEB728970FB6F894DEBF0FBE84
:10077000CDBF9E838D8378876F838F81988547EF68
:1007800051E060E070E00E9464138D819E81FC0165
:100790008081282F8F819885FC0120838D819E8107
:1007A000FC01818192819093B0018093AF012091EF
:1007B000AF018F8198850196FC0120832091B001C3
:1007C0008F8198850296FC0120838D819E819C01FA
:1007D0002D5F3F4F8F819885039644E650E0B90125
:1007E0000E945B131C821B821A82198263C02D81B6
:1007F0003E8189819A81880F991F820F931F8959A1
:100800009F4FFC01808191819093B0018093AF0153
:1008100089819A81880F991F9C838B834091AF01B6
:100820008B819C8189599F4F9C018F819885820F74
:10083000931F242FFC0120834091B0018B819C8168
:1008400088599F4F2F813885820F931F242FFC01D9
:1008500020832D813E8189819A81880F991F820F83
:10086000931F815D9E4FFC01808191819093B00127
:100870008093AF014091AF018B819C81815D9E4F40
:100880009C018F819885820F931F242FFC01208368
:100890004091B0018B819C81805D9E4F2F81388576
:1008A000820F931F242FFC01208389819A81019656
:1008B0009A83898389819A81843691050CF497CF34
:1008C0008D819E8182519C4F21E0FC01208300009C
:1008D00028960FB6F894DEBF0FBECDBFDF91CF9143
:1008E0000895CF93DF93CDB7DEB728970FB6F8946E
:1008F000DEBF0FBECDBF9E838D8378876F838D81D2
:100900009E810E9409038F8198859C012D5F3F4F36
:100910008D819E81039644E650E0B9010E945B13ED
:100920008F819885FC018081282F8D819E81FC011B
:1009300020838F8198850296FC0180818093B0018D
:100940008F8198850196FC0180818093AF01209171
:10095000AF013091B0018D819E81FC0132832183F2
:100960001C821B821A8219825FC089819A81880F3A
:10097000991F9C838B838B819C8188599F4F2F81EA
:100980003885820F931FFC0180818093AF018B819A
:100990009C8189599F4F9C018F819885820F931F5D
:1009A000FC0180818093B0012091AF013091B001B2
:1009B0004D815E8189819A81880F991F840F951FCF
:1009C00089599F4FFC01318320838B819C81805DFD
:1009D0009E4F2F813885820F931FFC018081809369
:1009E000AF018B819C81815D9E4F9C018F81988599
:1009F000820F931FFC0180818093B0012091AF0191
:100A00003091B0014D815E8189819A81880F991F53
:100A1000840F951F815D9E4FFC0131832083898166
:100A20009A8101969A83898389819A818436910576
:100A30000CF49BCF0000000028960FB6F894DEBFA0
:100A40000FBECDBFDF91CF910895CF93DF93CDB788
:100A5000DEB78AE790E0FC0120818AE790E0206E13
:100A6000FC0120830000DF91CF910895CF93DF93A5
:100A70000F92CDB7DEB789838981882F90E00097E8
:100A800019F0019739F00CC08CE790E020ECFC01E4
:100A900020830BC08CE790E021ECFC01208305C093
:100AA0008CE790E0FC011082000084E090E00E945E
:100AB000330100000F90DF91CF910895CF93DF9322
:100AC00000D000D0CDB7DEB79A8389836B834C8387
:100AD0008B81803128F489819A812B81FC012083CC
:100AE00089819A812C81FC01218389819A81FC0171
:100AF0008181282F2295207F89819A81FC01808124
:100B0000820F21E0280F89819A81FC012283000055
:100B10000F900F900F900F90DF91CF910895CF938A
:100B2000DF9300D0CDB7DEB79A83898389819A811C
:100B3000FC01118289819A81FC018181282F2295F3
:100B4000207F89819A81FC018081820F21E0280F1A
:100B500089819A81FC01228300000F900F90DF9120
:100B6000CF910895CF93DF9300D0CDB7DEB79A83AE
:100B7000898389819A8121E0FC01218389819A817D
:100B8000FC018181282F2295207F89819A81FC0197
:100B90008081820F21E0280F89819A81FC012283C4
:100BA00000000F900F90DF91CF910895CF93DF93C6
:100BB00000D0CDB7DEB79A83898389819A81FC0101
:100BC0008081882339F089819A81FC0180812FEF0F
:100BD000280F04C089819A81FC01208189819A8132
:100BE000FC01208389819A81FC018181282F229533
:100BF000207F89819A81FC018081820F21E0280F6A
:100C000089819A81FC01228300000F900F90DF916F
:100C1000CF910895CF93DF9300D0CDB7DEB79A83FD
:100C2000898389819A81FC0180818F3038F48981A0
:100C30009A81FC01808121E0280F04C089819A817A
:100C4000FC01208189819A81FC01208389819A811C
:100C5000FC018181282F2295207F89819A81FC01C6
:100C60008081820F21E0280F89819A81FC012283F3
:100C700000000F900F90DF91CF910895CF93DF93F5
:100C800000D000D0CDB7DEB79A8389837C836B8395
:100C900089819A812B813C81B9010E946B138981E2
:100CA0009A814D9640E060E00E945E0500000F9042
:100CB0000F900F900F90DF91CF910895CF93DF9316
:100CC00000D000D0CDB7DEB79A8389836B834C8385
:100CD0008B818D3150F48B81882F90E04C8129815C
:100CE0003A81820F931FFC01408300000F900F9008
:100CF0000F900F90DF91CF910895CF93DF9300D0A5
:100D000000D0CDB7DEB79A8389836B834C832B8168
:100D100089819A81FC01228389819A81FC018281E7
:100D2000882F90E060E270E00E9417129C01898198
:100D30009A81FC01318320839C818B8198172CF44C
:100D40002C8189819A81FC01238300000F900F90F0
:100D50000F900F90DF91CF910895CF93DF9300D044
:100D6000CDB7DEB79A83898389819A81FC0183811B
:100D7000882F90E0AC014F5F5F4F89819A81FC0121
:100D80008281282F30E0CA01B9010E94E011282F8A
:100D900089819A81FC01238300000F900F90DF91DD
:100DA000CF910895CF93DF9300D0CDB7DEB79A836C
:100DB000898389819A81FC018381882339F0898123
:100DC0009A81FC0183812FEF280F06C089819A81C7
:100DD000FC0182812FEF280F89819A81FC012383F6
:100DE00000000F900F90DF91CF910895CF93DF9384
:100DF00000D00F92CDB7DEB79A8389836B83898148
:100E00009A81FC0182819B81981798F489819A814B
:100E1000FC01208131818B81882F90E0880F991F00
:100E200082959295907F9827807F9827820F931FB5
:100E300002C080E090E00F900F900F90DF91CF9173
:100E40000895CF93DF9300D000D00F92CDB7DEB7D7
:100E50009A8389836B835D834C8389819A81FC01AA
:100E6000208131818B81882F90E0880F991F829596
:100E70009295907F9827807F9827820F931F9C01DF
:100E80008C819D81BC01C9010E946B1300000F90F1
:100E90000F900F900F900F90DF91CF910895CF9307
:100EA000DF9300D0CDB7DEB79A83898389819A8199
:100EB000FC012081318189819A81FC018381882F05
:100EC00090E0880F991F82959295907F9827807F58
:100ED0009827820F931F0F900F90DF91CF91089565
:100EE000CF93DF9300D000D00F92CDB7DEB79D83B4
:100EF0008C839091AC0181E08923882359F181E0B2
:100F000080959091AC0189238093AC016DEA73E0E8
:100F100086EB91E00E94AF0381E00E94D0020E9424
:100F2000F7028B838B818F3FA9F41A8219820DC03F
:100F300089819A8183559C4FFC0180810E94D00257
:100F400089819A8101969A83898389819A81873FD1
:100F5000914070F38C819D810F900F900F900F90B6
:100F60000F90DF91CF910895CF93DF9300D000D001
:100F70000F92CDB7DEB79D838C830E94AE0288238B
:100F8000B1F10E94F7028B838B81813081F547EFAD
:100F900051E060E070E08DEA93E00E9464138FEF0F
:100FA0000E94D0021A8219820EC00E94F702282FD6
:100FB00089819A8183559C4FFC01208389819A8184
:100FC00001969A83898389819A81873F914068F34A
:100FD00081E08093A4056DEA73E086EB91E00E94C6
:100FE00071049091AC0184E0892B8093AC018C81D9
:100FF0009D810F900F900F900F900F90DF91CF91E8
:101000000895CF93DF9300D000D0CDB7DEB79C8397
:101010008B8381E00E94360588E790E0FC018081A7
:1010200091819A83898389819A818835924030F0B1
:101030008091B50182608093B50115C089819A8144
:10104000853F914030F48091B50181608093B50176
:101050000AC08091B5018E7F8093B5018091B50162
:101060008D7F8093B5018B819C810F900F900F90A5
:101070000F90DF91CF910895CF93DF9300D000D0F0
:10108000CDB7DEB79C838B8380E00E94360588E76E
:1010900090E0FC01808191819A83898389819A8182
:1010A0008835924030F08091B50184608093B5011D
:1010B00015C089819A81853F914030F48091B501B6
:1010C00088608093B5010AC08091B5018B7F8093C1
:1010D000B5018091B501877F8093B5018B819C819B
:1010E0000F900F900F900F90DF91CF910895CF93B5
:1010F000DF9300D00F92CDB7DEB79B838A8380E267
:1011000090E0FC01808180958470898389818823A7
:1011100031F08091B50180618093B50105C0809167
:10112000B5018F7E8093B5018A819B810F900F90CE
:101130000F90DF91CF910895CF93DF9300D00F925E
:10114000CDB7DEB79B838A838091B401882F90E06E
:101150008230910509F4A6C0833091050CF0A4C03B
:10116000009709F4A3C0019709F09EC09091AC01CB
:1011700084E08923882309F49BC08091B701909172
:10118000B8019695879596958795969587959C0134
:10119000A5ECB0E20E94F411AC01529542954F705B
:1011A00045275F7045278091B601282F30E0809158
:1011B000B1019091B2018096BC01852F8F93842F4D
:1011C0008F93832F8F93822F8F938DE491E0892FBC
:1011D0008F938DE491E08F93872F8F93862F8F933A
:1011E0000E9472138DB79EB708960FB6F894DEBFB3
:1011F0000FBECDBF198251C08981082E000C990BFA
:1012000087549E4FFC018081882359F1209112015F
:10121000309113018981082E000C990B87549E4F41
:10122000FC018081882F90E0820F931FFC01408198
:10123000898159E0580F2091B1013091B20180911C
:10124000B401882F90E0880F991F82959295907F26
:101250009827807F9827820F931F652F0E945E0634
:1012600019C0898159E0580F2091B1013091B20124
:101270008091B401882F90E0880F991F82959295F4
:10128000907F9827807F9827820F931F40E2652FD9
:101290000E945E0689818F5F8983898187300CF483
:1012A000ABCF06C0000005C0000003C0000001C0B5
:1012B000000000000F900F900F90DF91CF910895E4
:1012C000CF93DF9300D0CDB7DEB79A838983809127
:1012D000B401882F90E08230910509F455C1833024
:1012E00091050CF0CDC1009721F0019709F4BBC026
:1012F000C7C18091B501882F90E081709927892B13
:1013000009F440C08091B1019091B201FC01858D3A
:10131000882311F581EB91E00E94D2062091B10162
:101320003091B2018091B401882F90E0880F991F0D
:1013300082959295907F9827807F9827820F931FA0
:101340004D9643E060E00E945E059091AC0184E020
:10135000892B8093AC0196C12091B1013091B201EB
:101360008091B401882F90E0880F991F8295929503
:10137000907F9827807F9827820F931F4D960E9419
:10138000D60580C18091B501882F90E082709927A1
:10139000892B61F18091B1019091B201FC01858DA1
:1013A0008F3071F481EB91E00E94AD0680E00E94E5
:1013B0001C019091AC0184E0892B8093AC0162C147
:1013C0002091B1013091B2018091B401882F90E059
:1013D000880F991F82959295907F9827807F9827F4
:1013E000820F931F4D960E940A064CC18091B50151
:1013F000882F90E084709927892BB1F02091B1015A
:101400003091B2018091B401882F90E0880F991F2C
:1014100082959295907F9827807F9827820F931FBF
:101420004D960E948F052EC18091B501882F90E0C6
:1014300088709927892B09F425C12091B101309139
:10144000B2018091B401882F90E0880F991F829596
:101450009295907F9827807F9827820F931F4D96B3
:101460000E94B2050FC18091B501882F90E0817074
:101470009927892B11F181EB91E00E94D2062091EE
:10148000B1013091B2018091B401882F90E0880FB2
:10149000991F82959295907F9827807F9827820F39
:1014A000931F4D9640E060E00E945E059091AC0174
:1014B00084E0892B8093AC01E7C08091B501882F2F
:1014C00090E082709927892B11F181EB91E00E94C5
:1014D000AD062091B1013091B2018091B401882F05
:1014E00090E0880F991F82959295907F9827807F32
:1014F0009827820F931F4D9643E060E00E945E059F
:101500009091AC0184E0892B8093AC01BDC08091A7
:10151000B501882F90E084709927892BB1F0209134
:10152000B1013091B2018091B401882F90E0880F11
:10153000991F82959295907F9827807F9827820F98
:10154000931F4D960E948F059FC08091B501882FF3
:1015500090E088709927892B09F496C02091B101F9
:101560003091B2018091B401882F90E0880F991FCB
:1015700082959295907F9827807F9827820F931F5E
:101580004D960E94B20580C08091B501882F90E0F1
:1015900081709927892B71F081EB91E00E94D2062E
:1015A00080E00E941C019091AC0184E0892B809323
:1015B000AC016CC08091B501882F90E082709927B2
:1015C000892B11F181EB91E00E94AD062091B101D0
:1015D0003091B2018091B401882F90E0880F991F5B
:1015E00082959295907F9827807F9827820F931FEE
:1015F0004D9640E060E00E945E059091AC0184E071
:10160000892B8093AC0142C08091B501882F90E076
:1016100084709927892BB1F02091B1013091B201EA
:101620008091B401882F90E0880F991F8295929540
:10163000907F9827807F9827820F931F4D960E9456
:101640008F0524C08091B501882F90E0887099277C
:10165000892BE1F02091B1013091B2018091B40168
:10166000882F90E0880F991F82959295907F9827F8
:10167000807F9827820F931F4D960E94B20506C067
:10168000000005C0000003C0000001C00000898107
:101690009A810F900F90DF91CF910895CF93DF93B0
:1016A00000D00F92CDB7DEB79B838A838091B501BE
:1016B000807189838091B401813009F044C08A81AE
:1016C0009B81039781F18A819B810497BCF58A8174
:1016D0009B810297E9F08A819B8103977CF58A813F
:1016E0009B81892B29F08A819B81019731F026C04B
:1016F00081E090E09B838A8327C08981882319F049
:1017000082E090E002C081E090E09B838A831CC06D
:1017100083E090E09B838A839091AC0181E0892BE8
:101720008093AC0111C08981882319F083E090E097
:1017300002C081E090E09B838A8306C081E090E054
:101740009B838A8301C000008A819B810F900F9048
:101750000F90DF91CF910895CF93DF9300D0CDB755
:10176000DEB79A8389839091AC0184E08923882332
:1017700079F084E080959091AC0189238093AC014D
:1017800081EB91E00E944F07BC0181E00E94EE00D6
:101790002091B1013091B2018091B401882F90E085
:1017A000880F991F82959295907F9827807F982720
:1017B000820F931FFC01878D0E941C0189819A81F1
:1017C0000F900F90DF91CF910895CF93DF9300D0CA
:1017D000CDB7DEB780911401882F90E06CE070E007
:1017E0000E9417129093AE018093AD0119821A8264
:1017F0004091AD015091AE018981282F30E0C9019F
:10180000880F991F820F931F880F991F880F991FA8
:10181000840F951F2A81222F30E0FC013183208321
:1018200040911501509116016091AD017091AE018A
:101830008981282F30E0C901880F991F820F931FDB
:10184000880F991F880F991F9B01280F391FCA0104
:10185000A0E0B0E0F90182839383A483B583409133
:10186000AD015091AE018981282F30E0C901880F68
:10187000991F820F931F880F991F880F991F480F78
:10188000591F6091AD017091AE018981282F30E020
:10189000C901880F991F820F931F880F991F880F06
:1018A000991F9B01280F391FFA0182819381A4811E
:1018B000B581F90186839783A087B1874091AD01F7
:1018C0005091AE018981282F30E0C901880F991FFE
:1018D000820F931F880F991F880F991F840F951FE0
:1018E00020E737E0FC013387228789818F5F898376
:1018F0004091AD015091AE018981282F30E0C9019E
:10190000880F991F820F931F880F991F880F991FA7
:10191000840F951F2A81222F30E0FC013183208320
:1019200040911501509116016091AD017091AE0189
:101930008981282F30E0C901880F991F820F931FDA
:10194000880F991F880F991F9B01280F391FCA0103
:10195000A0E0B0E0F90182839383A483B583409132
:10196000AD015091AE018981282F30E0C901880F67
:10197000991F820F931F880F991F880F991F480F77
:10198000591F6091AD017091AE018981282F30E01F
:10199000C901880F991F820F931F880F991F880F05
:1019A000991F9B01280F391FFA0182819381A4811D
:1019B000B581F90186839783A087B1874091AD01F6
:1019C0005091AE018981282F30E0C901880F991FFD
:1019D000820F931F880F991F880F991F840F951FDF
:1019E00024EB37E0FC013387228789818F5F89836D
:1019F0004091AD015091AE018981282F30E0C9019D
:101A0000880F991F820F931F880F991F880F991FA6
:101A1000840F951F2A81222F30E0FC01318320831F
:101A200040911501509116016091AD017091AE0188
:101A30008981282F30E0C901880F991F820F931FD9
:101A4000880F991F880F991F9B01280F391FCA0102
:101A5000A0E0B0E0F90182839383A483B583409131
:101A6000AD015091AE018981282F30E0C901880F66
:101A7000991F820F931F880F991F880F991F480F76
:101A8000591F6091AD017091AE018981282F30E01E
:101A9000C901880F991F820F931F880F991F880F04
:101AA000991F9B01280F391FFA0182819381A4811C
:101AB000B581F90186839783A087B1874091AD01F5
:101AC0005091AE018981282F30E0C901880F991FFC
:101AD000820F931F880F991F880F991F840F951FDE
:101AE00021E038E0FC013387228789818F5F898379
:101AF0004091AD015091AE018981282F30E0C9019C
:101B0000880F991F820F931F880F991F880F991FA5
:101B1000840F951F2A81222F30E0FC01318320831E
:101B200040911501509116016091AD017091AE0187
:101B30008981282F30E0C901880F991F820F931FD8
:101B4000880F991F880F991F9B01280F391FCA0101
:101B5000A0E0B0E0F90182839383A483B583409130
:101B6000AD015091AE018981282F30E0C901880F65
:101B7000991F820F931F880F991F880F991F480F75
:101B8000591F6091AD017091AE018981282F30E01D
:101B9000C901880F991F820F931F880F991F880F03
:101BA000991F9B01280F391FFA0182819381A4811B
:101BB000B581F90186839783A087B1874091AD01F4
:101BC0005091AE018981282F30E0C901880F991FFB
:101BD000820F931F880F991F880F991F840F951FDD
:101BE0002CE338E0FC013387228789818F5F89836A
:101BF0004091AD015091AE018981282F30E0C9019B
:101C0000880F991F820F931F880F991F880F991FA4
:101C1000840F951F2A81222F30E0FC01318320831D
:101C200040911501509116016091AD017091AE0186
:101C30008981282F30E0C901880F991F820F931FD7
:101C4000880F991F880F991F9B01280F391FCA0100
:101C5000A0E0B0E0F90182839383A483B58340912F
:101C6000AD015091AE018981282F30E0C901880F64
:101C7000991F820F931F880F991F880F991F480F74
:101C8000591F6091AD017091AE018981282F30E01C
:101C9000C901880F991F820F931F880F991F880F02
:101CA000991F9B01280F391FFA0182819381A4811A
:101CB000B581F90186839783A087B1874091AD01F3
:101CC0005091AE018981282F30E0C901880F991FFA
:101CD000820F931F880F991F880F991F840F951FDC
:101CE00027E738E0FC013387228789818F5F89836A
:101CF0004091AD015091AE018981282F30E0C9019A
:101D0000880F991F820F931F880F991F880F991FA3
:101D1000840F951F2A81222F30E0FC01318320831C
:101D200040911501509116016091AD017091AE0185
:101D30008981282F30E0C901880F991F820F931FD6
:101D4000880F991F880F991F9B01280F391FCA01FF
:101D5000A0E0B0E0F90182839383A483B58340912E
:101D6000AD015091AE018981282F30E0C901880F63
:101D7000991F820F931F880F991F880F991F480F73
:101D8000591F6091AD017091AE018981282F30E01B
:101D9000C901880F991F820F931F880F991F880F01
:101DA000991F9B01280F391FFA0182819381A48119
:101DB000B581F90186839783A087B1874091AD01F2
:101DC0005091AE018981282F30E0C901880F991FF9
:101DD000820F931F880F991F880F991F840F951FDB
:101DE0002CE938E0FC013387228789818F5F898362
:101DF0004091AD015091AE018981282F30E0C90199
:101E0000880F991F820F931F880F991F880F991FA2
:101E1000840F951F2A81222F30E0FC01318320831B
:101E200040911501509116016091AD017091AE0184
:101E30008981282F30E0C901880F991F820F931FD5
:101E4000880F991F880F991F9B01280F391FCA01FE
:101E5000A0E0B0E0F90182839383A483B58340912D
:101E6000AD015091AE018981282F30E0C901880F62
:101E7000991F820F931F880F991F880F991F480F72
:101E8000591F6091AD017091AE018981282F30E01A
:101E9000C901880F991F820F931F880F991F880F00
:101EA000991F9B01280F391FFA0182819381A48118
:101EB000B581F90186839783A087B1874091AD01F1
:101EC0005091AE018981282F30E0C901880F991FF8
:101ED000820F931F880F991F880F991F840F951FDA
:101EE00020E639E0FC013387228789818F5F89836F
:101EF0004091AD015091AE018981282F30E0C90198
:101F0000880F991F820F931F880F991F880F991FA1
:101F1000840F951F2A81222F30E0FC01318320831A
:101F200040911501509116016091AD017091AE0183
:101F30008981282F30E0C901880F991F820F931FD4
:101F4000880F991F880F991F9B01280F391FCA01FD
:101F5000A0E0B0E0F90182839383A483B58340912C
:101F6000AD015091AE018981282F30E0C901880F61
:101F7000991F820F931F880F991F880F991F480F71
:101F8000591F6091AD017091AE018981282F30E019
:101F9000C901880F991F820F931F880F991F880FFF
:101FA000991F9B01280F391FFA0182819381A48117
:101FB000B581F90186839783A087B1874091AD01F0
:101FC0005091AE018981282F30E0C901880F991FF7
:101FD000820F931F880F991F880F991F840F951FD9
:101FE0002EE43BE0FC013387228789818F5F898360
:101FF0004091AD015091AE018981282F30E0C90197
:10200000880F991F820F931F880F991F880F991FA0
:10201000840F951F2A81222F30E0FC013183208319
:1020200040911501509116016091AD017091AE0182
:102030008981282F30E0C901880F991F820F931FD3
:10204000880F991F880F991F9B01280F391FCA01FC
:10205000A0E0B0E0F90182839383A483B58340912B
:10206000AD015091AE018981282F30E0C901880F60
:10207000991F820F931F880F991F880F991F480F70
:10208000591F6091AD017091AE018981282F30E018
:10209000C901880F991F820F931F880F991F880FFE
:1020A000991F9B01280F391FFA0182819381A48116
:1020B000B581F90186839783A087B1874091AD01EF
:1020C0005091AE018981282F30E0C901880F991FF6
:1020D000820F931F880F991F880F991F840F951FD8
:1020E0002CEA3BE0FC013387228789818F5F89835B
:1020F00000000F900F90DF91CF910895CF93DF9361
:10210000CDB7DEB78091B1019091B2016DE671E07B
:102110000E943E068091B1019091B201805C9F4F78
:102120006AE871E00E943E069091AC0184E0892B40
:102130008093AC010000DF91CF9108950F931F931E
:10214000CF93DF930F92CDB7DEB71982D1C0409104
:10215000AD015091AE018981282F30E0C901880F6F
:10216000991F820F931F880F991F880F991F840F43
:10217000951FDC0116964D915D916D917C9119979B
:10218000E091AD01F091AE018981282F30E0C901C5
:10219000880F991F820F931F880F991F880F991F0F
:1021A0008E0F9F1FFC0182819381A481B581481706
:1021B00059076A077B0708F45BC04091AD01509155
:1021C000AE018981282F30E0C901880F991F820F45
:1021D000931F880F991F880F991F840F951FDC018B
:1021E0001A964D915C916091AD017091AE0189811B
:1021F000282F30E0C901880F991F820F931F880F85
:10220000991F880F991F860F971FDC01ED91FC9194
:102210006091AD017091AE018981282F30E0C90134
:10222000880F991F820F931F880F991F880F991F7E
:102230008B01080F191FCF01FA010995D8018D9361
:102240009C934091AD015091AE018981282F30E0DF
:10225000C901880F991F820F931F880F991F880F3C
:10226000991F840F951FFC01168217821086118614
:102270004091AD015091AE018981282F30E0C90114
:10228000880F991F820F931F880F991F880F991F1E
:10229000840F951FDC0116960D911D912D913C9197
:1022A00019978091150190911601AC0160E070E0E2
:1022B000A091AD01B091AE018981E82FF0E0CF018E
:1022C000880F991F8E0F9F1F880F991F880F991FC6
:1022D000FD01E80FF91FD901C801840F951FA61F42
:1022E000B71F86839783A087B18789818F5F898392
:1022F000809114019981981708F429CF00000000FB
:102300000F90DF91CF911F910F910895CF93DF939D
:1023100000D000D0CDB7DEB781E290E0FC011082A2
:1023200082E290E02FEFFC01208384E290E02FEF27
:10233000FC01208385E290E0FC01108287E290E0BE
:102340002FEFFC01208388E290E0FC0110828AE2FA
:1023500090E02FEFFC0120838BE290E0FC011082E3
:1023600080911501909116019C0140E050E0298375
:102370003A834B835C8369817A818B819C810E9443
:102380002E020E948D018BE090E00E945C0286EBA1
:1023900091E00E9409030E9472000E94250590911D
:1023A000AC0184E0892B8093AC0141E063E081EBD8
:1023B00091E00E947D060E947E100E94E50BFFCFF7
:1023C00097FB072E16F4009407D077FD09D00E94E2
:1023D000031207FC05D03EF4909581959F4F089518
:1023E000709561957F4F0895A29FB001B39FC00182
:1023F000A39F700D811D1124911DB29F700D811D31
:102400001124911D0895AA1BBB1B51E107C0AA1FEF
:10241000BB1FA617B70710F0A61BB70B881F991F85
:102420005A95A9F780959095BC01CD0108950F9319
:102430001F93CF93DF93869F8001879F100D969FF8
:10244000100D1124C8010E943312EC01009729F0ED
:10245000A80170E060E00E946413CE01DF91CF918B
:102460001F910F9108950F931F93CF93DF939C01BA
:10247000029710F422E030E0E091A705F091A80562
:1024800090E080E0B0E0A0E0309791F4009709F48C
:1024900045C0821B930B84309105B8F58A819B81DE
:1024A0006115710569F1FB0193838283FE0111C0FF
:1024B000408151810281138142175307F0F0421786
:1024C000530799F4109761F012960C931297139694
:1024D0001C933296CF01DF91CF911F910F910895F8
:1024E0000093A7051093A805F4CF009719F048179B
:1024F000590718F4CA01BD01EF01DF01F801C4CF8B
:102500009093A8058093A705D1CFFE01E80FF91F8E
:1025100021933193029799838883DCCF8091A5051D
:102520009091A605892B41F48091190190911A018F
:102530009093A6058093A5058091170190911801AD
:10254000009741F48DB79EB740911B0150911C013B
:10255000841B950B4091A5055091A6054817590776
:1025600008F0B8CF841B950B8217930708F4B2CFFD
:10257000B9016E5F7F4F8617970708F4ABCF640FE2
:10258000751F7093A6056093A505FA0121933193F9
:10259000A1CFCF93DF939C010097E9F0FC01329724
:1025A00013821282C091A705D091A805DE0190E0A8
:1025B00080E02097A1F480819181280F391F8091BC
:1025C000A5059091A6058217930709F067C0F093BF
:1025D000A605E093A505DF91CF910895DA01AE1726
:1025E000BF0708F041C012964D915C911397CD0141
:1025F0004115510599F7DC011396FC93EE93129760
:102600004D915D91A40FB51FEA17FB0781F420815E
:1026100031812E5F3F4F240F351FDC0111963C9313
:102620002E932281338113963C932E931297B0E020
:10263000A0E08A819B810097B1F5FE018191919183
:10264000E80FF91F8091A5059091A6058E179F07A9
:1026500011F6109759F51092A8051092A705D0937E
:10266000A605C093A505B7CFB383A283408151814E
:10267000240F351FA217B30771F44E5F5F4F2D91E2
:102680003C911197420F531F5183408312962D9115
:102690003C9133832283009709F0ADCFF093A805D6
:1026A000E093A70598CFDE01EC01C3CF13961C92EF
:1026B0001E921297D4CFFB01DC0102C001900D9253
:1026C00041505040D8F70895DC0101C06D9341504E
:1026D0005040E0F70895FB01DC0101900D920020CD
:1026E000E1F708950F931F93CF93DF93CDB7DEB734
:1026F0002E970FB6F894DEBF0FBECDBF0D891E8991
:1027000086E08C831A8309838FEF9FE79E838D83F6
:10271000AE01475E5F4F6F89788DCE0101960E94B2
:10272000A2132F813885020F131FF80110822E96F5
:102730000FB6F894DEBF0FBECDBFDF91CF911F91D2
:102740000F9108952F923F924F925F926F927F92D6
:102750008F929F92AF92BF92CF92DF92EF92FF92B1
:102760000F931F93CF93DF93CDB7DEB72F970FB69D
:10277000F894DEBF0FBECDBF7C013B018A01DC01B6
:1027800017961C921E92169713968C9181FFD8C1B2
:102790009AE0292EFE0131964F01D70113969C91A4
:1027A000F30193FD859193FF81913F01882309F403
:1027B00048C1853239F493FD859193FF81913F01A2
:1027C000853229F4B70190E00E94B915E6CFB12C0B
:1027D000412C512CBFE1B51538F08B3209F188F44A
:1027E000803201F1833221F157FC3AC020ED280FED
:1027F0002A3040F556FE1FC0B29C200D1124B22E87
:1028000006C08D3291F0803379F7689450F8F30167
:1028100093FD859193FF81913F018111DBCF20C012
:10282000689451F8689452F8F2CF689453F8EFCF57
:10283000689454F8ECCF429C200D1124422E6894E9
:1028400055F8E5CF8E3229F456FCFBC0689456F853
:10285000DECF8C3619F4689457F8D9CF8836B9F2A0
:10286000982F9F7D95549330C0F08336A1F1833724
:10287000C1F1833509F05BC0D801CD90DD908D01A9
:102880006B2D70E056FC02C06FEF7FEFC6010E9417
:10289000A3155C01689457F80AC00C5F1F4FEFE363
:1028A000E983AA24A394B12C6401E89457F853FC5B
:1028B00004C04A141B0409F018F5342CA114B10407
:1028C00031F5332009F469CFB70180E290E00E942E
:1028D000B9153A94F6CFD8018C9189830E5F1F4FBA
:1028E000E0CFF801C190D1908F016B2D70E056FCC4
:1028F00002C06FEF7FEFC6010E94AE155C01D5CF1D
:10290000B70180E290E00E94B9154A94D2CFF60157
:1029100057FC859157FE81916F01B70190E00E94AD
:10292000B91531103A94B1E0AB1AB108C7CF84366B
:1029300019F0893609F074C0F80157FE6AC0619138
:102940007191819191918F01E52DEF76DE2E97FFA8
:1029500009C090958095709561957F4F8F4F9F4FDF
:102960006894D7F82AE030E0A4010E94E915C82E47
:10297000C818AC2C5D2CD6FE0CC0E89450F8CB14D3
:1029800040F4D4FE05C0D2FC03C05D2D5E7E552E02
:10299000AB2C54FEADC0FE01EC0DF11D80818033E7
:1029A00009F09FC0652D697E562E752D7870372EE3
:1029B00053FCADC050FEA7C0BC2CA41418F44C0CA2
:1029C000B42CBA1854FEA9C0B70180E390E00E946D
:1029D000B91552FE09C088E790E051FE02C088E5B3
:1029E00090E0B7010E94B915CB1408F4A2C0CA94B4
:1029F000D12C8FEFC81AD80AC80CD91CD6018E91D9
:102A00006D01B70190E00E94B9158C149D04B1F7D7
:102A100058CF61917191072E000C880B990B93CFC1
:102A2000D52CE894D4F82AE030E08537E1F1F52D93
:102A3000F97FDF2E803751F100F5883551F18F365F
:102A400081F1F701868197812F960FB6F894DEBF4A
:102A50000FBECDBFDF91CF911F910F91FF90EF90EF
:102A6000DF90CF90BF90AF909F908F907F906F90AE
:102A70005F904F903F902F900895883711F7D4FEC4
:102A800002C06894D2F820E130E00DC06894D4F818
:102A9000F6CF54FE03C02F2F2660D22E20E132E065
:102AA00002C028E030E0F801D7FE15C041915191F5
:102AB000619171914C875D876E877F878F01A4013B
:102AC0006C857D858E859F850E94E915C82EC81866
:102AD000E894D7F84ECF81919191AC0170E060E01D
:102AE000E9CF52FC02C0A39460CFA394A3945DCF1E
:102AF000852D867809F459CFF6CFB70180E290E0B2
:102B00000E94B915A394A414C0F3312C5BCF342CCC
:102B10003A18A41408F456CFF8CF852D867809F416
:102B200063CF8BE251FE80E257FC8DE2B70190E06B
:102B300059CFB70180E390E00E94B915BA9454CF01
:102B40008FEF9FEF81CFFC01059061507040011025
:102B5000D8F7809590958E0F9F1F0895FC016150C6
:102B6000704001900110D8F7809590958E0F9F1FAF
:102B700008950F931F93CF93DF93182F092FEB0125
:102B80008B8181FD09C01FEF0FEF812F902FDF9107
:102B9000CF911F910F91089582FF14C02E813F8124
:102BA0008C819D81281739073CF4E881F981CF0198
:102BB00001969983888310838E819F8101969F83DC
:102BC0008E83E3CFE885F985812F0995892BA1F3C1
:102BD000DACFFA01AA27283051F1203181F1E894A7
:102BE0006F936E7F6E5F7F4F8F4F9F4FAF4FB1E000
:102BF0003ED0B4E03CD0670F781F891F9A1FA11DFB
:102C0000680F791F8A1F911DA11D6A0F711D811DFB
:102C1000911DA11D20D009F468943F912AE0269FC0
:102C200011243019305D3193DEF6CF010895462F1F
:102C30004770405D4193B3E00FD0C9F7F6CF462F00
:102C40004F70405D4A3318F0495D31FD4052419369
:102C500002D0A9F7EACFB4E0A69597958795779526
:102C60006795BA95C9F700976105710508959B01AD
:102C7000AC010A2E06945795479537952795BA9536
:102C8000C9F7620F731F841F951FA01D0895F89444
:022C9000FFCF74
:102C920000000002000000006401000000000100CA
:102CA2000000410109FA000000A90520000000000F
:102CB20000A4D082437BD49243A4D0A443719DAE9E
:102CC200430000C4430000DC430080F64300D0020E
:102CD2004453434445464741422A0001044E6F741F
:102CE20065735B253032755D2D2D2D2D2D2D2D54C7
:102CF200696D653A252D303375736563003E20207A
:102D020020202020202020202020202020202020C1
:102D120020202020202020202000202020312D5380
:102D220061766520202020202020202020322D4482
:082D3200656C6574652000006A
:00000001FF
