:100000000C9446000C9465000C9465000C946500FB
:100010000C9465000C9465000C9465000C946500CC
:100020000C9465000C9465000C9465000C946500BC
:100030000C9465000C94D0010C9465000C94650040
:100040000C9465000C9465000C9465000C9465009C
:100050000C9465000C9465000C9465000C9465008C
:100060000C9465000C9465000C9465000C9465007C
:100070000C9465000C9465000C9465000C9465006C
:100080000C9465000C9465000C94650011241FBE4F
:10009000CFEFD0E4DEBFCDBF11E0A0E0B1E0E6E0FD
:1000A000FEE000E00BBF02C007900D92A432B10742
:1000B000D9F721E0A4E2B1E001C01D92A133B2075B
:1000C000E1F70E946E050C9401070C940000CF9399
:1000D000DF93CDB7DEB781E00E948E000000DF9194
:1000E000CF910895CF93DF93CDB7DEB784E690E04C
:1000F0000E94330188E30E948E0086E00E948E00F9
:100100008FE00E948E0081E00E948E008AE090E0E5
:100110000E9433010000DF91CF910895CF93DF93C8
:100120000F92CDB7DEB789838BE290E0FC0120818E
:100130008BE290E02F7BFC01208385E290E0298117
:10014000FC0120838BE290E0FC0120818BE290E0B7
:100150002068FC01208300008BE290E0FC012081FC
:100160008BE290E02F77FC01208382E090E00E94F8
:10017000330100000F90DF91CF910895CF93DF936B
:100180000F92CDB7DEB789838BE290E0FC0120812E
:100190008BE290E02064FC01208385E290E02981DD
:1001A000FC0120838BE290E0FC0120818BE290E057
:1001B0002068FC01208300008BE290E0FC0120819C
:1001C0008BE290E02F77FC01208381E090E00E9499
:1001D000330100000F90DF91CF910895CF93DF930B
:1001E00000D000D0CDB7DEB78A837C836B830E94BA
:1001F00067008A81898311C0898191E0980F998372
:100200000E941C018B819C819C012F5F3F4F3C838E
:100210002B83FC0180810E94BE008B819C81FC01AC
:100220008081882349F7000000000F900F900F9005
:100230000F90DF91CF910895CF93DF930F92CDB7B9
:10024000DEB789838981813128F4898181580E94B0
:100250008E0004C0898181550E948E0000000F909D
:10026000DF91CF910895CF93DF9300D000D000D0DD
:10027000CDB7DEB79E838D831A82198213C01C828C
:100280001B8206C000008B819C8101969C838B831E
:100290008B819C8187309340ACF389819A81019650
:1002A0009A83898329813A818D819E812817390714
:1002B00034F30000000026960FB6F894DEBF0FBEA0
:1002C000CDBFDF91CF910895CF93DF9300D00F92F0
:1002D000CDB7DEB789837B836A8389818A3031F425
:1002E0008A819B81BC018DE00E94640180EC90E0DA
:1002F000FC018081882F90E080729927892BB1F3CF
:1003000086EC90E02981FC01208380E090E00F9052
:100310000F900F90DF91CF910895CF93DF93CDB7DA
:10032000DEB781E890E02BE0FC01208388E890E0D4
:100330002DE730E0FC01318320838FE690E022E05E
:10034000FC01208384E890E0FC01118210828091FE
:100350000E0190910F01A0911001B09111018093B5
:10036000240190932501A0932601B09327018FE5E6
:1003700090E0FC0120818FE590E02068FC01208363
:100380000000DF91CF910895CF93DF93CDB7DEB713
:1003900081E890E0FC0110820000DF91CF91089588
:1003A0001F920F920FB60F9211240BB60F922F933C
:1003B0003F934F935F936F937F938F939F93AF93ED
:1003C000BF93EF93FF93CF93DF93CDB7DEB78091C9
:1003D000240190912501A0912601B0912701019758
:1003E000A109B1098093240190932501A0932601CE
:1003F000B09327018091240190912501A0912601BD
:10040000B0912701892B8A2B8B2B91F40E948604B3
:1004100080910E0190910F01A0911001B0911101F6
:100420008093240190932501A0932601B093270186
:100430000000DF91CF91FF91EF91BF91AF919F911C
:100440008F917F916F915F914F913F912F910F907D
:100450000BBE0F900FBE0F901F901895CF93DF9398
:1004600000D000D0CDB7DEB769837A838B839C83BD
:1004700089819A81AB81BC8180930E0190930F0199
:10048000A0931001B093110180910E0190910F0182
:10049000A0911001B0911101809324019093250146
:1004A000A0932601B093270100000F900F900F90AA
:1004B0000F90DF91CF910895CF93DF9300D0CDB708
:1004C000DEB79A83898389819A81292F332785EC26
:1004D00090E0FC01208384EC90E02981FC012083E2
:1004E00082EC90E02EE0FC01208381EC90E028E19A
:1004F000FC01208300000F900F90DF91CF910895B1
:10050000CF93DF93CDB7DEB7000080EC90E0FC0125
:1005100080818823D4F70000DF91CF910895CF9395
:10052000DF93CDB7DEB7000080EC90E0FC01808166
:10053000882F90E080749927892BB1F30000DF9118
:10054000CF910895CF93DF930F92CDB7DEB7898314
:10055000000080EC90E0FC018081882F90E08072A8
:100560009927892BB1F386EC90E02981FC01208347
:1005700000000F90DF91CF910895CF93DF93CDB717
:10058000DEB781EC90E0FC0110820000DF91CF919A
:100590000895CF93DF93CDB7DEB7000080EC90E0F5
:1005A000FC0180818823D4F786EC90E0FC018081F7
:1005B000DF91CF9108950F931F93CF93DF9300D0D6
:1005C00000D00F92CDB7DEB79D838C838091280138
:1005D000882309F451C080E10E941C0187E50E9434
:1005E000BE00109228010E94C9028B838B81882350
:1005F00009F442C08B81882F90E061E070E00E9496
:10060000B60590932C0180932B01198211C0209183
:100610002B0130912C018981882F90E08901080FEE
:10062000191F0E94C902F801808389818F5F898325
:1006300099818B81981758F31A821AC08A818F5F2B
:100640000E941C0120912B0130912C018A81882F5E
:1006500090E0820F931FFC018081882F90E0855EDF
:100660009E4FFC0180810E94BE008A818F5F8A8339
:100670009A818B81981710F38C819D810F900F9038
:100680000F900F900F90DF91CF911F910F910895D0
:10069000CF93DF9300D00F92CDB7DEB79B838A83D1
:1006A00080E10E941C018EE40E94BE0080E290E086
:1006B000FC0180818095847089838981882329F059
:1006C0000E94670081E0809328018A819B810F90BE
:1006D0000F900F90DF91CF910895CF93DF9300D0CB
:1006E000CDB7DEB780911201882F90E06CE070E00A
:1006F0000E94B60590932A018093290119821A82DB
:100700004091290150912A018981282F30E0C901A7
:10071000880F991F820F931F880F991F880F991FA9
:10072000840F951F2A81222F30E0FC013183208322
:1007300040911301509114016091290170912A0197
:100740008981282F30E0C901880F991F820F931FDC
:10075000880F991F880F991F9B01280F391FCA0105
:10076000A0E0B0E0F90182839383A483B583409134
:10077000290150912A018981282F30E0C901880F71
:10078000991F820F931F880F991F880F991F480F79
:10079000591F6091290170912A018981282F30E029
:1007A000C901880F991F820F931F880F991F880F07
:1007B000991F9B01280F391FFA0182819381A4811F
:1007C000B581F90186839783A087B187409129017C
:1007D00050912A018981282F30E0C901880F991F83
:1007E000820F931F880F991F880F991F840F951FE1
:1007F0002BED32E0FC013387228789818F5F89836B
:100800004091290150912A018981282F30E0C901A6
:10081000880F991F820F931F880F991F880F991FA8
:10082000840F951F2A81222F30E0FC013183208321
:1008300040911301509114016091290170912A0196
:100840008981282F30E0C901880F991F820F931FDB
:10085000880F991F880F991F9B01280F391FCA0104
:10086000A0E0B0E0F90182839383A483B583409133
:10087000290150912A018981282F30E0C901880F70
:10088000991F820F931F880F991F880F991F480F78
:10089000591F6091290170912A018981282F30E028
:1008A000C901880F991F820F931F880F991F880F06
:1008B000991F9B01280F391FFA0182819381A4811E
:1008C000B581F90186839783A087B187409129017B
:1008D00050912A018981282F30E0C901880F991F82
:1008E000820F931F880F991F880F991F840F951FE0
:1008F00028E433E0FC013387228789818F5F898375
:1009000000000F900F90DF91CF9108950F931F93E8
:10091000CF93DF930F92CDB7DEB71982D1C040914C
:10092000290150912A018981282F30E0C901880FBF
:10093000991F820F931F880F991F880F991F840F8B
:10094000951FDC0116964D915D916D917C911997E3
:10095000E0912901F0912A018981282F30E0C90115
:10096000880F991F820F931F880F991F880F991F57
:100970008E0F9F1FFC0182819381A481B58148174E
:1009800059076A077B0708F45BC040912901509121
:100990002A018981282F30E0C901880F991F820F11
:1009A000931F880F991F880F991F840F951FDC01D3
:1009B0001A964D915C916091290170912A0189816B
:1009C000282F30E0C901880F991F820F931F880FCD
:1009D000991F880F991F860F971FDC01ED91FC91DD
:1009E0006091290170912A018981282F30E0C90185
:1009F000880F991F820F931F880F991F880F991FC7
:100A00008B01080F191FCF01FA010995D8018D93A9
:100A10009C934091290150912A018981282F30E02F
:100A2000C901880F991F820F931F880F991F880F84
:100A3000991F840F951FFC0116821782108611865C
:100A40004091290150912A018981282F30E0C90164
:100A5000880F991F820F931F880F991F880F991F66
:100A6000840F951FDC0116960D911D912D913C91DF
:100A700019978091130190911401AC0160E070E02E
:100A8000A0912901B0912A018981E82FF0E0CF01DE
:100A9000880F991F8E0F9F1F880F991F880F991F0E
:100AA000FD01E80FF91FD901C801840F951FA61F8A
:100AB000B71F86839783A087B18789818F5F8983DA
:100AC000809112019981981708F429CF0000000045
:100AD0000F90DF91CF911F910F910895CF93DF93E6
:100AE00000D000D0CDB7DEB781E290E0FC011082EB
:100AF00082E290E02FEFFC01208384E290E02FEF70
:100B0000FC01208385E290E0FC01108287E290E006
:100B10002FEFFC01208388E290E0FC0110828AE242
:100B200090E02FEFFC0120838BE290E0FC0110822B
:100B300080911301909114019C0140E050E02983C1
:100B40003A834B835C8369817A818B819C810E948B
:100B50002E020E948D018BE090E00E945C020E94B8
:100B600072000E9467000E946D03FFCF0F931F93D6
:100B7000CF93DF93869F8001879F100D969F100D66
:100B80001124C8010E94D205EC01009729F0A801A8
:100B900070E060E00E94FA06CE01DF91CF911F91D4
:100BA0000F9108950F931F93CF93DF939C010297AA
:100BB00010F422E030E0E0912F01F091300190E05C
:100BC00080E0B0E0A0E0309791F4009709F445C0D0
:100BD000821B930B84309105B8F58A819B81611546
:100BE000710569F1FB0193838283FE0111C040818D
:100BF00051810281138142175307F0F042175307C6
:100C000099F4109761F012960C93129713961C9317
:100C10003296CF01DF91CF911F910F9108950093EC
:100C20002F0110933001F4CF009719F0481759079E
:100C300018F4CA01BD01EF01DF01F801C4CF9093A0
:100C4000300180932F01D1CFFE01E80FF91F2193CE
:100C50003193029799838883DCCF80912D01909105
:100C60002E01892B41F480911701909118019093E6
:100C70002E0180932D01809115019091160100970E
:100C800041F48DB79EB74091190150911A01841B10
:100C9000950B40912D0150912E014817590708F0EE
:100CA000B8CF841B950B8217930708F4B2CFB90114
:100CB0006E5F7F4F8617970708F4ABCF640F751FE1
:100CC00070932E0160932D01FA0121933193A1CFEE
:100CD000CF93DF939C010097E9F0FC0132971382D8
:100CE0001282C0912F01D0913001DE0190E080E0AE
:100CF0002097A1F480819181280F391F80912D01C7
:100D000090912E018217930709F067C0F0932E018E
:100D1000E0932D01DF91CF910895DA01AE17BF075F
:100D200008F041C012964D915C911397CD01411589
:100D3000510599F7DC011396FC93EE9312974D91B0
:100D40005D91A40FB51FEA17FB0781F42081318163
:100D50002E5F3F4F240F351FDC0111963C932E93DD
:100D60002281338113963C932E931297B0E0A0E03A
:100D70008A819B810097B1F5FE0181919191E80FE5
:100D8000F91F80912D0190912E018E179F0711F66A
:100D9000109759F51092300110922F01D0932E0127
:100DA000C0932D01B7CFB383A28340815181240F1B
:100DB000351FA217B30771F44E5F5F4F2D913C9121
:100DC0001197420F531F5183408312962D913C91EE
:100DD00033832283009709F0ADCFF0933001E09385
:100DE0002F0198CFDE01EC01C3CF13961C921E9207
:100DF0001297D4CFDC0101C06D9341505040E0F711
:060E00000895F894FFCFF5
:100E06000000000200000000640100000000010074
:100E16000000022C010000310120005343444546E6
:040E260047414231CD
:00000001FF
