:100000000C9446000C9465000C9465000C946500FB
:100010000C9465000C9465000C9465000C946500CC
:100020000C9465000C9465000C9465000C946500BC
:100030000C9465000C94D0010C9465000C94650040
:100040000C9465000C9465000C9465000C9465009C
:100050000C9465000C9465000C9465000C9465008C
:100060000C9465000C9465000C9465000C9465007C
:100070000C9465000C9465000C9465000C9465006C
:100080000C9465000C9465000C94650011241FBE4F
:10009000CFEFD0E4DEBFCDBF11E0A0E0B1E0E8E5F6
:1000A000F1E200E00BBF02C007900D92AE3DB10738
:1000B000D9F725E0AEEDB1E001C01D92AD3DB2072C
:1000C000E1F70E94F80B0C94AA100C940000CF9357
:1000D000DF93CDB7DEB781E00E948E000000DF9194
:1000E000CF910895CF93DF93CDB7DEB784E690E04C
:1000F0000E94330188E30E948E0086E00E948E00F9
:100100008FE00E948E0081E00E948E008AE090E0E5
:100110000E9433010000DF91CF910895CF93DF93C8
:100120000F92CDB7DEB789838BE290E0FC0120818E
:100130008BE290E02F7BFC01208385E290E0298117
:10014000FC0120838BE290E0FC0120818BE290E0B7
:100150002068FC01208300008BE290E0FC012081FC
:100160008BE290E02F77FC01208382E090E00E94F8
:10017000330100000F90DF91CF910895CF93DF936B
:100180000F92CDB7DEB789838BE290E0FC0120812E
:100190008BE290E02064FC01208385E290E02981DD
:1001A000FC0120838BE290E0FC0120818BE290E057
:1001B0002068FC01208300008BE290E0FC0120819C
:1001C0008BE290E02F77FC01208381E090E00E9499
:1001D000330100000F90DF91CF910895CF93DF930B
:1001E00000D000D0CDB7DEB78A837C836B830E94BA
:1001F00067008A81898311C0898191E0980F998372
:100200000E941C018B819C819C012F5F3F4F3C838E
:100210002B83FC0180810E94BE008B819C81FC01AC
:100220008081882349F7000000000F900F900F9005
:100230000F90DF91CF910895CF93DF930F92CDB7B9
:10024000DEB789838981813128F4898181580E94B0
:100250008E0004C0898181550E948E0000000F909D
:10026000DF91CF910895CF93DF9300D000D000D0DD
:10027000CDB7DEB79E838D831A82198213C01C828C
:100280001B8206C000008B819C8101969C838B831E
:100290008B819C8187309340ACF389819A81019650
:1002A0009A83898329813A818D819E812817390714
:1002B00034F30000000026960FB6F894DEBF0FBEA0
:1002C000CDBFDF91CF910895CF93DF9300D00F92F0
:1002D000CDB7DEB789837B836A8389818A3031F425
:1002E0008A819B81BC018DE00E94640180EC90E0DA
:1002F000FC018081882F90E080729927892BB1F3CF
:1003000086EC90E02981FC01208380E090E00F9052
:100310000F900F90DF91CF910895CF93DF93CDB7DA
:10032000DEB781E890E02BE0FC01208388E890E0D4
:100330002DE730E0FC01318320838FE690E022E05E
:10034000FC01208384E890E0FC01118210828091FE
:100350000E0190910F01A0911001B09111018093B5
:10036000DE019093DF01A093E001B093E1018FE5FE
:1003700090E0FC0120818FE590E02068FC01208363
:100380000000DF91CF910895CF93DF93CDB7DEB713
:1003900081E890E0FC0110820000DF91CF91089588
:1003A0001F920F920FB60F9211240BB60F922F933C
:1003B0003F934F935F936F937F938F939F93AF93ED
:1003C000BF93EF93FF93CF93DF93CDB7DEB78091C9
:1003D000DE019091DF01A091E001B091E101019770
:1003E000A109B1098093DE019093DF01A093E001A0
:1003F000B093E1018091DE019091DF01A091E001D5
:10040000B091E101892B8A2B8B2B91F40E94100B68
:1004100080910E0190910F01A0911001B0911101F6
:100420008093DE019093DF01A093E001B093E1019E
:100430000000DF91CF91FF91EF91BF91AF919F911C
:100440008F917F916F915F914F913F912F910F907D
:100450000BBE0F900FBE0F901F901895CF93DF9398
:1004600000D000D0CDB7DEB769837A838B839C83BD
:1004700089819A81AB81BC8180930E0190930F0199
:10048000A0931001B093110180910E0190910F0182
:10049000A0911001B09111018093DE019093DF01D2
:1004A000A093E001B093E10100000F900F900F9036
:1004B0000F90DF91CF910895CF93DF9300D0CDB708
:1004C000DEB79A83898389819A81292F332785EC26
:1004D00090E0FC01208384EC90E02981FC012083E2
:1004E00082EC90E02EE0FC01208381EC90E028E19A
:1004F000FC01208300000F900F90DF91CF910895B1
:10050000CF93DF93CDB7DEB7000080EC90E0FC0125
:1005100080818823D4F70000DF91CF910895CF9395
:10052000DF93CDB7DEB7000080EC90E0FC01808166
:10053000882F90E080749927892BB1F30000DF9118
:10054000CF910895CF93DF930F92CDB7DEB705C05B
:1005500086EC90E0FC018081898380EC90E0FC01D6
:1005600080818823ACF300000F90DF91CF91089534
:10057000CF93DF930F92CDB7DEB78983000080EC75
:1005800090E0FC018081882F90E080729927892B70
:10059000B1F386EC90E02981FC01208300000F90EC
:1005A000DF91CF910895CF93DF93CDB7DEB781EC84
:1005B00090E0FC0110820000DF91CF910895CF936D
:1005C000DF93CDB7DEB7000080EC90E0FC018081C6
:1005D0008823D4F786EC90E0FC018081DF91CF91F5
:1005E0000895CF93DF9300D00F92CDB7DEB79B83F2
:1005F0008A83198229C08981882F90E02A813B81D2
:10060000820F931F0396FC0110828981882F90E04E
:100610002A813B81880F991F820F931F89599F4F11
:10062000FC01118210828981882F90E02A813B8110
:10063000880F991F820F931F815D9E4FFC011182CD
:10064000108289818F5F89838A819B81FC018081EF
:100650009981981780F28A819B81FC0110828A819E
:100660009B81FC011282118200000F900F900F906D
:10067000DF91CF910895CF93DF93CDB7DEB7289761
:100680000FB6F894DEBF0FBECDBF9A8389837C83FB
:100690006B835E834D8338872F8389819A81FC0128
:1006A00080818436F0F589819A81FC018081882FD0
:1006B00090E04B8129813A81820F931F0396FC01C0
:1006C000408389819A81FC018081882F90E0298173
:1006D0003A81880F991F820F931F89599F4F2D814F
:1006E0003E81FC013183208389819A81FC018081D4
:1006F000882F90E029813A81880F991F820F931FDC
:10070000815D9E4F2F813885FC0131832083898153
:100710009A81FC01808121E0280F89819A81FC0166
:100720002083000028960FB6F894DEBF0FBECDBF21
:10073000DF91CF910895CF93DF93CDB7DEB78AE7EE
:1007400090E0FC0120818AE790E0206EFC0120838C
:100750000000DF91CF910895CF93DF930F92CDB733
:10076000DEB789838981882F90E0009719F001977F
:1007700039F00CC08CE790E020ECFC0120830BC02A
:100780008CE790E021ECFC01208305C08CE790E031
:10079000FC011082000084E090E00E943301000020
:1007A0000F90DF91CF910895CF93DF9300D000D0C9
:1007B0000F92CDB7DEB79A8389836B835D834C83B9
:1007C00089819A812C813D81B9010E94CE0D898158
:1007D0009A812B81FC01258F00000F900F900F90C4
:1007E0000F900F90DF91CF910895CF93DF9300D0BA
:1007F00000D0CDB7DEB79A8389836B834C838B811E
:100800008D3150F48B81882F90E04C8129813A8181
:10081000820F931FFC01408300000F900F900F90F8
:100820000F90DF91CF910895CF93DF9300D000D048
:10083000CDB7DEB79A8389836B834C832B81898103
:100840009A81FC01228389819A81FC018281882F0F
:1008500090E06EE170E00E94830C9C0189819A8196
:10086000FC01318320839C818B8198172CF42C818F
:1008700089819A81FC01238300000F900F900F90D3
:100880000F90DF91CF910895CF93DF9300D0CDB734
:10089000DEB79A83898389819A81FC018381882FBD
:1008A00090E0AC014F5F5F4F89819A81FC018281AA
:1008B000282F30E0CA01B9010E944C0C282F8981F1
:1008C0009A81FC01238300000F900F90DF91CF915C
:1008D0000895CF93DF9300D0CDB7DEB79A83898395
:1008E00089819A81FC018381882339F089819A81E9
:1008F000FC0183812FEF280F06C089819A81FC01BA
:1009000082812FEF280F89819A81FC0123830000C7
:100910000F900F90DF91CF910895CF93DF9300D088
:100920000F92CDB7DEB79A8389836B8389819A81D1
:10093000FC0182819B81981788F489819A81FC014E
:10094000208131818B81482F50E06EE1649FC0018E
:10095000659F900D1124820F931F02C080E090E0EC
:100960000F900F900F90DF91CF910895CF93DF9369
:1009700000D000D00F92CDB7DEB79A8389836B8306
:100980005D834C8389819A81FC01208131818B8137
:10099000482F50E06EE1649FC001659F900D1124C7
:1009A000820F931F9C018C819D81BC01C9010E9413
:1009B000CE0D00000F900F900F900F900F90DF91D1
:1009C000CF910895CF93DF9300D0CDB7DEB79A8350
:1009D000898389819A81FC012081318189819A8171
:1009E000FC018381482F50E06EE1649FC001659F48
:1009F000900D1124820F931F0F900F90DF91CF91D4
:100A00000895CF93DF9300D000D0CDB7DEB79C839D
:100A10008B838091E201882301F11092E2010E9410
:100A2000A2021A8219820EC00E94DF02282F898139
:100A30009A818A519E4FFC01208389819A81019677
:100A40009A83898389819A81873F914068F381E005
:100A50008093E30182E08093E0038B819C810F907F
:100A60000F900F900F90DF91CF910895CF93DF9368
:100A700000D0CDB7DEB79A8389838091E3018823C4
:100A8000B1F11092E30182EE93E00E94F10284E65C
:100A9000E9EEF1E0A5EEB3E001900D928A95E1F761
:100AA0008091E6018093E2038091E801882F90E035
:100AB0009093E4038093E3038091E3039091E40334
:100AC000982F88279093E4038093E3032091E30316
:100AD0003091E4038091E701882F90E0822B932BE3
:100AE0009093E4038093E30381E08093170189816D
:100AF0009A810F900F90DF91CF910895CF93DF935C
:100B000000D000D0CDB7DEB79C838B8381E00E94FC
:100B1000AC0388E790E0FC01808191819A8389830E
:100B200089819A818835924030F08091E10382601A
:100B30008093E10315C089819A81853F914030F40B
:100B40008091E10381608093E1030AC08091E10319
:100B50008E7F8093E1038091E1038D7F8093E10399
:100B60008B819C810F900F900F900F90DF91CF9110
:100B70000895CF93DF9300D000D0CDB7DEB79C832C
:100B80008B8380E00E94AC0388E790E0FC018081C9
:100B900091819A83898389819A818835924030F046
:100BA0008091E10384608093E10315C089819A817B
:100BB000853F914030F48091E10388608093E103A8
:100BC0000AC08091E1038B7F8093E1038091E10370
:100BD000877F8093E1038B819C810F900F900F9012
:100BE0000F90DF91CF910895CF93DF9300D00F92B4
:100BF000CDB7DEB79B838A8380E290E0FC018081E1
:100C00008095847089838981882331F08091E10304
:100C100080618093E10305C08091E1038F7E809322
:100C2000E1038A819B810F900F900F90DF91CF910C
:100C30000895CF93DF9300D00F92CDB7DEB79B839B
:100C40008A838091E103882F90E081709927892B16
:100C500041F08DED93E00E94690481E080931701DB
:100C60000FC08091E103882F90E082709927892B33
:100C700039F08DED93E00E94440481E080931701E8
:100C80008091E003882319F481E08093E201809150
:100C90001701882309F4B0C08091E003882F90E009
:100CA0008330910509F4AAC0843091050CF0A8C0E6
:100CB0008130910509F4A6C0029709F0A1C0809186
:100CC000E3039091E403969587959695879596957D
:100CD00087959C01A5ECB0E20E94600CFC01F295A6
:100CE000E295EF70EF27FF70EF278091E203682F06
:100CF00070E02091DD033091DE038091E003482F06
:100D000050E0AEE1A49FC001A59F900D1124820F79
:100D1000931F9C018F2F8F938E2F8F93872F8F93ED
:100D2000862F8F938CE491E0892F8F938CE491E050
:100D30008F93832F8F93822F8F930E94D50D8DB722
:100D40009EB708960FB6F894DEBF0FBECDBF1982CE
:100D50004EC08981082E000C990B8B519C4FDC01F1
:100D60008C918823C1F489817AE0780F2091DD038A
:100D70003091DE038091E003482F50E06EE1649FE4
:100D8000C001659F900D1124820F931F40E2672FD1
:100D90000E94F50329C0209112013091130189812D
:100DA000082E000C990B8B519C4FFC018081882FE1
:100DB00090E0820F931FDC01EC9189817AE0780F3B
:100DC0002091DD033091DE038091E003482F50E055
:100DD0006EE1649FC001659F900D1124820F931FE7
:100DE0004E2F672F0E94F50389818F5F8983898148
:100DF00085300CF4AECF07C0000005C0000003C072
:100E0000000001C000008A819B810F900F900F901D
:100E1000DF91CF910895CF93DF9300D0CDB7DEB7A8
:100E20009A83898380911701882351F110921701C9
:100E30002091DD033091DE038091E003482F50E0E4
:100E40006EE1649FC001659F900D1124820F931F76
:100E5000BC0181E00E94EE002091DD033091DE03B1
:100E60008091E003482F50E06EE1649FC001659FD0
:100E7000900D1124820F931FFC01858D0E941C018F
:100E800089819A810F900F90DF91CF910895CF9330
:100E9000DF93CDB7DEB78091DD039091DE034BE6A3
:100EA00051E060E20E94D4038091DD039091DE0363
:100EB0004E9648E851E060E20E94D4038091DD0341
:100EC0009091DE03CC9645EA51E060E20E94D403A3
:100ED0008091DD039091DE03865A9F4F40EC51E0F4
:100EE00060E20E94D4030000DF91CF910895CF9378
:100EF000DF9300D0CDB7DEB780911401882F90E04A
:100F00006CE070E00E94830C9093E5018093E40113
:100F100019821A824091E4015091E5018981282FBC
:100F200030E0C901880F991F820F931F880F991F06
:100F3000880F991F840F951F2A81222F30E0FC0112
:100F40003183208340911501509116016091E40195
:100F50007091E5018981282F30E0C901880F991F20
:100F6000820F931F880F991F880F991F9B01280FCD
:100F7000391FCA01A0E0B0E0F90182839383A48302
:100F8000B5834091E4015091E5018981282F30E03B
:100F9000C901880F991F820F931F880F991F880F0F
:100FA000991F480F591F6091E4017091E5018981F3
:100FB000282F30E0C901880F991F820F931F880FD7
:100FC000991F880F991F9B01280F391FFA018281F1
:100FD0009381A481B581F90186839783A087B18726
:100FE0004091E4015091E5018981282F30E0C90149
:100FF000880F991F820F931F880F991F880F991FC1
:10100000840F951F21E035E0FC0133872287898119
:101010008F5F89834091E4015091E5018981282FF8
:1010200030E0C901880F991F820F931F880F991F05
:10103000880F991F840F951F2A81222F30E0FC0111
:101040003183208340911501509116016091E40194
:101050007091E5018981282F30E0C901880F991F1F
:10106000820F931F880F991F880F991F9B01280FCC
:10107000391FCA01A0E0B0E0F90182839383A48301
:10108000B5834091E4015091E5018981282F30E03A
:10109000C901880F991F820F931F880F991F880F0E
:1010A000991F480F591F6091E4017091E5018981F2
:1010B000282F30E0C901880F991F820F931F880FD6
:1010C000991F880F991F9B01280F391FFA018281F0
:1010D0009381A481B581F90186839783A087B18725
:1010E0004091E4015091E5018981282F30E0C90148
:1010F000880F991F820F931F880F991F880F991FC0
:10110000840F951F26E335E0FC0133872287898110
:101110008F5F89834091E4015091E5018981282FF7
:1011200030E0C901880F991F820F931F880F991F04
:10113000880F991F840F951F2A81222F30E0FC0110
:101140003183208340911501509116016091E40193
:101150007091E5018981282F30E0C901880F991F1E
:10116000820F931F880F991F880F991F9B01280FCB
:10117000391FCA01A0E0B0E0F90182839383A48300
:10118000B5834091E4015091E5018981282F30E039
:10119000C901880F991F820F931F880F991F880F0D
:1011A000991F480F591F6091E4017091E5018981F1
:1011B000282F30E0C901880F991F820F931F880FD5
:1011C000991F880F991F9B01280F391FFA018281EF
:1011D0009381A481B581F90186839783A087B18724
:1011E0004091E4015091E5018981282F30E0C90147
:1011F000880F991F820F931F880F991F880F991FBF
:10120000840F951F2EE735E0FC0133872287898103
:101210008F5F89834091E4015091E5018981282FF6
:1012200030E0C901880F991F820F931F880F991F03
:10123000880F991F840F951F2A81222F30E0FC010F
:101240003183208340911501509116016091E40192
:101250007091E5018981282F30E0C901880F991F1D
:10126000820F931F880F991F880F991F9B01280FCA
:10127000391FCA01A0E0B0E0F90182839383A483FF
:10128000B5834091E4015091E5018981282F30E038
:10129000C901880F991F820F931F880F991F880F0C
:1012A000991F480F591F6091E4017091E5018981F0
:1012B000282F30E0C901880F991F820F931F880FD4
:1012C000991F880F991F9B01280F391FFA018281EE
:1012D0009381A481B581F90186839783A087B18723
:1012E0004091E4015091E5018981282F30E0C90146
:1012F000880F991F820F931F880F991F880F991FBE
:10130000840F951F29EB35E0FC0133872287898103
:101310008F5F89834091E4015091E5018981282FF5
:1013200030E0C901880F991F820F931F880F991F02
:10133000880F991F840F951F2A81222F30E0FC010E
:101340003183208340911501509116016091E40191
:101350007091E5018981282F30E0C901880F991F1C
:10136000820F931F880F991F880F991F9B01280FC9
:10137000391FCA01A0E0B0E0F90182839383A483FE
:10138000B5834091E4015091E5018981282F30E037
:10139000C901880F991F820F931F880F991F880F0B
:1013A000991F480F591F6091E4017091E5018981EF
:1013B000282F30E0C901880F991F820F931F880FD3
:1013C000991F880F991F9B01280F391FFA018281ED
:1013D0009381A481B581F90186839783A087B18722
:1013E0004091E4015091E5018981282F30E0C90145
:1013F000880F991F820F931F880F991F880F991FBD
:10140000840F951F24EF35E0FC0133872287898103
:101410008F5F89834091E4015091E5018981282FF4
:1014200030E0C901880F991F820F931F880F991F01
:10143000880F991F840F951F2A81222F30E0FC010D
:101440003183208340911501509116016091E40190
:101450007091E5018981282F30E0C901880F991F1B
:10146000820F931F880F991F880F991F9B01280FC8
:10147000391FCA01A0E0B0E0F90182839383A483FD
:10148000B5834091E4015091E5018981282F30E036
:10149000C901880F991F820F931F880F991F880F0A
:1014A000991F480F591F6091E4017091E5018981EE
:1014B000282F30E0C901880F991F820F931F880FD2
:1014C000991F880F991F9B01280F391FFA018281EC
:1014D0009381A481B581F90186839783A087B18721
:1014E0004091E4015091E5018981282F30E0C90144
:1014F000880F991F820F931F880F991F880F991FBC
:10150000840F951F29E136E0FC013387228789810A
:101510008F5F89834091E4015091E5018981282FF3
:1015200030E0C901880F991F820F931F880F991F00
:10153000880F991F840F951F2A81222F30E0FC010C
:101540003183208340911501509116016091E4018F
:101550007091E5018981282F30E0C901880F991F1A
:10156000820F931F880F991F880F991F9B01280FC7
:10157000391FCA01A0E0B0E0F90182839383A483FC
:10158000B5834091E4015091E5018981282F30E035
:10159000C901880F991F820F931F880F991F880F09
:1015A000991F480F591F6091E4017091E5018981ED
:1015B000282F30E0C901880F991F820F931F880FD1
:1015C000991F880F991F9B01280F391FFA018281EB
:1015D0009381A481B581F90186839783A087B18720
:1015E0004091E4015091E5018981282F30E0C90143
:1015F000880F991F820F931F880F991F880F991FBB
:10160000840F951F2BE037E0FC0133872287898107
:101610008F5F898300000F900F90DF91CF91089525
:101620000F931F93CF93DF930F92CDB7DEB719823D
:10163000D1C04091E4015091E5018981282F30E02B
:10164000C901880F991F820F931F880F991F880F58
:10165000991F840F951FDC0116964D915D916D9138
:101660007C911997E091E401F091E5018981282F9F
:1016700030E0C901880F991F820F931F880F991FAF
:10168000880F991F8E0F9F1FFC0182819381A48177
:10169000B581481759076A077B0708F45BC040917A
:1016A000E4015091E5018981282F30E0C901880FBC
:1016B000991F820F931F880F991F880F991F840FFE
:1016C000951FDC011A964D915C916091E401709137
:1016D000E5018981282F30E0C901880F991F820F09
:1016E000931F880F991F880F991F860F971FDC0182
:1016F000ED91FC916091E4017091E5018981282FC1
:1017000030E0C901880F991F820F931F880F991F1E
:10171000880F991F8B01080F191FCF01FA01099536
:10172000D8018D939C934091E4015091E50189810A
:10173000282F30E0C901880F991F820F931F880F4F
:10174000991F880F991F840F951FFC01168217821D
:10175000108611864091E4015091E5018981282F7E
:1017600030E0C901880F991F820F931F880F991FBE
:10177000880F991F840F951FDC0116960D911D91FE
:101780002D913C9119978091150190911601AC0112
:1017900060E070E0A091E401B091E5018981E82F5B
:1017A000F0E0CF01880F991F8E0F9F1F880F991FA0
:1017B000880F991FFD01E80FF91FD901C801840F97
:1017C000951FA61FB71F86839783A087B18789813E
:1017D0008F5F8983809114019981981708F429CF2C
:1017E000000000000F90DF91CF911F910F9108959D
:1017F000CF93DF9300D000D0CDB7DEB781E290E089
:10180000FC01108282E290E02FEFFC01208384E251
:1018100090E02FEFFC01208385E290E0FC01108234
:1018200087E290E02FEFFC01208388E290E0FC014A
:1018300010828AE290E02FEFFC0120838BE290E09F
:10184000FC01108280911501909116019C0140E0ED
:1018500050E029833A834B835C8369817A818B8151
:101860009C810E942E020E948D018BE090E00E94DC
:101870005C0282EE93E00E94F1020E9472000E94DC
:101880009B0342E064E08DED93E00E9414040E940B
:1018900047070E947707FFCF97FB072E16F40094A7
:1018A00007D077FD09D00E946F0C07FC05D03EF4ED
:1018B000909581959F4F0895709561957F4F0895FC
:1018C000A29FB001B39FC001A39F700D811D112481
:1018D000911DB29F700D811D1124911D0895AA1BA9
:1018E000BB1B51E107C0AA1FBB1FA617B70710F00B
:1018F000A61BB70B881F991F5A95A9F7809590953D
:10190000BC01CD0108950F931F93CF93DF93869F62
:101910008001879F100D969F100D1124C8010E9411
:101920009F0CEC01009729F0A80170E060E00E9494
:10193000C70DCE01DF91CF911F910F9108950F93A5
:101940001F93CF93DF939C01029710F422E030E0C5
:10195000E091DB05F091DC0590E080E0B0E0A0E0F4
:10196000309791F4009709F445C0821B930B8430A3
:101970009105B8F58A819B816115710569F1FB01BB
:1019800093838283FE0111C04081518102811381C2
:1019900042175307F0F04217530799F4109761F07C
:1019A00012960C93129713961C933296CF01DF91E7
:1019B000CF911F910F9108950093DB051093DC05E3
:1019C000F4CF009719F04817590718F4CA01BD0160
:1019D000EF01DF01F801C4CF9093DC058093DB05B4
:1019E000D1CFFE01E80FF91F21933193029799831C
:1019F0008883DCCF8091D9059091DA05892B41F459
:101A000080911A0190911B019093DA058093D9057A
:101A10008091180190911901009741F48DB79EB7FC
:101A200040911C0150911D01841B950B4091D905DB
:101A30005091DA054817590708F0B8CF841B950B69
:101A40008217930708F4B2CFB9016E5F7F4F8617F4
:101A5000970708F4ABCF640F751F7093DA05609396
:101A6000D905FA0121933193A1CFCF93DF939C0144
:101A70000097E9F0FC01329713821282C091DB05D6
:101A8000D091DC05DE0190E080E02097A1F4808118
:101A90009181280F391F8091D9059091DA0582171D
:101AA000930709F067C0F093DA05E093D905DF9159
:101AB000CF910895DA01AE17BF0708F041C0129622
:101AC0004D915C911397CD014115510599F7DC01BA
:101AD0001396FC93EE9312974D915D91A40FB51F51
:101AE000EA17FB0781F4208131812E5F3F4F240FDD
:101AF000351FDC0111963C932E932281338113967E
:101B00003C932E931297B0E0A0E08A819B810097CE
:101B1000B1F5FE0181919191E80FF91F8091D905EE
:101B20009091DA058E179F0711F6109759F51092CC
:101B3000DC051092DB05D093DA05C093D905B7CF49
:101B4000B383A28340815181240F351FA217B307AD
:101B500071F44E5F5F4F2D913C911197420F531FCF
:101B60005183408312962D913C91338322830097B9
:101B700009F0ADCFF093DC05E093DB0598CFDE01F3
:101B8000EC01C3CF13961C921E921297D4CFDC01A6
:101B900001C06D9341505040E0F70895FB01DC0116
:101BA00001900D920020E1F708950F931F93CF93BA
:101BB000DF93CDB7DEB72E970FB6F894DEBF0FBE1A
:101BC000CDBF0D891E8986E08C831A8309838FEF30
:101BD0009FE79E838D83AE01475E5F4F6F89788D4F
:101BE000CE0101960E94050E2F813885020F131F2A
:101BF000F80110822E960FB6F894DEBF0FBECDBF4F
:101C0000DF91CF911F910F9108952F923F924F92A4
:101C10005F926F927F928F929F92AF92BF92CF927C
:101C2000DF92EF92FF920F931F93CF93DF93CDB785
:101C3000DEB72F970FB6F894DEBF0FBECDBF7C0185
:101C40003B018A01DC0117961C921E92169713968F
:101C50008C9181FFD8C19AE0292EFE0131964F0167
:101C6000D70113969C91F30193FD859193FF819188
:101C70003F01882309F448C1853239F493FD8591E9
:101C800093FF81913F01853229F4B70190E00E94D2
:101C90001C10E6CFB12C412C512CBFE1B51538F00A
:101CA0008B3209F188F4803201F1833221F157FC43
:101CB0003AC020ED280F2A3040F556FE1FC0B29CD6
:101CC000200D1124B22E06C08D3291F0803379F7A9
:101CD000689450F8F30193FD859193FF81913F0142
:101CE0008111DBCF20C0689451F8689452F8F2CF8C
:101CF000689453F8EFCF689454F8ECCF429C200DD1
:101D00001124422E689455F8E5CF8E3229F456FC02
:101D1000FBC0689456F8DECF8C3619F4689457F8F7
:101D2000D9CF8836B9F2982F9F7D95549330C0F063
:101D30008336A1F18337C1F1833509F05BC0D80147
:101D4000CD90DD908D016B2D70E056FC02C06FEFE1
:101D50007FEFC6010E9406105C01689457F80AC024
:101D60000C5F1F4FEFE3E983AA24A394B12C640115
:101D7000E89457F853FC04C04A141B0409F018F502
:101D8000342CA114B10431F5332009F469CFB70123
:101D900080E290E00E941C103A94F6CFD8018C911A
:101DA00089830E5F1F4FE0CFF801C190D1908F0162
:101DB0006B2D70E056FC02C06FEF7FEFC6010E94F2
:101DC00011105C01D5CFB70180E290E00E941C1099
:101DD0004A94D2CFF60157FC859157FE81916F014D
:101DE000B70190E00E941C1031103A94B1E0AB1A98
:101DF000B108C7CF843619F0893609F074C0F801EC
:101E000057FE6AC061917191819191918F01E52D89
:101E1000EF76DE2E97FF09C09095809570956195BD
:101E20007F4F8F4F9F4F6894D7F82AE030E0A4018E
:101E30000E944C10C82EC818AC2C5D2CD6FE0CC0CD
:101E4000E89450F8CB1440F4D4FE05C0D2FC03C093
:101E50005D2D5E7E552EAB2C54FEADC0FE01EC0D0B
:101E6000F11D8081803309F09FC0652D697E562E5B
:101E7000752D7870372E53FCADC050FEA7C0BC2C1A
:101E8000A41418F44C0CB42CBA1854FEA9C0B70111
:101E900080E390E00E941C1052FE09C088E790E0A9
:101EA00051FE02C088E590E0B7010E941C10CB14DF
:101EB00008F4A2C0CA94D12C8FEFC81AD80AC80C53
:101EC000D91CD6018E916D01B70190E00E941C10C3
:101ED0008C149D04B1F758CF61917191072E000CBD
:101EE000880B990B93CFD52CE894D4F82AE030E0F6
:101EF0008537E1F1F52DF97FDF2E803751F100F5BF
:101F0000883551F18F3681F1F701868197812F96BF
:101F10000FB6F894DEBF0FBECDBFDF91CF911F91FA
:101F20000F91FF90EF90DF90CF90BF90AF909F9078
:101F30008F907F906F905F904F903F902F9008957B
:101F4000883711F7D4FE02C06894D2F820E130E05F
:101F50000DC06894D4F8F6CF54FE03C02F2F26602E
:101F6000D22E20E132E002C028E030E0F801D7FEB6
:101F700015C041915191619171914C875D876E8738
:101F80007F878F01A4016C857D858E859F850E944A
:101F90004C10C82EC818E894D7F84ECF8191919173
:101FA000AC0170E060E0E9CF52FC02C0A39460CFC6
:101FB000A394A3945DCF852D867809F459CFF6CFED
:101FC000B70180E290E00E941C10A394A414C0F317
:101FD000312C5BCF342C3A18A41408F456CFF8CF28
:101FE000852D867809F463CF8BE251FE80E257FCA1
:101FF0008DE2B70190E059CFB70180E390E00E94F5
:102000001C10BA9454CF8FEF9FEF81CFFC01059045
:10201000615070400110D8F7809590958E0F9F1FEA
:102020000895FC016150704001900110D8F780952F
:1020300090958E0F9F1F08950F931F93CF93DF935B
:10204000182F092FEB018B8181FD09C01FEF0FEFC6
:10205000812F902FDF91CF911F910F91089582FFD3
:1020600014C02E813F818C819D81281739073CF453
:10207000E881F981CF0101969983888310838E814D
:102080009F8101969F838E83E3CFE885F985812F19
:102090000995892BA1F3DACFFA01AA27283051F14B
:1020A000203181F1E8946F936E7F6E5F7F4F8F4F89
:1020B0009F4FAF4FB1E03ED0B4E03CD0670F781FE8
:1020C000891F9A1FA11D680F791F8A1F911DA11DCD
:1020D0006A0F711D811D911DA11D20D009F4689406
:1020E0003F912AE0269F11243019305D3193DEF6AE
:1020F000CF010895462F4770405D4193B3E00FD064
:10210000C9F7F6CF462F4F70405D4A3318F0495D4E
:1021100031FD4052419302D0A9F7EACFB4E0A69531
:102120009795879577956795BA95C9F70097610553
:10213000710508959B01AC010A2E069457954795A9
:1021400037952795BA95C9F7620F731F841F951F9E
:08215000A01D0895F894FFCFD3
:10215800000000020000000064010000000001000F
:102168000000420107FA00010000DD052000000020
:102178000000A4D082437BD49243A4D0A443719D91
:10218800AE430000C4430000DC430080F64300D0A7
:10219800024453434445464741422A004E6F746502
:1021A800735B253032755D3A41424743443E54697A
:1021B8006D653A252D33757365630020202E2E2E0C
:1021C800526563656976696E67202020202020208B
:1021D8002020202020202000313233343536373873
:1021E800394142434445464748494A4B4C4D4E4F76
:1021F8005051523E004E6F7465735B25755D3A41D0
:10220800424743443E54696D653A257573656300DA
:102218002020506C6179202044656C65746520200D
:0E222800202053746F702020736176650000D3
:00000001FF
