:100000000C9446000C9465000C9465000C946500FB
:100010000C9465000C9465000C9465000C946500CC
:100020000C9465000C9465000C9465000C946500BC
:100030000C9465000C94D0010C9465000C94650040
:100040000C9465000C9465000C9465000C9465009C
:100050000C9465000C9465000C9465000C9465008C
:100060000C9465000C9465000C9465000C9465007C
:100070000C9465000C9465000C9465000C9465006C
:100080000C9465000C9465000C94650011241FBE4F
:10009000CFEFD0E4DEBFCDBF11E0A0E0B1E0E2EEF3
:1000A000FFE000E00BBF02C007900D92A237B1073E
:1000B000D9F721E0A2E7B1E001C01D92A13EB2074D
:1000C000E1F70E945C060C94EF070C940000CF93BC
:1000D000DF93CDB7DEB781E00E948E000000DF9194
:1000E000CF910895CF93DF93CDB7DEB784E690E04C
:1000F0000E94330188E30E948E0086E00E948E00F9
:100100008FE00E948E0081E00E948E008AE090E0E5
:100110000E9433010000DF91CF910895CF93DF93C8
:100120000F92CDB7DEB789838BE290E0FC0120818E
:100130008BE290E02F7BFC01208385E290E0298117
:10014000FC0120838BE290E0FC0120818BE290E0B7
:100150002068FC01208300008BE290E0FC012081FC
:100160008BE290E02F77FC01208382E090E00E94F8
:10017000330100000F90DF91CF910895CF93DF936B
:100180000F92CDB7DEB789838BE290E0FC0120812E
:100190008BE290E02064FC01208385E290E02981DD
:1001A000FC0120838BE290E0FC0120818BE290E057
:1001B0002068FC01208300008BE290E0FC0120819C
:1001C0008BE290E02F77FC01208381E090E00E9499
:1001D000330100000F90DF91CF910895CF93DF930B
:1001E00000D000D0CDB7DEB78A837C836B830E94BA
:1001F00067008A81898311C0898191E0980F998372
:100200000E941C018B819C819C012F5F3F4F3C838E
:100210002B83FC0180810E94BE008B819C81FC01AC
:100220008081882349F7000000000F900F900F9005
:100230000F90DF91CF910895CF93DF930F92CDB7B9
:10024000DEB789838981813128F4898181580E94B0
:100250008E0004C0898181550E948E0000000F909D
:10026000DF91CF910895CF93DF9300D000D000D0DD
:10027000CDB7DEB79E838D831A82198213C01C828C
:100280001B8206C000008B819C8101969C838B831E
:100290008B819C8187309340ACF389819A81019650
:1002A0009A83898329813A818D819E812817390714
:1002B00034F30000000026960FB6F894DEBF0FBEA0
:1002C000CDBFDF91CF910895CF93DF9300D00F92F0
:1002D000CDB7DEB789837B836A8389818A3031F425
:1002E0008A819B81BC018DE00E94640180EC90E0DA
:1002F000FC018081882F90E080729927892BB1F3CF
:1003000086EC90E02981FC01208380E090E00F9052
:100310000F900F90DF91CF910895CF93DF93CDB7DA
:10032000DEB781E890E02BE0FC01208388E890E0D4
:100330002DE730E0FC01318320838FE690E022E05E
:10034000FC01208384E890E0FC01118210828091FE
:100350000E0190910F01A0911001B09111018093B5
:10036000720190937301A0937401B09375018FE5AE
:1003700090E0FC0120818FE590E02068FC01208363
:100380000000DF91CF910895CF93DF93CDB7DEB713
:1003900081E890E0FC0110820000DF91CF91089588
:1003A0001F920F920FB60F9211240BB60F922F933C
:1003B0003F934F935F936F937F938F939F93AF93ED
:1003C000BF93EF93FF93CF93DF93CDB7DEB78091C9
:1003D000720190917301A0917401B0917501019720
:1003E000A109B1098093720190937301A0937401E4
:1003F000B09375018091720190917301A091740185
:10040000B0917501892B8A2B8B2B91F40E94740576
:1004100080910E0190910F01A0911001B0911101F6
:100420008093720190937301A0937401B09375014E
:100430000000DF91CF91FF91EF91BF91AF919F911C
:100440008F917F916F915F914F913F912F910F907D
:100450000BBE0F900FBE0F901F901895CF93DF9398
:1004600000D000D0CDB7DEB769837A838B839C83BD
:1004700089819A81AB81BC8180930E0190930F0199
:10048000A0931001B093110180910E0190910F0182
:10049000A0911001B09111018093720190937301AA
:1004A000A0937401B093750100000F900F900F900E
:1004B0000F90DF91CF910895CF93DF9300D0CDB708
:1004C000DEB79A83898389819A81292F332785EC26
:1004D00090E0FC01208384EC90E02981FC012083E2
:1004E00082EC90E02EE0FC01208381EC90E028E19A
:1004F000FC01208300000F900F90DF91CF910895B1
:10050000CF93DF93CDB7DEB7000080EC90E0FC0125
:1005100080818823D4F70000DF91CF910895CF9395
:10052000DF93CDB7DEB7000080EC90E0FC01808166
:10053000882F90E080749927892BB1F30000DF9118
:10054000CF910895CF93DF930F92CDB7DEB705C05B
:1005500086EC90E0FC018081898380EC90E0FC01D6
:1005600080818823ACF300000F90DF91CF91089534
:10057000CF93DF930F92CDB7DEB78983000080EC75
:1005800090E0FC018081882F90E080729927892B70
:10059000B1F386EC90E02981FC01208300000F90EC
:1005A000DF91CF910895CF93DF93CDB7DEB781EC84
:1005B00090E0FC0110820000DF91CF910895CF936D
:1005C000DF93CDB7DEB7000080EC90E0FC018081C6
:1005D0008823D4F786EC90E0FC018081DF91CF91F5
:1005E0000895CF93DF9300D00F92CDB7DEB79B83F2
:1005F0008A83198229C08981882F90E02A813B81D2
:10060000820F931F0396FC0110828981882F90E04E
:100610002A813B81880F991F820F931F89599F4F11
:10062000FC01118210828981882F90E02A813B8110
:10063000880F991F820F931F815D9E4FFC011182CD
:10064000108289818F5F89838A819B81FC018081EF
:100650009981981780F28A819B81FC0110828A819E
:100660009B81FC011282118200000F900F900F906D
:10067000DF91CF910895CF93DF93CDB7DEB7289761
:100680000FB6F894DEBF0FBECDBF9A8389837C83FB
:100690006B835E834D8338872F8389819A81FC0128
:1006A00080818436F0F589819A81FC018081882FD0
:1006B00090E04B8129813A81820F931F0396FC01C0
:1006C000408389819A81FC018081882F90E0298173
:1006D0003A81880F991F820F931F89599F4F2D814F
:1006E0003E81FC013183208389819A81FC018081D4
:1006F000882F90E029813A81880F991F820F931FDC
:10070000815D9E4F2F813885FC0131832083898153
:100710009A81FC01808121E0280F89819A81FC0166
:100720002083000028960FB6F894DEBF0FBECDBF21
:10073000DF91CF9108950F931F93CF93DF9300D054
:100740000F92CDB7DEB79B838A8380917601882391
:1007500009F454C06BE471E081E10E94EE00109254
:1007600076010E94A202198217C08981082F10E029
:100770000E94DF02282FC80187589E4FFC0120836A
:100780008981882F90E087589E4FFC0180818823C3
:1007900039F089818F5F89838981843630F301C084
:1007A000000068E571E081E10E94EE0019821AC044
:1007B00089818F5F0E941C012091150130911601E3
:1007C0008981882F90E087589E4FFC018081882F77
:1007D00090E0820F931FFC0180810E94BE008981FE
:1007E0008F5F89838981813148F48981882F90E0E6
:1007F00087589E4FFC0180818823D1F68A819B8196
:100800000F900F900F90DF91CF911F910F9108954E
:10081000CF93DF9300D00F92CDB7DEB79B838A834F
:1008200080E290E0FC0180818095847089838A81D8
:100830009B81039789F18A819B810497A4F58A8122
:100840009B810297E1F08A819B81039764F58A81FD
:100850009B81892B29F08A819B81019731F023C0EC
:1008600081E090E09B838A831EC064E671E081E1B1
:100870000E94EE0082E090E09B838A8314C089810D
:10088000882381F00E94670081E08093760183E0F5
:1008900090E09B838A8306C08981882321F01B8294
:1008A0001A8201C000008A819B810F900F900F90E7
:1008B000DF91CF910895CF93DF9300D0CDB7DEB70E
:1008C00080911201882F90E06CE070E00E94A406F5
:1008D000909378018093770119821A824091770171
:1008E000509178018981282F30E0C901880F991F24
:1008F000820F931F880F991F880F991F840F951FD0
:100900002A81222F30E0FC013183208340911301A2
:100910005091140160917701709178018981282F9D
:1009200030E0C901880F991F820F931F880F991F0C
:10093000880F991F9B01280F391FCA01A0E0B0E062
:10094000F90182839383A483B58340917701509109
:1009500078018981282F30E0C901880F991F820F03
:10096000931F880F991F880F991F480F591F609177
:100970007701709178018981282F30E0C901880FB3
:10098000991F820F931F880F991F880F991F9B0132
:10099000280F391FFA0182819381A481B581F90161
:1009A00086839783A087B187409177015091780122
:1009B0008981282F30E0C901880F991F820F931F6A
:1009C000880F991F880F991F840F951F2BE933E01B
:1009D000FC013387228789818F5F8983409177016A
:1009E000509178018981282F30E0C901880F991F23
:1009F000820F931F880F991F880F991F840F951FCF
:100A00002A81222F30E0FC013183208340911301A1
:100A10005091140160917701709178018981282F9C
:100A200030E0C901880F991F820F931F880F991F0B
:100A3000880F991F9B01280F391FCA01A0E0B0E061
:100A4000F90182839383A483B58340917701509108
:100A500078018981282F30E0C901880F991F820F02
:100A6000931F880F991F880F991F480F591F609176
:100A70007701709178018981282F30E0C901880FB2
:100A8000991F820F931F880F991F880F991F9B0131
:100A9000280F391FFA0182819381A481B581F90160
:100AA00086839783A087B187409177015091780121
:100AB0008981282F30E0C901880F991F820F931F69
:100AC000880F991F880F991F840F951F28E034E025
:100AD000FC013387228789818F5F898300000F9013
:100AE0000F90DF91CF9108950F931F93CF93DF93D2
:100AF0000F92CDB7DEB71982D1C0409177015091E6
:100B000078018981282F30E0C901880F991F820F51
:100B1000931F880F991F880F991F840F951FDC0161
:100B200016964D915D916D917C911997E0917701A9
:100B3000F09178018981282F30E0C901880F991F31
:100B4000820F931F880F991F880F991F8E0F9F1F69
:100B5000FC0182819381A481B581481759076A07F6
:100B60007B0708F45BC0409177015091780189813F
:100B7000282F30E0C901880F991F820F931F880F1B
:100B8000991F880F991F840F951FDC011A964D91AC
:100B90005C9160917701709178018981282F30E014
:100BA000C901880F991F820F931F880F991F880F03
:100BB000991F860F971FDC01ED91FC9160917701E1
:100BC000709178018981282F30E0C901880F991F21
:100BD000820F931F880F991F880F991F8B01080F91
:100BE000191FCF01FA010995D8018D939C9340916B
:100BF0007701509178018981282F30E0C901880F51
:100C0000991F820F931F880F991F880F991F840FB8
:100C1000951FFC011682178210861186409177017C
:100C2000509178018981282F30E0C901880F991FE0
:100C3000820F931F880F991F880F991F840F951F8C
:100C4000DC0116960D911D912D913C911997809183
:100C5000130190911401AC0160E070E0A091770164
:100C6000B09178018981E82FF0E0CF01880F991FBA
:100C70008E0F9F1F880F991F880F991FFD01E80F86
:100C8000F91FD901C801840F951FA61FB71F8683BE
:100C90009783A087B18789818F5F898380911201B3
:100CA0009981981708F429CF000000000F90DF9178
:100CB000CF911F910F910895CF93DF9300D000D073
:100CC000CDB7DEB781E290E0FC01108282E290E0D5
:100CD0002FEFFC01208384E290E02FEFFC012083C2
:100CE00085E290E0FC01108287E290E02FEFFC01AA
:100CF000208388E290E0FC0110828AE290E02FEFEE
:100D0000FC0120838BE290E0FC01108280911301B2
:100D1000909114019C0140E050E029833A834B8379
:100D20005C8369817A818B819C810E942E020E9462
:100D30008D018BE090E00E945C020E9472000E9494
:100D400067000E945B04FFCF0F931F93CF93DF9345
:100D5000869F8001879F100D969F100D1124C8015A
:100D60000E94C006EC01009729F0A80170E060E045
:100D70000E94E807CE01DF91CF911F910F91089556
:100D80000F931F93CF93DF939C01029710F422E0FF
:100D900030E0E091DF01F091E00190E080E0B0E030
:100DA000A0E0309791F4009709F445C0821B930BA3
:100DB00084309105B8F58A819B816115710569F1CF
:100DC000FB0193838283FE0111C040815181028126
:100DD000138142175307F0F04217530799F4109705
:100DE00061F012960C93129713961C933296CF01D2
:100DF000DF91CF911F910F9108950093DF01109320
:100E0000E001F4CF009719F04817590718F4CA0108
:100E1000BD01EF01DF01F801C4CF9093E0018093A1
:100E2000DF01D1CFFE01E80FF91F21933193029723
:100E300099838883DCCF8091DD019091DE01892B3D
:100E400041F48091190190911A019093DE018093F1
:100E5000DD018091170190911801009741F48DB741
:100E60009EB740911B0150911C01841B950B409132
:100E7000DD015091DE014817590708F0B8CF841BF7
:100E8000950B8217930708F4B2CFB9016E5F7F4FBD
:100E90008617970708F4ABCF640F751F7093DE01B8
:100EA0006093DD01FA0121933193A1CFCF93DF93BA
:100EB0009C010097E9F0FC01329713821282C091E5
:100EC000DF01D091E001DE0190E080E02097A1F405
:100ED00080819181280F391F8091DD019091DE0181
:100EE0008217930709F067C0F093DE01E093DD01FC
:100EF000DF91CF910895DA01AE17BF0708F041C026
:100F000012964D915C911397CD014115510599F7BA
:100F1000DC011396FC93EE9312974D915D91A40F13
:100F2000B51FEA17FB0781F4208131812E5F3F4F07
:100F3000240F351FDC0111963C932E9322813381BF
:100F400013963C932E931297B0E0A0E08A819B8188
:100F50000097B1F5FE0181919191E80FF91F809101
:100F6000DD019091DE018E179F0711F6109759F55C
:100F70001092E0011092DF01D093DE01C093DD01F9
:100F8000B7CFB383A28340815181240F351FA217AD
:100F9000B30771F44E5F5F4F2D913C911197420F53
:100FA000531F5183408312962D913C9133832283AA
:100FB000009709F0ADCFF093E001E093DF0198CF07
:100FC000DE01EC01C3CF13961C921E921297D4CF70
:100FD000DC0101C06D9341505040E0F70895F89452
:020FE000FFCF41
:100FE2000000000200000000640100000000010097
:100FF200000002FA0041010000E1012000000000AF
:1010020000A4D082437BD49243A4D0A443719DAE6A
:10101200430000C4430000DC430080F64300D002DA
:101022004453434445464741422A002E2E2E5265E0
:1010320063656976696E67002D2D3E446F6E65218A
:101042003C2D2D003C2D2D4E6F20446174612D2DC1
:021052003E005E
:00000001FF
