:100000000C9446000C9465000C9465000C946500FB
:100010000C9465000C9465000C9465000C946500CC
:100020000C9465000C9465000C9465000C946500BC
:100030000C9465000C945D030C9465000C946500B1
:100040000C9465000C9465000C9465000C9465009C
:100050000C9465000C9465000C9465000C9465008C
:100060000C9465000C9465000C9465000C9465007C
:100070000C9465000C9465000C9465000C9465006C
:100080000C9465000C9465000C94650011241FBE4F
:10009000CFEFD0E4DEBFCDBF11E0A0E0B1E0E8E5F6
:1000A000FDE200E00BBF02C007900D92AE3FB1072A
:1000B000D9F725E0AEEFB1E001C01D92AD3FB20728
:1000C000E1F70E94E9110C94AA160C940000CF935A
:1000D000DF93CDB7DEB781E00E948E000000DF9194
:1000E000CF910895CF93DF93CDB7DEB784E690E04C
:1000F0000E94330188E30E948E0086E00E948E00F9
:100100008FE00E948E0081E00E948E008AE090E0E5
:100110000E9433010000DF91CF910895CF93DF93C8
:100120000F92CDB7DEB789838BE290E0FC0120818E
:100130008BE290E02F7BFC01208385E290E0298117
:10014000FC0120838BE290E0FC0120818BE290E0B7
:100150002068FC01208300008BE290E0FC012081FC
:100160008BE290E02F77FC01208382E090E00E94F8
:10017000330100000F90DF91CF910895CF93DF936B
:100180000F92CDB7DEB789838BE290E0FC0120812E
:100190008BE290E02064FC01208385E290E02981DD
:1001A000FC0120838BE290E0FC0120818BE290E057
:1001B0002068FC01208300008BE290E0FC0120819C
:1001C0008BE290E02F77FC01208381E090E00E9499
:1001D000330100000F90DF91CF910895CF93DF930B
:1001E00000D000D0CDB7DEB78A837C836B830E94BA
:1001F00067008A81898311C0898191E0980F998372
:100200000E941C018B819C819C012F5F3F4F3C838E
:100210002B83FC0180810E94BE008B819C81FC01AC
:100220008081882349F7000000000F900F900F9005
:100230000F90DF91CF910895CF93DF930F92CDB7B9
:10024000DEB789838981813128F4898181580E94B0
:100250008E0004C0898181550E948E0000000F909D
:10026000DF91CF910895CF93DF9300D000D000D0DD
:10027000CDB7DEB79E838D831A82198213C01C828C
:100280001B8206C000008B819C8101969C838B831E
:100290008B819C8187309340ACF389819A81019650
:1002A0009A83898329813A818D819E812817390714
:1002B00034F30000000026960FB6F894DEBF0FBEA0
:1002C000CDBFDF91CF910895CF93DF9300D00F92F0
:1002D000CDB7DEB789837B836A8389818A3031F425
:1002E0008A819B81BC018DE00E94640180EC90E0DA
:1002F000FC018081882F90E080729927892BB1F3CF
:1003000086EC90E02981FC01208380E090E00F9052
:100310000F900F90DF91CF910895CF93DF9300D08E
:10032000CDB7DEB79A83898389819A81292F3327B4
:1003300085EC90E0FC01208384EC90E02981FC01B5
:10034000208382EC90E02EE0FC01208381EC90E0A1
:1003500028E1FC01208300000F900F90DF91CF91E6
:100360000895CF93DF93CDB7DEB7000080EC90E027
:10037000FC0180818823D4F70000DF91CF9108959C
:10038000CF93DF93CDB7DEB7000080EC90E0FC01A7
:100390008081882F90E080749927892BB1F3000029
:1003A000DF91CF910895CF93DF93CDB7DEB780EC87
:1003B00090E0FC0180818074DF91CF910895CF930C
:1003C000DF93CDB7DEB780EC90E0FC0180818078D0
:1003D000DF91CF910895CF93DF930F92CDB7DEB722
:1003E00005C086EC90E0FC018081898380EC90E080
:1003F000FC0180818823ACF300000F90DF91CF9146
:100400000895CF93DF930F92CDB7DEB789830000B5
:1004100080EC90E0FC018081882F90E08072992729
:10042000892BB1F386EC90E02981FC012083000048
:100430000F90DF91CF910895CF93DF93CDB7DEB7C3
:1004400081EC90E0FC0110820000DF91CF910895D3
:10045000CF93DF93CDB7DEB7000080EC90E0FC01D6
:1004600080818823D4F786EC90E0FC018081DF91C5
:10047000CF910895CF93DF9300D000D0CDB7DEB7F2
:100480009A8389836B834C838B81803128F48981A3
:100490009A812B81FC01208389819A812C81FC0126
:1004A000218389819A81FC018181282F2295207FD7
:1004B00089819A81FC018081820F21E0280F898146
:1004C0009A81FC01228300000F900F900F900F90F3
:1004D000DF91CF910895CF93DF9300D0CDB7DEB7F2
:1004E0009A83898389819A81FC01118289819A8109
:1004F000FC018181282F2295207F89819A81FC012E
:100500008081820F21E0280F89819A81FC0122835A
:1005100000000F900F90DF91CF910895CF93DF935C
:1005200000D0CDB7DEB79A83898389819A8121E093
:10053000FC01218389819A81FC018181282F2295E8
:10054000207F89819A81FC018081820F21E0280F20
:1005500089819A81FC01228300000F900F90DF9126
:10056000CF910895CF93DF9300D0CDB7DEB79A83B4
:10057000898389819A81FC018081882339F089816E
:100580009A81FC0180812FEF280F04C089819A8114
:10059000FC01208189819A81FC01208389819A81D3
:1005A000FC018181282F2295207F89819A81FC017D
:1005B0008081820F21E0280F89819A81FC012283AA
:1005C00000000F900F90DF91CF910895CF93DF93AC
:1005D00000D0CDB7DEB79A83898389819A81FC01E7
:1005E00080818F3038F489819A81FC01808121E0FB
:1005F000280F04C089819A81FC01208189819A8118
:10060000FC01208389819A81FC018181282F229518
:10061000207F89819A81FC018081820F21E0280F4F
:1006200089819A81FC01228300000F900F90DF9155
:10063000CF910895CF93DF93CDB7DEB781E890E0F7
:100640002BE0FC01208388E890E02DE730E0FC01FE
:10065000318320838FE690E022E0FC01208384E850
:1006600090E0FC011182108280910E0190910F01A7
:10067000A0911001B09111018093FE019093FF01B0
:10068000A0930002B09301028FE590E0FC0120816D
:100690008FE590E02068FC0120830000DF91CF917E
:1006A0000895CF93DF93CDB7DEB781E890E0FC01EA
:1006B00010820000DF91CF9108951F920F920FB624
:1006C0000F9211240BB60F922F933F934F935F938A
:1006D0006F937F938F939F93AF93BF93EF93FF930A
:1006E000CF93DF93CDB7DEB78091FE019091FF01EC
:1006F000A0910002B09101020197A109B109809374
:10070000FE019093FF01A0930002B093010280913B
:10071000FE019091FF01A0910002B0910102892B8E
:100720008A2B8B2B91F40E94011180910E019091E4
:100730000F01A0911001B09111018093FE019093DF
:10074000FF01A0930002B09301020000DF91CF915E
:10075000FF91EF91BF91AF919F918F917F916F9199
:100760005F914F913F912F910F900BBE0F900FBE55
:100770000F901F901895CF93DF9300D000D0CDB786
:10078000DEB769837A838B839C8389819A81AB816D
:10079000BC8180930E0190930F01A0931001B09340
:1007A000110180910E0190910F01A0911001B09163
:1007B00011018093FE019093FF01A0930002B0937A
:1007C000010200000F900F900F900F90DF91CF91DA
:1007D0000895CF93DF9300D00F92CDB7DEB79B8300
:1007E0008A83198229C08981882F90E02A813B81E0
:1007F000820F931F0396FC0110828981882F90E05D
:100800002A813B81880F991F820F931F89599F4F1F
:10081000FC01118210828981882F90E02A813B811E
:10082000880F991F820F931F815D9E4FFC011182DB
:10083000108289818F5F898389818436A0F28A81C1
:100840009B81FC0110828A819B81FC0112821182B2
:1008500000000F900F900F90DF91CF910895CF93EC
:10086000DF93CDB7DEB728970FB6F894DEBF0FBE83
:10087000CDBF9A8389837C836B835E834D83388766
:100880002F8389819A81FC0180818436F0F58981EA
:100890009A81FC018081882F90E04B8129813A81E7
:1008A000820F931F0396FC01408389819A81FC018A
:1008B0008081882F90E029813A81880F991F820FCB
:1008C000931F89599F4F2D813E81FC0131832083E5
:1008D00089819A81FC018081882F90E029813A8169
:1008E000880F991F820F931F815D9E4F2F8138853E
:1008F000FC013183208389819A81FC01808121E080
:10090000280F89819A81FC012083000028960FB668
:10091000F894DEBF0FBECDBFDF91CF910895CF9386
:10092000DF93CDB7DEB728970FB6F894DEBF0FBEC2
:10093000CDBF9E838D8378876F838F81988547EFA6
:1009400051E060E070E00E94C7138D819E819C01A0
:100950002D5F3F4F8F819885039644E650E0B901A3
:100960000E94BE138D819E81FC01818192819C83B6
:100970008B838D819E81FC018081282F8F819885BA
:10098000FC0120838F81988501962B81FC012083B7
:100990008B819C81292F33278F8198850296FC01BA
:1009A000208381E090E09A83898357C02D813E8126
:1009B00089819A81880F991F820F931F89599F4FB0
:1009C000FC01808191819C838B8389819A818A59E2
:1009D0009F4F2F813885820F931F2B81FC0120832D
:1009E0008B819C81292F332789819A8189599F4F37
:1009F000AC018F819885840F951FFC0120832D8188
:100A00003E8189819A81880F991F820F931F815D92
:100A10009E4FFC01808191819C838B8389819A8187
:100A2000825D9E4F2F813885820F931F2B81FC01A1
:100A300020838B819C81292F332789819A81815D35
:100A40009E4FAC018F819885840F951FFC012083F8
:100A500089819A8102969A83898389819A81883CC7
:100A6000910508F4A3CF8D819E8182519C4F21E096
:100A7000FC012083000028960FB6F894DEBF0FBE5D
:100A8000CDBFDF91CF910895CF93DF9300D000D0F9
:100A900000D0CDB7DEB79C838B837E836D838B8143
:100AA0009C810E94E9038D819E819C012D5F3F4FB7
:100AB0008B819C81039644E650E0B9010E94BE13ED
:100AC0008D819E81FC018081282F8B819C81FC017E
:100AD00020838D819E810296FC018081282F880FC2
:100AE000330B8B819C81FC01328321838B819C8120
:100AF000FC0181819281382F22278B819C81FC010E
:100B0000328321838B819C81FC01218132818D8103
:100B10009E810196FC018081082E000C990B282BE8
:100B2000392B8B819C81FC013283218381E090E011
:100B30009A83898391C089819A8189599F4F9C01A9
:100B40008D819E81820F931FFC018081282F880F49
:100B5000330B4B815C8189819A81880F991F840FA7
:100B6000951F89599F4FFC013183208389819A8188
:100B700001972B813C81880F991F820F931F895900
:100B80009F4FFC014081518189819A818A599F4FF1
:100B90002D813E81820F931FFC018081282F880FB9
:100BA000330B89819A810197242B352B4B815C81F2
:100BB000880F991F840F951F89599F4FFC0131831E
:100BC000208389819A81815D9E4F9C018D819E81C8
:100BD000820F931FFC018081282F880F330B4B81DC
:100BE0005C8189819A81880F991F840F951F815D8F
:100BF0009E4FFC013183208389819A8101972B814B
:100C00003C81880F991F820F931F815D9E4FFC01CD
:100C10004081518189819A81825D9E4F2D813E81E3
:100C2000820F931FFC018081282F880F330B89814D
:100C30009A810197242B352B4B815C81880F991F5A
:100C4000840F951F815D9E4FFC0131832083898134
:100C50009A8102969A83898389819A81883C910539
:100C600008F469CF0000000026960FB6F894DEBFA6
:100C70000FBECDBFDF91CF910895CF93DF93CDB756
:100C8000DEB78AE790E0FC0120818AE790E0206EE1
:100C9000FC0120830000DF91CF910895CF93DF9373
:100CA0000F92CDB7DEB789838981882F90E00097B6
:100CB00019F0019739F00CC08CE790E020ECFC01B2
:100CC00020830BC08CE790E021ECFC01208305C061
:100CD0008CE790E0FC011082000084E090E00E942C
:100CE000330100000F90DF91CF910895CF93DF93F0
:100CF00000D000D00F92CDB7DEB79A8389836B8383
:100D00005D834C8389819A812B81FC0122AF89818B
:100D10009A81FC0182AD282F30E04DE1429FC00155
:100D2000439F900D112429813A81820F931F2C81BA
:100D30003D81B9010E94CE1389819A81CB964FE003
:100D400061E00E943A0200000F900F900F900F9008
:100D50000F90DF91CF910895CF93DF9300D000D013
:100D6000CDB7DEB79A8389836B834C838B818D31BA
:100D700050F48B81882F90E04C8129813A81820F39
:100D8000931FFC01408300000F900F900F900F9075
:100D9000DF91CF910895CF93DF9300D000D0CDB7EE
:100DA000DEB79A8389836B834C832B8189819A81F7
:100DB000FC01228389819A81FC018281882F90E045
:100DC0006EE370E00E947A129C0189819A81FC0195
:100DD000318320839C818B8198172CF42C8189810D
:100DE0009A81FC01238300000F900F900F900F90C9
:100DF000DF91CF910895CF93DF9300D0CDB7DEB7C9
:100E00009A83898389819A81FC018381882F90E06C
:100E1000AC014F5F5F4F89819A81FC018281282F4D
:100E200030E0CA01B9010E944312282F89819A81BA
:100E3000FC01238300000F900F90DF91CF91089564
:100E4000CF93DF9300D0CDB7DEB79A8389838981B2
:100E50009A81FC018381882339F089819A81FC0180
:100E600083812FEF280F06C089819A81FC0182813E
:100E70002FEF280F89819A81FC01238300000F90B6
:100E80000F90DF91CF910895CF93DF9300D00F9211
:100E9000CDB7DEB79A8389836B8389819A81FC0100
:100EA000208131818B81482F50E06EE3649FC00127
:100EB000659F900D1124820F931FFC0182AD882F36
:100EC00090E0019681709078992324F401978E6FB9
:100ED0009F6F0196BC0189819A81FC01208131813B
:100EE0008B81482F50E0EEE3E49FC001E59F900D19
:100EF0001124820F931F262FFC0122AF00000F90B8
:100F00000F900F90DF91CF910895CF93DF9300D092
:100F10000F92CDB7DEB79A8389836B8389819A81DB
:100F2000FC01208131818B81482F50E06EE3649F6A
:100F3000C001659F900D1124820F931FFC0182ADAB
:100F40008130A9F089819A81FC01208131818B81D6
:100F5000482F50E06EE3649FC001659F900D1124FF
:100F6000820F931FFC0182AD61E0680F01C060E059
:100F700089819A81FC01208131818B81482F50E049
:100F80007EE3749FC001759F900D1124820F931F03
:100F9000FC0162AF00000F900F900F90DF91CF9196
:100FA0000895CF93DF9300D00F92CDB7DEB79A8329
:100FB00089836B8389819A81FC0182819B81981747
:100FC00088F489819A81FC01208131818B81482FAD
:100FD00050E06EE3649FC001659F900D1124820F65
:100FE000931F02C080E090E00F900F900F90DF9170
:100FF000CF910895CF93DF9300D000D000D0CDB72C
:10100000DEB79A8389836B834C833E832D838981EA
:101010009A81FC01208131818B81482F50E06EE361
:10102000649FC001659F900D1124280F391F8C818A
:10103000482F50E06DE1649FC001659F900D112421
:10104000820F931F2D813E81B9010E94CE130000B3
:1010500026960FB6F894DEBF0FBECDBFDF91CF91BD
:101060000895CF93DF9300D00F92CDB7DEB79A8368
:1010700089836B8389819A81FC01208131818981F7
:101080009A81FC018381482F50E06EE3649FC00188
:10109000659F900D1124280F391F8B81482F50E038
:1010A0006DE1649FC001659F900D1124820F931F15
:1010B0000F900F900F90DF91CF910895CF93DF9312
:1010C00000D000D00F92CDB7DEB79D838C83909176
:1010D000020281E08923882379F181E08095909153
:1010E00002028923809302028091F805882331F45B
:1010F00061E074E08AE092E00E948F0481E00E9447
:1011000001020E9428028B838B818F3FA9F41A82EF
:1011100019820DC089819A818F5F9B4FFC0180816C
:101120000E94010289819A8101969A83898389812B
:101130009A81873F914070F38C819D810F900F9031
:101140000F900F900F90DF91CF910895CF93DF9381
:1011500000D000D00F92CDB7DEB79D838C830E9464
:10116000DF01882309F43FC00E9428028B838B8112
:101170008130C9F58AE092E00E94E90347EF51E02F
:1011800060E070E081E094E00E94C7138FEF0E945E
:1011900001021A8219820EC00E942802282F89811A
:1011A0009A818F5F9B4FFC01208389819A810196F0
:1011B0009A83898389819A81873F914068F381E08E
:1011C0008093F80561E074E08AE092E00E944405B3
:1011D00060E085E092E00E9444079091020284E082
:1011E000892B809302028C819D810F900F900F902C
:1011F0000F900F90DF91CF910895CF93DF9300D0A0
:1012000000D0CDB7DEB79C838B8381E00E944E0671
:1012100088E790E0FC01808191819A8389838981AC
:101220009A818835924030F08091090282608093E3
:10123000090215C089819A81853F914030F48091DF
:1012400009028160809309020AC0809109028E7FA1
:1012500080930902809109028D7F809309028B811E
:101260009C810F900F900F900F90DF91CF91089578
:10127000CF93DF9300D000D0CDB7DEB79C838B83B4
:1012800080E00E944E0688E790E0FC018081918119
:101290009A83898389819A818835924030F0809140
:1012A000090284608093090215C089819A81853F73
:1012B000914030F4809109028860809309020AC04D
:1012C000809109028B7F8093090280910902877FB8
:1012D000809309028B819C810F900F900F900F904B
:1012E000DF91CF910895CF93DF9300D00F92CDB7C8
:1012F000DEB79B838A8380E290E0FC018081809549
:10130000847089838981882331F08091090280610A
:101310008093090205C0809109028F7E80930902A3
:101320008A819B810F900F900F90DF91CF9108954C
:10133000CF93DF9300D00F92CDB7DEB79B838A8324
:1013400080910802882F90E08330910509F49CC0B9
:10135000843091050CF09AC08230910559F08330A9
:1013600091050CF093C0009709F492C0019709F41D
:1013700091C08CC080910B0290910C02969587953C
:1013800096958795969587959C01A5ECB0E20E946D
:101390005712FC01F295E295EF70EF27FF70EF27EF
:1013A00080910A02682F70E02091050230910602B8
:1013B00080910802482F50E0AEE3A49FC001A59F92
:1013C000900D1124820F931F9C018F2F8F938E2FCE
:1013D0008F93872F8F93862F8F938EE491E0892FA1
:1013E0008F938EE491E08F93832F8F93822F8F932F
:1013F0000E94D5138DB79EB708960FB6F894DEBF3E
:101400000FBECDBF198236C08981082E000C990B02
:10141000835F9D4FDC018C91882349F1209112015B
:10142000309113018981082E000C990B835F9D4F29
:10143000FC018081882F90E0820F931FDC01EC91EA
:1014400089817AE0780F209105023091060280911F
:101450000802482F50E06EE3649FC001659F900D25
:101460001124820F931F4E2F672F0E94AC06898193
:101470008F5F8983898185303CF29091020284E0FC
:10148000892B8093020207C0000005C0000003C042
:10149000000001C0000000000F900F900F90DF913E
:1014A000CF910895CF93DF9300D0CDB7DEB79A8365
:1014B000898380910802882F90E08330910509F498
:1014C00046C1843091050CF0F0C18230910509F4D9
:1014D000DFC0833091050CF0E8C1009719F0019747
:1014E00041F1E3C180910902882F90E08170992732
:1014F000892B59F085E092E00E942007909102022A
:1015000084E0892B80930202D2C180910902882F46
:1015100090E082709927892B09F4C9C185E092E097
:101520000E94FB069091020284E0892B80930202C4
:10153000BEC180910902882F90E081709927892B84
:1015400099F1209105023091060280910802482FFE
:1015500050E06EE3649FC001659F900D1124820FDF
:10156000931FFC0183AD882359F485E092E00E942B
:1015700020079091020284E0892B8093020299C196
:10158000209105023091060280910802482F50E018
:101590006EE3649FC001659F900D1124820F931F1D
:1015A000CB960E94B20285C180910902882F90E0FB
:1015B00082709927892B99F12091050230910602BA
:1015C00080910802482F50E06EE3649FC001659F40
:1015D000900D1124820F931FFC0183AD8F3059F4BD
:1015E00085E092E00E94FB069091020284E0892B44
:1015F000809302025EC12091050230910602809123
:101600000802482F50E06EE3649FC001659F900D73
:101610001124820F931FCB960E94E6024AC180914B
:101620000902882F90E084709927892BA1F02091DE
:1016300005023091060280910802482F50E06EE3C7
:10164000649FC001659F900D1124820F931FCB965C
:101650000E946B022EC180910902882F90E0887051
:101660009927892B09F425C12091050230910602A2
:1016700080910802482F50E06EE3649FC001659F8F
:10168000900D1124820F931FCB960E948E0211C1E0
:1016900080910902882F90E081709927892B59F059
:1016A00085E092E00E9420079091020284E0892B5D
:1016B0008093020200C180910902882F90E082701D
:1016C0009927892B59F085E092E00E94FB069091C2
:1016D000020284E0892B80930202EDC0809109020E
:1016E000882F90E084709927892BA1F02091050222
:1016F0003091060280910802482F50E06EE3649F0B
:10170000C001659F900D1124820F931FCB960E94FC
:101710006B02D1C080910902882F90E088709927D0
:10172000892B09F4C8C020910502309106028091EE
:101730000802482F50E06EE3649FC001659F900D42
:101740001124820F931FCB960E948E02B4C0809109
:101750000902882F90E081709927892B99F12091B7
:1017600005023091060280910802482F50E06EE396
:10177000649FC001659F900D1124820F931FFC018F
:1017800083AD882359F485E092E00E942007909170
:10179000020284E0892B809302028FC0209105020F
:1017A0003091060280910802482F50E06EE3649F5A
:1017B000C001659F900D1124820F931FCB960E944C
:1017C000B2027BC080910902882F90E08270992735
:1017D000892B99F12091050230910602809108022F
:1017E000482F50E06EE3649FC001659F900D112467
:1017F000820F931FFC0183AD8F3059F485E092E096
:101800000E94FB069091020284E0892B80930202E1
:1018100054C0209105023091060280910802482FA1
:1018200050E06EE3649FC001659F900D1124820F0C
:10183000931FCB960E94E60240C080910902882F38
:1018400090E084709927892BA1F0209105023091B6
:10185000060280910802482F50E06EE3649FC001A9
:10186000659F900D1124820F931FCB960E946B02EF
:1018700024C080910902882F90E088709927892BD5
:10188000E1F0209105023091060280910802482F74
:1018900050E06EE3649FC001659F900D1124820F9C
:1018A000931FCB960E948E0208C0000007C0000064
:1018B00005C0000003C0000001C0000089819A81BA
:1018C0000F900F90DF91CF910895CF93DF9300D0C9
:1018D000CDB7DEB79A8389839091020284E0892391
:1018E000882311F184E080959091020289238093EE
:1018F0000202209105023091060280910802482FD1
:1019000050E06EE3649FC001659F900D1124820F2B
:10191000931FFC0182AD682F85E092E00E943108A0
:10192000BC0181E00E94EE00209105023091060288
:1019300080910802482F50E06EE3649FC001659FCC
:10194000900D1124820F931FFC0185AD0E941C0194
:1019500089819A810F900F90DF91CF910895CF9355
:10196000DF93CDB7DEB780910502909106024EE677
:1019700051E060E00E9476062BE831E041E060E053
:1019800085E092E00E94FA0780910502909106029C
:10199000CE9648EA51E060E00E947606809105020A
:1019A0009091060284589F4F45EC51E060E00E9400
:1019B0007606809105029091060286549F4F40EE74
:1019C00051E060E00E9476060000DF91CF9108951B
:1019D000CF93DF9300D0CDB7DEB780911401882F6D
:1019E00090E06CE070E00E947A1290930402809381
:1019F000030219821A8240910302509104028981E4
:101A0000282F30E0C901880F991F820F931F880F7C
:101A1000991F880F991F840F951F2A81222F30E06C
:101A2000FC01318320834091150150911601609192
:101A30000302709104028981282F30E0C901880FC8
:101A4000991F820F931F880F991F880F991F9B0161
:101A5000280F391FCA01A0E0B0E0F9018283938307
:101A6000A483B58340910302509104028981282FF9
:101A700030E0C901880F991F820F931F880F991FAB
:101A8000880F991F480F591F60910302709104023B
:101A90008981282F30E0C901880F991F820F931F79
:101AA000880F991F880F991F9B01280F391FFA0172
:101AB00082819381A481B581F90186839783A08770
:101AC000B18740910302509104028981282F30E0B0
:101AD000C901880F991F820F931F880F991F880FC4
:101AE000991F840F951F2EE538E0FC01338722876C
:101AF00089818F5F8983409103025091040289811B
:101B0000282F30E0C901880F991F820F931F880F7B
:101B1000991F880F991F840F951F2A81222F30E06B
:101B2000FC01318320834091150150911601609191
:101B30000302709104028981282F30E0C901880FC7
:101B4000991F820F931F880F991F880F991F9B0160
:101B5000280F391FCA01A0E0B0E0F9018283938306
:101B6000A483B58340910302509104028981282FF8
:101B700030E0C901880F991F820F931F880F991FAA
:101B8000880F991F480F591F60910302709104023A
:101B90008981282F30E0C901880F991F820F931F78
:101BA000880F991F880F991F9B01280F391FFA0171
:101BB00082819381A481B581F90186839783A0876F
:101BC000B18740910302509104028981282F30E0AF
:101BD000C901880F991F820F931F880F991F880FC3
:101BE000991F840F951F26EA38E0FC01338722876E
:101BF00089818F5F8983409103025091040289811A
:101C0000282F30E0C901880F991F820F931F880F7A
:101C1000991F880F991F840F951F2A81222F30E06A
:101C2000FC01318320834091150150911601609190
:101C30000302709104028981282F30E0C901880FC6
:101C4000991F820F931F880F991F880F991F9B015F
:101C5000280F391FCA01A0E0B0E0F9018283938305
:101C6000A483B58340910302509104028981282FF7
:101C700030E0C901880F991F820F931F880F991FA9
:101C8000880F991F480F591F609103027091040239
:101C90008981282F30E0C901880F991F820F931F77
:101CA000880F991F880F991F9B01280F391FFA0170
:101CB00082819381A481B581F90186839783A0876E
:101CC000B18740910302509104028981282F30E0AE
:101CD000C901880F991F820F931F880F991F880FC2
:101CE000991F840F951F2DEF38E0FC013387228761
:101CF00089818F5F89834091030250910402898119
:101D0000282F30E0C901880F991F820F931F880F79
:101D1000991F880F991F840F951F2A81222F30E069
:101D2000FC0131832083409115015091160160918F
:101D30000302709104028981282F30E0C901880FC5
:101D4000991F820F931F880F991F880F991F9B015E
:101D5000280F391FCA01A0E0B0E0F9018283938304
:101D6000A483B58340910302509104028981282FF6
:101D700030E0C901880F991F820F931F880F991FA8
:101D8000880F991F480F591F609103027091040238
:101D90008981282F30E0C901880F991F820F931F76
:101DA000880F991F880F991F9B01280F391FFA016F
:101DB00082819381A481B581F90186839783A0876D
:101DC000B18740910302509104028981282F30E0AD
:101DD000C901880F991F820F931F880F991F880FC1
:101DE000991F840F951F28E339E0FC013387228770
:101DF00089818F5F89834091030250910402898118
:101E0000282F30E0C901880F991F820F931F880F78
:101E1000991F880F991F840F951F2A81222F30E068
:101E2000FC0131832083409115015091160160918E
:101E30000302709104028981282F30E0C901880FC4
:101E4000991F820F931F880F991F880F991F9B015D
:101E5000280F391FCA01A0E0B0E0F9018283938303
:101E6000A483B58340910302509104028981282FF5
:101E700030E0C901880F991F820F931F880F991FA7
:101E8000880F991F480F591F609103027091040237
:101E90008981282F30E0C901880F991F820F931F75
:101EA000880F991F880F991F9B01280F391FFA016E
:101EB00082819381A481B581F90186839783A0876C
:101EC000B18740910302509104028981282F30E0AC
:101ED000C901880F991F820F931F880F991F880FC0
:101EE000991F840F951F23E739E0FC013387228770
:101EF00089818F5F89834091030250910402898117
:101F0000282F30E0C901880F991F820F931F880F77
:101F1000991F880F991F840F951F2A81222F30E067
:101F2000FC0131832083409115015091160160918D
:101F30000302709104028981282F30E0C901880FC3
:101F4000991F820F931F880F991F880F991F9B015C
:101F5000280F391FCA01A0E0B0E0F9018283938302
:101F6000A483B58340910302509104028981282FF4
:101F700030E0C901880F991F820F931F880F991FA6
:101F8000880F991F480F591F609103027091040236
:101F90008981282F30E0C901880F991F820F931F74
:101FA000880F991F880F991F9B01280F391FFA016D
:101FB00082819381A481B581F90186839783A0876B
:101FC000B18740910302509104028981282F30E0AB
:101FD000C901880F991F820F931F880F991F880FBF
:101FE000991F840F951F28E939E0FC013387228768
:101FF00089818F5F89834091030250910402898116
:10200000282F30E0C901880F991F820F931F880F76
:10201000991F880F991F840F951F2A81222F30E066
:10202000FC0131832083409115015091160160918C
:102030000302709104028981282F30E0C901880FC2
:10204000991F820F931F880F991F880F991F9B015B
:10205000280F391FCA01A0E0B0E0F9018283938301
:10206000A483B58340910302509104028981282FF3
:1020700030E0C901880F991F820F931F880F991FA5
:10208000880F991F480F591F609103027091040235
:102090008981282F30E0C901880F991F820F931F73
:1020A000880F991F880F991F9B01280F391FFA016C
:1020B00082819381A481B581F90186839783A0876A
:1020C000B18740910302509104028981282F30E0AA
:1020D000C901880F991F820F931F880F991F880FBE
:1020E000991F840F951F22E53AE0FC013387228770
:1020F00089818F5F89834091030250910402898115
:10210000282F30E0C901880F991F820F931F880F75
:10211000991F880F991F840F951F2A81222F30E065
:10212000FC0131832083409115015091160160918B
:102130000302709104028981282F30E0C901880FC1
:10214000991F820F931F880F991F880F991F9B015A
:10215000280F391FCA01A0E0B0E0F9018283938300
:10216000A483B58340910302509104028981282FF2
:1021700030E0C901880F991F820F931F880F991FA4
:10218000880F991F480F591F609103027091040234
:102190008981282F30E0C901880F991F820F931F72
:1021A000880F991F880F991F9B01280F391FFA016B
:1021B00082819381A481B581F90186839783A08769
:1021C000B18740910302509104028981282F30E0A9
:1021D000C901880F991F820F931F880F991F880FBD
:1021E000991F840F951F25E63CE0FC013387228769
:1021F00089818F5F898300000F900F90DF91CF91CD
:1022000008950F931F93CF93DF930F92CDB7DEB74F
:102210001982D1C040910302509104028981282F74
:1022200030E0C901880F991F820F931F880F991FF3
:10223000880F991F840F951FDC0116964D915D91B3
:102240006D917C911997E0910302F09104028981CC
:10225000282F30E0C901880F991F820F931F880F24
:10226000991F880F991F8E0F9F1FFC0182819381F8
:10227000A481B581481759076A077B0708F45BC03A
:1022800040910302509104028981282F30E0C90156
:10229000880F991F820F931F880F991F880F991F0E
:1022A000840F951FDC011A964D915C916091030299
:1022B000709104028981282F30E0C901880F991F8D
:1022C000820F931F880F991F880F991F860F971FE2
:1022D000DC01ED91FC91609103027091040289810F
:1022E000282F30E0C901880F991F820F931F880F94
:1022F000991F880F991F8B01080F191FCF01FA0131
:102300000995D8018D939C9340910302509104024A
:102310008981282F30E0C901880F991F820F931FF0
:10232000880F991F880F991F840F951FFC01168233
:102330001782108611864091030250910402898110
:10234000282F30E0C901880F991F820F931F880F33
:10235000991F880F991F840F951FDC0116960D9108
:102360001D912D913C911997809115019091160125
:10237000AC0160E070E0A0910302B0910402898199
:10238000E82FF0E0CF01880F991F8E0F9F1F880F55
:10239000991F880F991FFD01E80FF91FD901C80186
:1023A000840F951FA61FB71F86839783A087B187C9
:1023B00089818F5F8983809114019981981708F42E
:1023C00029CF000000000F90DF91CF911F910F9156
:1023D0000895CF93DF9300D000D0CDB7DEB781E270
:1023E00090E0FC01108282E290E02FEFFC0120835C
:1023F00084E290E02FEFFC01208385E290E0FC0175
:10240000108287E290E02FEFFC01208388E290E0C9
:10241000FC0110828AE290E02FEFFC0120838BE226
:1024200090E0FC01108280911501909116019C01B1
:1024300040E050E029833A834B835C8369817A8151
:102440008B819C810E94BB030E941A038BE090E069
:102450000E948D018AE092E00E94E9030E947200CE
:102460000E943D069091020284E0892B8093020233
:1024700040E064E085E092E00E94CB060E94AF0C51
:102480000E94E80CFFCF97FB072E16F4009407D0AC
:1024900077FD09D00E94661207FC05D03EF49095A6
:1024A00081959F4F0895709561957F4F0895A29FE4
:1024B000B001B39FC001A39F700D811D1124911D18
:1024C000B29F700D811D1124911D0895AA1BBB1B85
:1024D00051E107C0AA1FBB1FA617B70710F0A61B24
:1024E000B70B881F991F5A95A9F780959095BC0145
:1024F000CD0108950F931F93CF93DF93869F8001A3
:10250000879F100D969F100D1124C8010E949612EE
:10251000EC01009729F0A80170E060E00E94C71369
:10252000CE01DF91CF911F910F9108950F931F93CB
:10253000CF93DF939C01029710F422E030E0E0910A
:10254000FB05F091FC0590E080E0B0E0A0E0309762
:1025500091F4009709F445C0821B930B84309105D8
:10256000B8F58A819B816115710569F1FB0193833F
:102570008283FE0111C04081518102811381421783
:102580005307F0F04217530799F4109761F0129631
:102590000C93129713961C933296CF01DF91CF9133
:1025A0001F910F9108950093FB051093FC05F4CF44
:1025B000009719F04817590718F4CA01BD01EF0137
:1025C000DF01F801C4CF9093FC058093FB05D1CFC8
:1025D000FE01E80FF91F21933193029799838883B5
:1025E000DCCF8091F9059091FA05892B41F4809117
:1025F000190190911A019093FA058093F905809141
:10260000170190911801009741F48DB79EB7409142
:102610001B0150911C01841B950B4091F9055091B1
:10262000FA054817590708F0B8CF841B950B821795
:10263000930708F4B2CFB9016E5F7F4F86179707F3
:1026400008F4ABCF640F751F7093FA056093F9051A
:10265000FA0121933193A1CFCF93DF939C0100978F
:10266000E9F0FC01329713821282C091FB05D091F0
:10267000FC05DE0190E080E02097A1F4808191814B
:10268000280F391F8091F9059091FA058217930759
:1026900009F067C0F093FA05E093F905DF91CF9157
:1026A0000895DA01AE17BF0708F041C012964D91A8
:1026B0005C911397CD014115510599F7DC011396F3
:1026C000FC93EE9312974D915D91A40FB51FEA17FD
:1026D000FB0781F4208131812E5F3F4F240F351F8E
:1026E000DC0111963C932E932281338113963C9307
:1026F0002E931297B0E0A0E08A819B810097B1F5FC
:10270000FE0181919191E80FF91F8091F905909157
:10271000FA058E179F0711F6109759F51092FC05D0
:102720001092FB05D093FA05C093F905B7CFB38398
:10273000A28340815181240F351FA217B30771F482
:102740004E5F5F4F2D913C911197420F531F518364
:10275000408312962D913C9133832283009709F098
:10276000ADCFF093FC05E093FB0598CFDE01EC01C3
:10277000C3CF13961C921E921297D4CFFB01DC019B
:1027800002C001900D9241505040D8F70895DC01ED
:1027900001C06D9341505040E0F70895FB01DC010A
:1027A00001900D920020E1F708950F931F93CF93AE
:1027B000DF93CDB7DEB72E970FB6F894DEBF0FBE0E
:1027C000CDBF0D891E8986E08C831A8309838FEF24
:1027D0009FE79E838D83AE01475E5F4F6F89788D43
:1027E000CE0101960E9405142F813885020F131F18
:1027F000F80110822E960FB6F894DEBF0FBECDBF43
:10280000DF91CF911F910F9108952F923F924F9298
:102810005F926F927F928F929F92AF92BF92CF9270
:10282000DF92EF92FF920F931F93CF93DF93CDB779
:10283000DEB72F970FB6F894DEBF0FBECDBF7C0179
:102840003B018A01DC0117961C921E921697139683
:102850008C9181FFD8C19AE0292EFE0131964F015B
:10286000D70113969C91F30193FD859193FF81917C
:102870003F01882309F448C1853239F493FD8591DD
:1028800093FF81913F01853229F4B70190E00E94C6
:102890001C16E6CFB12C412C512CBFE1B51538F0F8
:1028A0008B3209F188F4803201F1833221F157FC37
:1028B0003AC020ED280F2A3040F556FE1FC0B29CCA
:1028C000200D1124B22E06C08D3291F0803379F79D
:1028D000689450F8F30193FD859193FF81913F0136
:1028E0008111DBCF20C0689451F8689452F8F2CF80
:1028F000689453F8EFCF689454F8ECCF429C200DC5
:102900001124422E689455F8E5CF8E3229F456FCF6
:10291000FBC0689456F8DECF8C3619F4689457F8EB
:10292000D9CF8836B9F2982F9F7D95549330C0F057
:102930008336A1F18337C1F1833509F05BC0D8013B
:10294000CD90DD908D016B2D70E056FC02C06FEFD5
:102950007FEFC6010E9406165C01689457F80AC012
:102960000C5F1F4FEFE3E983AA24A394B12C640109
:10297000E89457F853FC04C04A141B0409F018F5F6
:10298000342CA114B10431F5332009F469CFB70117
:1029900080E290E00E941C163A94F6CFD8018C9108
:1029A00089830E5F1F4FE0CFF801C190D1908F0156
:1029B0006B2D70E056FC02C06FEF7FEFC6010E94E6
:1029C00011165C01D5CFB70180E290E00E941C1681
:1029D0004A94D2CFF60157FC859157FE81916F0141
:1029E000B70190E00E941C1631103A94B1E0AB1A86
:1029F000B108C7CF843619F0893609F074C0F801E0
:102A000057FE6AC061917191819191918F01E52D7D
:102A1000EF76DE2E97FF09C09095809570956195B1
:102A20007F4F8F4F9F4F6894D7F82AE030E0A40182
:102A30000E944C16C82EC818AC2C5D2CD6FE0CC0BB
:102A4000E89450F8CB1440F4D4FE05C0D2FC03C087
:102A50005D2D5E7E552EAB2C54FEADC0FE01EC0DFF
:102A6000F11D8081803309F09FC0652D697E562E4F
:102A7000752D7870372E53FCADC050FEA7C0BC2C0E
:102A8000A41418F44C0CB42CBA1854FEA9C0B70105
:102A900080E390E00E941C1652FE09C088E790E097
:102AA00051FE02C088E590E0B7010E941C16CB14CD
:102AB00008F4A2C0CA94D12C8FEFC81AD80AC80C47
:102AC000D91CD6018E916D01B70190E00E941C16B1
:102AD0008C149D04B1F758CF61917191072E000CB1
:102AE000880B990B93CFD52CE894D4F82AE030E0EA
:102AF0008537E1F1F52DF97FDF2E803751F100F5B3
:102B0000883551F18F3681F1F701868197812F96B3
:102B10000FB6F894DEBF0FBECDBFDF91CF911F91EE
:102B20000F91FF90EF90DF90CF90BF90AF909F906C
:102B30008F907F906F905F904F903F902F9008956F
:102B4000883711F7D4FE02C06894D2F820E130E053
:102B50000DC06894D4F8F6CF54FE03C02F2F266022
:102B6000D22E20E132E002C028E030E0F801D7FEAA
:102B700015C041915191619171914C875D876E872C
:102B80007F878F01A4016C857D858E859F850E943E
:102B90004C16C82EC818E894D7F84ECF8191919161
:102BA000AC0170E060E0E9CF52FC02C0A39460CFBA
:102BB000A394A3945DCF852D867809F459CFF6CFE1
:102BC000B70180E290E00E941C16A394A414C0F305
:102BD000312C5BCF342C3A18A41408F456CFF8CF1C
:102BE000852D867809F463CF8BE251FE80E257FC95
:102BF0008DE2B70190E059CFB70180E390E00E94E9
:102C00001C16BA9454CF8FEF9FEF81CFFC01059033
:102C1000615070400110D8F7809590958E0F9F1FDE
:102C20000895FC016150704001900110D8F7809523
:102C300090958E0F9F1F08950F931F93CF93DF934F
:102C4000182F092FEB018B8181FD09C01FEF0FEFBA
:102C5000812F902FDF91CF911F910F91089582FFC7
:102C600014C02E813F818C819D81281739073CF447
:102C7000E881F981CF0101969983888310838E8141
:102C80009F8101969F838E83E3CFE885F985812F0D
:102C90000995892BA1F3DACFFA01AA27283051F13F
:102CA000203181F1E8946F936E7F6E5F7F4F8F4F7D
:102CB0009F4FAF4FB1E03ED0B4E03CD0670F781FDC
:102CC000891F9A1FA11D680F791F8A1F911DA11DC1
:102CD0006A0F711D811D911DA11D20D009F46894FA
:102CE0003F912AE0269F11243019305D3193DEF6A2
:102CF000CF010895462F4770405D4193B3E00FD058
:102D0000C9F7F6CF462F4F70405D4A3318F0495D42
:102D100031FD4052419302D0A9F7EACFB4E0A69525
:102D20009795879577956795BA95C9F70097610547
:102D3000710508959B01AC010A2E0694579547959D
:102D400037952795BA95C9F7620F731F841F951F92
:082D5000A01D0895F894FFCFC7
:102D58000000000200000000640100000000010003
:102D68000000410108FA000000FD052000000000F5
:102D780000A4D082437BD49243A4D0A443719DAED7
:102D8800430000C4430000DC430080F64300D00247
:102D98004453434445464741422A000102044E6FCA
:102DA8007465735B253032755D3A41424743443E52
:102DB80054696D653A252D3033757365630020209D
:102DC8002E2E2E526563656976696E672020202055
:102DD8002020202020202020202000202044617452
:102DE8006120526563656976656420202020202073
:102DF8002020202020202000313233343536373847
:102E0800394142434445464748494A4B4C4D4E4F49
:102E18005051523E004E6F7465735B25755D3A41A3
:102E2800424743443E54696D653A257573656300AE
:102E38002020506C6179202044656C6574652020E1
:0E2E4800202053746F702020736176650000A7
:00000001FF
